:100000000C94B00A0C94CD0A0C94CD0A0C94140EE6
:100010000C94CD0A0C94CD0A0C94CD0A0C94301C8F
:100020000C94CD0A0C94CD0A0C94CD0A0C94CD0AF4
:100030000C94CD0A0C94D00B0C94CD0A0C94CD0AE0
:100040000C94002C0C94CD0A0C94CD0A0C94CD0A7F
:100050000C94CD0A4552524F520D0A0D0A005265BA
:100060006164790D0A0D0A000D0A00436F6D706915
:100070006C69657274206D6974204743432056652E
:100080007273696F6E20342E332E300D0A00436F69
:100090006D70696C6965727420616D2046656220BF
:1000A0003139203230303920756D2032333A3230D8
:1000B0003A33380D0A000A0D53797374656D205276
:1000C000656164790A0D003A20504F4E47210D0AB0
:1000D000002E2569002E2569002E2569002569005E
:1000E0004D792049503A202531692E2531692E2538
:1000F00031692E2531690D0A0D0A005245414459D6
:10010000210D0A000A0D4E494320696E69743A00B8
:1001100048454C5020202020202D207072696E749C
:100120002048656C70746578740D0A3F202020208B
:10013000202020202D207072696E742048656C701C
:10014000746578740D0A5245534554202020202DA3
:100150002072657365742074686520415652202DA5
:1001600020436F6E74726F6C6C65720D0A5443504D
:100170002020202020202D206C6973742074686555
:1001800020746370207461626C650D0A49502020F0
:1001900020202020202D206C6973742F6368616EED
:1001A00067652069700D0A4E4554202020202020CC
:1001B0002D206C6973742F6368616E6765206E65AE
:1001C000746D61736B0D0A524F55544552202020B7
:1001D0002D206C6973742F6368616E676520726F80
:1001E000757465722069700D0A54494D45202020B0
:1001F00020202D206765742074696D650D0A504FAD
:10020000525441202020202D206C69737420504FBF
:100210005254410D0A504F525443202020202D208B
:100220006C69737420504F5254430D0A504F52540E
:1002300043534554202D2073657420504F5254432E
:1002400020302D3720302F310D0A504F525444208A
:100250002020202D206C69737420504F5254440D7F
:100260000A504F525444534554202D207365742036
:10027000504F52544420302D3720302F310D0A4E2C
:100280005450202020202D206C6973742F636861E6
:100290006E6765204E54500D0A4E54505220202057
:1002A0002D204E545020526566726573680D0A4DBC
:1002B0004143202020202D206C697374204D414340
:1002C0002D616464726573730D0A535620202020DB
:1002D000202D20736574207661726961626C650DF2
:1002E0000A004552524F5220504152414D4554450B
:1002F0005220205B50696E2E5374617475735D0DCE
:100300000A00736574706F727444202531692E255C
:1003100031690D0A0043353A2025690D0A43363A02
:100320002025690D0A43373A2025690D0A0043321A
:100330003A2025690D0A43333A2025690D0A4334D2
:100340003A2025690D0A0043303A2025690D0A43F9
:10035000313A2025690D0A004552524F5220504132
:1003600052414D4554455220205B50696E2E5374C6
:10037000617475735D0D0A00736574706F727444F7
:10038000202531692E2531690D0A0044353A202592
:10039000690D0A44363A2025690D0A44373A20256A
:1003A000690D0A0044323A2025690D0A44333A2087
:1003B00025690D0A44343A2025690D0A0041256952
:1003C0003A2025690D0A0041303A2025690D0A417D
:1003D000313A2025690D0A41323A2025690D0A413A
:1003E000333A2025690D0A002563000A0D54494D52
:1003F000453A202532693A2532693A2532690D0A93
:1004000000496E68616C742064657220566172697F
:1004100061626C655B2532695D203D202532690D86
:100420000A00526F757465722049503A202531696F
:100430002E2531692E2531692E2531690D0A004E90
:1004400045544D41534B3A202531692E2531692EB3
:100450002531692E2531690D0A004E54505F5365D0
:10046000727665723A202531692E2531692E253143
:10047000692E2531690D0A004D792049503A202511
:1004800031692E2531692E2531692E2531690D0AF4
:10049000004142434445464748494A4B4C4D4E4F24
:1004A000505152535455565758595A6162636465B6
:1004B000666768696A6B6C6D6E6F70717273747564
:1004C000767778797A303132333435363738392B9C
:1004D0002F3D000400051A06FF071F080009000A47
:1004E000FF0B19C100C00DC232CAEECB05C412C643
:1004F00012C70CE400E522E2F9E301E000E1013C6F
:1005000068746D6C3E3C686561643E3C6D65746109
:1005100020687474702D65717569763D2272656608
:10052000726573682220636F6E74656E743D22334A
:10053000302220746578742F68746D6C3B2063687A
:1005400061727365743D69736F2D383835392D319B
:10055000223E0D0A3C7469746C653E415652204E31
:10056000455420494F3C2F7469746C653E0D0A3C1C
:100570007374796C6520747970653D227465787444
:100580002F637373223E0D0A2E66657474207B669A
:100590006F6E742D7765696768743A20626F6C645A
:1005A0003B206D617267696E2D746F703A313570E2
:1005B000783B7D0D0A7464207B2063656C6C7061F0
:1005C0006464696E673A203270783B207D0D0A6260
:1005D0006F6479207B20666F6E742D66616D696C27
:1005E000793A20617269616C3B2020666F6E742DD0
:1005F00073697A653A20312E3020656D3B20636F38
:100600006C6F723A20233030303030303B206261E2
:10061000636B67726F756E642D636F6C6F723A20D7
:10062000726762283235352C203235352C20323035
:1006300034297D0D0A6831207B746578742D616CD6
:1006400069676E3A2063656E7465723B20666F6EF3
:10065000742D7765696768743A20626F6C643B201B
:10066000636F6C6F723A2077686974653B20666FC0
:100670006E742D73697A653A20312E3220656D7D56
:100680000D0A3C2F7374796C653E0D0A3C2F68652A
:1006900061643E3C626F64793E3C63656E74657272
:1006A0003E0D0A3C7461626C65207374796C653D23
:1006B0002277696474683A2036303070783B207451
:1006C0006578742D616C69676E3A206C6566743B61
:1006D000206261636B67726F756E642D636F6C6F00
:1006E000723A20726762283135332C203135332C31
:1006F00020323535293B222063656C6C706164645F
:10070000696E673D2235223E0D0A3C74723E3C7490
:10071000643E3C68313E4156522D4E45542D494F62
:100720003C2F68313E0D0A3C7461626C6520737425
:10073000796C653D2277696474683A2031303025E0
:100740003B20666F6E742D7765696768743A206226
:100750006F6C643B223E0D0A3C74723E3C74643EF6
:100760005365727665727A6569743A2025544940FA
:100770003C2F74643E3C7464207374796C653D2234
:10078000746578742D616C69676E3A207269676868
:10079000743B223E50616765636F756E7465723A93
:1007A000202556414032393C2F74643E3C2F7472F0
:1007B0003E3C2F7461626C653E0D0A3C2F74643EB2
:1007C0003C2F74723E3C2F7461626C653E0D0A3C96
:1007D00064697620636C6173733D2266657474226C
:1007E0003E53746174757320504F5254413A3C2FFC
:1007F0006469763E0D0A3C7461626C65207374799D
:100800006C653D2277696474683A203630307078C0
:100810003B20746578742D616C69676E3A206C6555
:1008200066743B206261636B67726F756E642D63E3
:100830006F6C6F723A20726762283235352C203225
:1008400035352C20313533293B2220626F726465A7
:10085000723D2230223E0D0A3C74723E3C74643E6E
:100860006469672E2045696E67616E673C2F74640A
:100870003E3C7464207374796C653D2277696474BE
:10088000683A333570783B223E6175662F7A753C45
:100890002F74643E3C746420616C69676E3D226312
:1008A000656E746572223E616E616C6F672E2045C5
:1008B000696E67616E673C2F74643E3C74643E579A
:1008C0006572742028302D31303233293C2F746406
:1008D0003E3C2F74723E0D0A3C74723E3C74643E82
:1008E00041305F46656E737465725F313C2F74648E
:1008F0003E3C7464207374796C653D226261636B65
:1009000067726F756E642D636F6C6F723A207267D9
:1009100062282550494E4130293B223E3C2F7464C9
:100920003E3C746420616C69676E3D2263656E7441
:100930006572223E41442D41343C2F74643E3C7428
:10094000643E2556414030343C2F74643E3C2F7445
:10095000723E0D0A3C74723E3C74643E41315F4607
:10096000656E737465725F323C2F74643E3C7464D0
:10097000207374796C653D226261636B67726F7579
:100980006E642D636F6C6F723A2072676228255017
:10099000494E4131293B223E3C2F74643E3C7464F5
:1009A00020616C69676E3D2263656E746572223EDC
:1009B00041442D41353C2F74643E3C74643E2556C1
:1009C000414030353C2F74643E3C2F74723E0D0A1A
:1009D0003C74723E3C74643E41325F3C2F74643E12
:1009E0003C7464207374796C653D226261636B674B
:1009F000726F756E642D636F6C6F723A20726762EE
:100A0000282550494E4132293B223E3C2F74643EFA
:100A10003C746420616C69676E3D2263656E746529
:100A200072223E41442D41363C2F74643E3C746436
:100A30003E2556414030363C2F74643E3C2F747244
:100A40003E0D0A3C74723E3C74643E41335F3C2F61
:100A500074643E3C7464207374796C653D226261F9
:100A6000636B67726F756E642D636F6C6F723A2083
:100A7000726762282550494E4133293B223E3C2F64
:100A800074643E3C746420616C69676E3D226365EA
:100A90006E746572223E41442D41373C2F74643E92
:100AA0003C74643E282D3E20312D57697265293CE7
:100AB0002F74643E3C2F74723E0D0A3C2F746162A9
:100AC0006C653E0D0A3C64697620636C6173733D0E
:100AD0002266657474223E536368616C74656E3A75
:100AE0003C2F6469763E0D0A3C7461626C6520732C
:100AF00074796C653D2277696474683A20363030C9
:100B000070783B20746578742D616C69676E3A204B
:100B10006C6566743B206261636B67726F756E64AF
:100B20002D636F6C6F723A20726762283235352CF4
:100B3000203230342C203531293B2220626F726400
:100B400065723D2230223E0D0A3C74723E3C746454
:100B50003E3C666F726D206E616D653D22666F7200
:100B60006D3122206D6574686F643D22706F7374FF
:100B70002220616374696F6E3D2220223E0D0A3C83
:100B80007461626C65207374796C653D2277696469
:100B900074683A20313030253B20746578742D61BB
:100BA0006C69676E3A206C6566743B2220626F72D6
:100BB0006465723D2230223E0D0A3C74723E3C74E4
:100BC000643E3C696E70757420747970653D226373
:100BD0006865636B626F7822206E616D653D224FA0
:100BE0005554222076616C75653D22412225504F77
:100BF000525443303E2043305F52656C6169735FED
:100C0000313C2F74643E3C74643E3C2F74643E3C23
:100C100074643E3C2F74643E3C2F74723E0D0A3C5B
:100C200074723E3C74643E3C696E707574207479D5
:100C300070653D22636865636B626F7822206E6128
:100C40006D653D224F5554222076616C75653D22BD
:100C5000422225504F525443313E2043315F52656A
:100C60006C6169735F323C2F74643E3C74643E3C3B
:100C70002F74643E3C74643E3C2F74643E3C2F747D
:100C8000723E0D0A3C74723E3C74643E3C696E7068
:100C9000757420747970653D22636865636B626F5B
:100CA0007822206E616D653D224F55542220766179
:100CB0006C75653D22432225504F525443323E20ED
:100CC00043325F52656C6169735F333C2F74643EDD
:100CD0003C74643E3C2F74643E3C74643E3C2F7410
:100CE000643E3C2F74723E0D0A3C74723E3C746448
:100CF0003E3C696E70757420747970653D2263683E
:100D000065636B626F7822206E616D653D224F5581
:100D100054222076616C75653D22442225504F5245
:100D20005443333E2043335F52656C6169735F34D3
:100D30003C2F74643E3C74643E3C2F74643E3C74AF
:100D4000643E3C2F74643E3C2F74723E0D0A3C742A
:100D5000723E3C74643E3C696E70757420747970A8
:100D6000653D22636865636B626F7822206E616DFA
:100D7000653D224F5554222076616C75653D2245B4
:100D80002225504F525443343E2043345F52656C09
:100D90006169735F353C2F74643E3C74643E3C2F44
:100DA00074643E3C74643E3C2F74643E3C2F747209
:100DB0003E0D0A3C74723E3C74643E3C696E707534
:100DC0007420747970653D22636865636B626F7827
:100DD00022206E616D653D224F5554222076616C54
:100DE00075653D22462225504F525443353E2043DF
:100DF000355F52656C6169735F363C2F74643E3CAD
:100E000074643E3C2F74643E3C74643E3C2F7464B6
:100E10003E3C2F74723E0D0A3C74723E3C74643E3C
:100E20003C696E70757420747970653D22636865E5
:100E3000636B626F7822206E616D653D224F555461
:100E4000222076616C75653D22472225504F525411
:100E500043363E2043365F52656C6169735F373CB1
:100E60002F74643E3C74643E3C2F74643E3C746456
:100E70003E3C2F74643E3C2F74723E0D0A3C7472EB
:100E80003E3C74643E3C696E707574207479706584
:100E90003D22636865636B626F7822206E616D65C9
:100EA0003D224F5554222076616C75653D224822C3
:100EB00025504F525443373E2043375F52656C6193
:100EC00069735F383C2F74643E3C74643E3C2F74FD
:100ED000643E3C74643E3C2F74643E3C2F74723E0E
:100EE0000D0A3C74723E3C74643E3C68723E3C2F7A
:100EF00074643E3C74643E3C68723E3C2F74643EB5
:100F00003C74643E3C68723E3C2F74643E3C2F74DB
:100F1000723E0D0A3C74723E3C74643E3C696E70D5
:100F2000757420747970653D22636865636B626FC8
:100F30007822206E616D653D224F555422207661E6
:100F40006C75653D224B2225504F525444323E2051
:100F500044323C2F74643E3C74643E3C696E707550
:100F60007420747970653D22636865636B626F7885
:100F700022206E616D653D224F5554222076616CB2
:100F800075653D224C2225504F525444333E204437
:100F9000333C2F74643E3C74643E3C696E707574DF
:100FA00020747970653D22636865636B626F782297
:100FB000206E616D653D224F5554222076616C751F
:100FC000653D224D2225504F525444343E20443436
:100FD0003C2F74643E3C2F74723E0D0A3C74723E8A
:100FE0003C74643E3C696E70757420747970653D24
:100FF00022636865636B626F7822206E616D653D68
:10100000224F5554222076616C75653D224E222573
:10101000504F525444353E2044353C2F74643E3C7E
:1010200074643E3C696E70757420747970653D22FD
:10103000636865636B626F7822206E616D653D2227
:101040004F5554222076616C75653D224F22255004
:101050004F525444363E2044363C2F74643E3C7418
:10106000643E3C696E70757420747970653D2263CE
:101070006865636B626F7822206E616D653D224FFB
:101080005554222076616C75653D22502225504FC3
:10109000525444373E2044373C2F74643E3C2F74F6
:1010A000723E0D0A3C2F7461626C653E0D0A3C680D
:1010B000723E3C7020616C69676E3D2263656E74A0
:1010C0006572223E3C696E70757420747970653D5E
:1010D000227375626D697422206E616D653D2253C5
:1010E0005542222076616C75653D2253656E6465BC
:1010F0006E223E3C2F703E3C2F666F726D3E0D0A95
:101100003C2F74643E3C2F74723E3C2F7461626CC1
:10111000653E0D0A3C62723E3C64697620636C61F8
:1011200073733D2266657474223E4C6F6B616C650F
:1011300020576574746572696E666F726D6174694B
:101140006F6E656E3A203C2F6469763E3C61206884
:101150007265663D687474703A2F2F7777772E77B3
:10116000657474657232342E64652F6E632F646506
:101170002F686F6D652F7765747465722F77656C56
:10118000747765747465722F6F72746577657474A3
:1011900065722E68746D6C3F6369747949443D349F
:1011A00039583732343126747970653D39383E2DDF
:1011B0003E207777772E77657474657232342E64AB
:1011C000653C2F613E0D0A3C62723E3C68723E0DEA
:1011D0000A3C6469763E504F525442202D3E2045D1
:1011E0004E4332384A36303C2F6469763E0D0A3C15
:1011F0006469763E41636874756E673A204B656931
:101200006E204C434420616E20504F525443206165
:101210006E7363686C6965DF656E21204265736378
:1012200068E4646967756E67206DF6676C6963686A
:101230002E3C2F6469763E0D0A3C62723E0D0A3CDC
:101240006469763E57656273657276657220766F63
:101250006E20556C7269636820526164696720561C
:10126000312E302E39393C2F6469763E0D0A3C64AC
:1012700069763E436F6D70696C6965727420616D4B
:1012800020466562203139203230303920756D209A
:1012900032333A32303A3430206D69742047434358
:1012A0002056657273696F6E20342E332E303C2FBA
:1012B0006469763E0D0A3C6469763E5665727369D0
:1012C0006F6E20312E3520526F42756520766F6D1E
:1012D0002031382E30322E323030392066FC7220E8
:1012E0004156522D4E45542D494F3C2F6469763E50
:1012F0000D0A3C2F7370616E3E3C2F626F64793E25
:101300003C2F68746D6C3E0D0A25454E44002556F1
:10131000414030340D0A2556414030350D0A2556DE
:10132000414030360D0A25454E4400485454502F54
:10133000312E302032303020446F63756D656E740D
:1013400020666F6C6C6F77730D0A536572766572E9
:101350003A204156525F5745425F5377697463683C
:101360000D0A436F6E74656E742D547970653A2062
:10137000746578742F68746D6C0D0A0D0A004854FA
:1013800054502F312E302032303020446F63756D31
:10139000656E7420666F6C6C6F77730D0A5365729F
:1013A0007665723A204156525F5745425F537769DE
:1013B0007463680D0A436F6E74656E742D54797092
:1013C000653A20696D6167652F6A70670D0A0D0ABD
:1013D00000485454502F312E302034303120556E77
:1013E000617574686F72697A65640D0A5365727607
:1013F00065723A204156525F5745425F5377697490
:1014000063680D0A5757572D41757468656E746986
:10141000636174653A204261736963207265616C2F
:101420006D3D224E65656450617373776F726422FF
:101430000D0A436F6E74656E742D547970653A2091
:10144000746578742F68746D6C0D0A0D0A00343061
:101450003120556E617574686F72697A65642545CF
:101460004E4400302C203135332C203000313533C0
:101470002C20302C2030000000636865636B6564AD
:1014800000504F53540053746172742054656C6E55
:101490006574205365727665723A0D0A00D9000AA8
:1014A000FA0000000000010400000000000000003D
:1014B000000000000000000000000000000000002C
:1014C0000000000000C7D6AC720800000025454EA1
:1014D000440A0D4E54502054494D453A2025326956
:1014E0003A2532693A2532690D0A002A2A204E54DB
:1014F0005020444154412047455421202A2A0D0AB6
:10150000004B65696E204E545020536572766572AB
:1015100020676566756E64656E21210D0A002A2AB2
:10152000204E545020526571756573742067657341
:10153000656E64657421202A2A0D0A002A2A204C2F
:101540004344204441544120474554204279746526
:10155000733A202569202A2A0D0A002578200000E8
:1015600011241FBECFE5D8E0DEBFCDBF11E0A0E65D
:10157000B0E0E2E0F5E602C005900D92A83EB107AA
:10158000D9F716E0A8EEB1E001C01D92A932B1076B
:10159000E1F70E94CF0A0C947F320C940000BF92B6
:1015A000CF92DF92EF92FF920F931F93CF93DF932F
:1015B0001ABA8FEF84BB8BB38F608BBB8BB3806702
:1015C0008BBB60E875E280E090E00E94A00B0E9477
:1015D000F92B86EB90E09F938F930E944F0C8EE83F
:1015E00090E09F938F930E944F0C8BE690E09F9327
:1015F0008F930E944F0C80E090E0A0E0B0E02DB708
:101600003EB72A5F3F4F0FB6F8943EBF0FBE2DBFC7
:1016100000000196A11DB11D803432E493073FE024
:10162000A30730E0B307A1F70E94511B0E945F2976
:101630000E94BD2A8BB780628BBF78940E94C52B15
:101640000E94752B2FEEB22E98E6C92E90E0D92E6F
:1016500084E5E82E80E0F82E0EE510E0C4E7D4E043
:10166000B6B80E94F5198091D80480FF1AC0DF92A5
:10167000CF920E944F0C82E695E00E94C91F0F9006
:101680000F90882319F01F930F9302C0FF92EF92DF
:101690000E944F0C0F900F908091D8048E7F809302
:1016A000D80460915E0570915F058091600590910E
:1016B000610520E13EE040E050E00E941F32CA0197
:1016C000B90128E130E040E050E00E941F32609311
:1016D0009B0560915E0570915F058091600590911A
:1016E00061052CE330E040E050E00E941F32CA0167
:1016F000B9012CE330E040E050E00E941F326093DB
:101700001A0260915E0570915F058091600590916D
:1017100061052CE330E040E050E00E941F3260930E
:10172000B6048091A6019091A701892B31F4D09342
:10173000A701C093A6010E94752B0E946C2990CF2F
:101740009B01AC0188E98AB984E0220F331F441F52
:10175000551F8A95D1F760E074E284EF90E00E9413
:101760001F32215029B98091D8048B7F8093D804EF
:101770000895982F8091D80482FD03C05D9BFECF11
:101780009CB90895FC0108C031968091D80482FD6F
:1017900003C05D9BFECF9CB990819923A9F7089562
:1017A0001F920F920FB60F9211242F933F938F9396
:1017B0009F93EF93FF938091D80482FD49C02CB191
:1017C0005D9BFECF2CB980FF04C08091D80482605D
:1017D00028C0283069F48091E8019091E901892BB3
:1017E00009F452C08091E8019091E90101972BC062
:1017F0002D30D1F4E091E801F091E901EF59FA4F71
:1018000080818C3589F0E091E801F091E901EE5991
:10181000FA4F10821092E9011092E8018091D804E9
:1018200081608093D80430C08091E8019091E901F3
:10183000C19750F58091E8019091E901FC01EE59C2
:10184000FA4F208301969093E9018093E8011CC030
:1018500020919C0030919D0080919E0090919F006E
:1018600001972817390781F08CB1F9018193F09322
:101870009D00E0939C00E359F54031F42053304043
:1018800030939D0020939C00FF91EF919F918F9149
:101890003F912F910F900FBE0F901F9018956F9250
:1018A0007F928F929F92AF92BF92CF92DF92EF92F0
:1018B000FF920F931F93DF93CF93CDB7DEB764975B
:1018C0000FB6F894DEBF0FBECDBF8E010B5D1F4F6C
:1018D000D801ED90FD908D01BB243E010894611C60
:1018E000711C5BE0852E912C8C0E9D1E40E3A42E76
:1018F00002C068018601F7019491992309F4A0C000
:101900000894E11CF11C953209F092C0F70108948B
:10191000E11CF11C2491822F90E0C0970A9710F0EF
:10192000822F0BC02B871C86C4010E94E030B82E8A
:10193000F7010894E11CF11C8491893671F08A3614
:1019400028F4823661F08336A1F620C0833749F04F
:10195000883769F18F3669F628C04AE029C042E02D
:1019600027C0D801ED91FC9108C031968091D80430
:1019700082FD03C05D9BFECF9CB990819923A9F79E
:1019800032E0C32ED12CC00ED11EB4CF22E0C22E25
:10199000D12CC00ED11EF80190818091D80482FD17
:1019A000A9CF5D9BFECF9CB9A5CF48E001C040E127
:1019B00092E0C92ED12CC00ED11E50E0B301D80147
:1019C0008D919C910E94CA3120E030E0A9014F5FC7
:1019D0005F4FF301E20FF31F8081882311F09A011A
:1019E000F5CF8B2D90E0281739079CF4B21AF4013B
:1019F000C4018B0D911D01C0A192E817F907E1F711
:101A00001082B301C4010E949531B401C3010E9448
:101A1000A031F30108C031968091D80482FD03C043
:101A20005D9BFECF9CB990819923A9F7BB2462CF1F
:101A30008091D80482FD5DCF5D9BFECF9CB959CFCC
:101A400064960FB6F894DEBF0FBECDBFCF91DF9185
:101A50001F910F91FF90EF90DF90CF90BF90AF90CC
:101A60009F908F907F906F9008950F931F93DF93B7
:101A7000CF9300D000D0CDB7DEB7DC01142F052FF7
:101A800020E030E0AE014F5F5F4FE199FECFC9012A
:101A90008A0F9B1F9FBB8EBBE09A8DB3FA01E20FAA
:101AA000F31F80832F5F3F4F2430310571F7298169
:101AB0003A814B815C812F3F8FEF38078FEF4807CA
:101AC0008FEF580731F4212F302FC901DB019C0122
:101AD000AD01B901CA010F900F900F900F90CF91F7
:101AE000DF911F910F91089540E050E09A01220F7D
:101AF000331F240F351FD901AA0FBB1FAA0FBB1F0D
:101B0000A858BB4F1A968D919C911B97892B09F56C
:101B10001C9211961C921197F901EE0FFF1FEE0F08
:101B2000FF1FE658FB4F108213961C921397F90182
:101B3000EE0FFF1FEE0FFF1FE458FB4F10821596AC
:101B40001C92159716961D921D921D921C92199724
:101B500009C01A968D919C911B9701971B969C9397
:101B60008E931A974F5F5F4F4530510509F0BECFF6
:101B70000895AC0120E001C02F5FA22FB0E0FD016D
:101B8000EE0FFF1FEE0FFF1FE651FE4F8081918188
:101B9000892B91F7253050F451834083AA0FBB1F46
:101BA000AA0FBB1FA451BE4F6D937C93089520E0F4
:101BB00001C02F5FA22FB0E0FD01EE0FFF1FEE0F5F
:101BC000FF1FE651FE4F0190F081E02D309719F094
:101BD000E817F90771F7253040F4AA0FBB1FAA0FC9
:101BE000BB1FA651BE4F6D937C930895AC0120E0BE
:101BF00001C02F5FA22FB0E0FD01EE0FFF1FEE0F1F
:101C0000FF1FE250FE4F80819181892B91F7253093
:101C100050F451834083AA0FBB1FAA0FBB1FA050D3
:101C2000BE4F6D937C9308951F920F920FB60F9243
:101C300011248F938091B70481608093B704109230
:101C400014021092150210921602109217028BB70E
:101C50008F7D8BBF8F910F900FBE0F901F901895A7
:101C60000F931F93CF93DF9300912B0210912C02BF
:101C700060E070E086E008301807C1F4FB01EE0F69
:101C8000FF1FE60FF71FEE0FFF1FEE0FFF1FE858B5
:101C9000FB4F268137814085518580913B02909191
:101CA0003C02A0913D02B0913E021AC008301105DD
:101CB00009F5FB01EE0FFF1FE60FF71FEE0FFF1FE9
:101CC000EE0FFF1FE858FB4F268137814085518575
:101CD0008091390290913A02A0913B02B0913C026E
:101CE000281739074A075B0729F484E690E09387B1
:101CF000828788C06F5F7F4F6530710509F0BACF6A
:101D000020E030E0A901440F551F420F531FEA01A4
:101D1000CC0FDD1FCC0FDD1FC858DB4FBE016A5F43
:101D20007F4F8E819F81A885B9850097A105B10558
:101D300009F062C0E6E008301E0749F580912502EF
:101D4000888380912602898380912702FA01EE0F11
:101D5000FF1FEE0FFF1FE658FB4F80838091280284
:101D60008B8380912902FA01EE0FFF1FEE0FFF1FF8
:101D7000E458FB4F808380912A028D8380913B023F
:101D800090913C02A0913D02B0913E022BC00830E0
:101D90001105C1F5809125028883809126028983EF
:101DA00080912702FA01EE0FFF1FEE0FFF1FE6588A
:101DB000FB4F8083809128028B8380912902FA0156
:101DC000EE0FFF1FEE0FFF1FE458FB4F8083809143
:101DD0002A028D838091390290913A02A0913B02B0
:101DE000B0913C02FB0180839183A283B38384E69C
:101DF00090E09B878A8706C02F5F3F4F25303105D3
:101E000009F080CFDF91CF911F910F9108951F931B
:101E1000AB01BC0120E030E0122FF901EE0FFF1FF3
:101E2000E20FF31FEE0FFF1FEE0FFF1FE858FB4FEF
:101E300086819781A085B18584179507A607B70786
:101E400031F02F5F3F4F2530310531F715E0812FFD
:101E50001F910895FF920F931F93182F092F20E0D1
:101E600030E0F22EF901EE0FFF1FE20FF31FEE0F2D
:101E7000FF1FEE0FFF1FE858FB4F86819781A0855B
:101E8000B18584179507A607B70731F02F5F3F4F3D
:101E90002530310531F726C0212F302FC901DC0153
:101EA00040E050E08F2D90E09C01220F331F280F5F
:101EB000391F220F331F220F331FF901E40FF51FC3
:101EC000E858FB4F80818C93FA01EB56FA4F8081E2
:101ED00016968C9316974F5F5F4F119646305105BB
:101EE00061F70FC0A5E9B5E0812F902F9C01F901A2
:101EF0009FEF90838D918683319685E0AB39B8074B
:101F0000C1F71F910F91FF900895EF92FF920F93E9
:101F10001F93CF93DF937C018B01EC0111C088816B
:101F200099812296F82FE0E0DF01A90FB11DCD01C4
:101F3000A0E0B0E0280F391F4A1F5B1F62507040BD
:101F40006230710560F7F801EE7FEE0DFF1D00FFB6
:101F500008C0908180E0A0E0B0E0280F391F4A1F40
:101F60005B1FCA01AA27BB2740705070820F931FC6
:101F7000A41FB51F9D0144275527A070B070280FDE
:101F8000391F4A1F5B1F20953095C901DF91CF9102
:101F90001F910F91FF90EF900895AF92BF92CF9253
:101FA000DF92EF92FF920F931F937C015A016B0116
:101FB0000E942A0F88E090E0F701958784878701C7
:101FC000025F1F4F80E490E0F8019783868380E8EA
:101FD00080878091120290911302019690931302D0
:101FE000809312029483858385E4F7018687F80144
:101FF0001182A08AB18AC28AD38A8091B804909152
:10200000B904A091BA04B091BB0484879587A687D0
:10201000B7871386128620E030E040E050E064E1AC
:1020200070E0C8010E94850FF801928783871F9195
:102030000F91FF90EF90DF90CF90BF90AF900895F9
:102040006F927F928F929F92AF92BF92CF92DF92C8
:10205000EF92FF920F931F93CF93DF938C01EC01CC
:10206000A296BC01625F7F4FDB011C96CD90DD9094
:10207000ED90FC901F9740E050E0E6E1AE2EB12CD1
:102080004A9DF0014B9DF00D5A9DF00D1124E75231
:10209000FB4F80819181A281B3818C159D05AE0596
:1020A000BF0509F0A1C02481358188819981281755
:1020B000390709F099C088859985AA85BB858087ED
:1020C0009187A287B3878C819D81AE81BF818487F0
:1020D0009587A687B7878D85808B83898F3F11F081
:1020E00083E0838BFB01F280E3802CEE3FEFE20E76
:1020F000F31E8C8590E0807F9070959587959595DF
:102100008795E81AF90A00E010E086E190E0489F20
:10211000F001499FF00D589FF00D1124E752FB4F3D
:10212000A484B584C684D78424853585468557859F
:10213000648475848684978484859585A685B7850F
:10214000B82FAA2799278827AD2CBB24CC24DD24BF
:102150008A0D9B1DAC1DBD1D207030705070232F4B
:10216000342F452F5527820F931FA41FB51F20E042
:102170003FEF40E050E06222732284229522982CA7
:10218000872C762C6624860D971DA81DB91D8E0DF3
:102190009F1DA01FB11F182F0027FF24EE242B2FF7
:1021A000332744275527E20EF31E041F151F9C01F9
:1021B000AD01207030705070232F342F452F5527DC
:1021C000E20EF31E041F151F8070A070B070BA2FAE
:1021D000A92F982F8827E80EF91E0A1F1B1FE486D7
:1021E000F586068717874FC04F5F5F4F4530510513
:1021F00009F046CF20E030E066E170E0269FA001C4
:10220000279F500D369F500D1124FA01E752FB4FC6
:1022100080819181A281B3810097A105B10569F503
:10222000C082D182E282F382D80192968D919C91F4
:102230009397958384838A819B81978386838885FE
:102240009985AA85BB8580879187A287B3878C8172
:102250009D81AE81BF8184879587A687B7878D854D
:10226000808B128A118A83E0838B148AFA01E251EF
:10227000FB4F80818E7F808306C02F5F3F4F2530CC
:10228000310509F0BBCFDF91CF911F910F91FF90E6
:10229000EF90DF90CF90BF90AF909F908F907F9006
:1022A0006F900895EF92FF920F931F93CF93DF9358
:1022B0007B018C0120E030E0C6E1D0E0622F2C9F52
:1022C000F0012D9FF00D3C9FF00D1124E752FB4FC4
:1022D00080819181A281B3818E159F05A007B107EE
:1022E00029F4848195818417950731F02F5F3F4F42
:1022F0002530310519F765E0862FDF91CF911F91C9
:102300000F91FF90EF90089520E001C02F5FA22F62
:10231000B0E0FD01EE0FFF1FEE0FFF1FE250FE4F7A
:102320000190F081E02D309789F0909143028091E7
:102330004402E817F90751F7AA0FBB1FAA0FBB1FEA
:10234000A050BE4FED91FC9180E009950895CF9388
:10235000DF93582F40E0282F30E086E190E0289F5F
:10236000E001299FD00D389FD00D1124C152DB4FC1
:1023700001C04F5FA42FB0E0FD01EE0FFF1FEE0F75
:10238000FF1FE651FE4F0190F081E02D309769F07C
:102390002881398188819981892F9927322F222795
:1023A000820F931FE817F90721F7AA0FBB1FAA0F87
:1023B000BB1FA451BE4FED91FC91852F0995DF9174
:1023C000CF910895863038F5282F30E086E190E0EF
:1023D000289FD001299FB00D389FB00D1124FD0119
:1023E000E752FB4F108211821282138215821482EF
:1023F0001782168210861186128613861486158619
:1024000016861786108A128A118A138AA251BB4F28
:102410008C918E7F8C9308954F925F926F927F92F2
:102420008F929F92AF92BF92CF92DF92EF92FF92E4
:102430000F931F93CF93DF93EC018DE2482E82E040
:10244000582E70E086E190E0689FF001699FF00DE2
:10245000789FF00D1124E752FB4F8681978190936E
:10246000420280934102848195819093440280933B
:102470004302109254021092530281E094EF909321
:10248000500280934F0280E580934D02E484F584EE
:10249000068517852485358546855785A484B584AA
:1024A000C684D78484859585A685B785982E88248B
:1024B00077246624E12EFF24002711276E0C7F1C51
:1024C000801E911E207030705070232F342F452FA6
:1024D0005527620E731E841E951E80E09FEFA0E0BC
:1024E000B0E0A822B922CA22DB22DC2CCB2CBA2CE9
:1024F000AA246A0C7B1C8C1C9D1C808980934E0234
:10250000808981FF16C00894611C711C811C911C7C
:1025100082E08093550284E08093560281E08093AC
:10252000570284EF8093580280E680934D02C4E006
:10253000D0E0562D442733272227892D9927AA2713
:10254000BB27280F391F4A1F5B1FD401C3018070AE
:102550009070B070892F9A2FAB2FBB27280F391F8F
:102560004A1F5B1F80E09FEFA0E0B0E06822792265
:102570008A229B22B82DA72D962D8827280F391F38
:102580004A1F5B1F2093490230934A0240934B023B
:1025900050934C0286E190E0689F8001699F100D86
:1025A000789F100D112407521B4FF80180859185EB
:1025B000A285B3858093450290934602A09347027B
:1025C000B0934802CE018896D20112969C9312973E
:1025D00013968C93139786E019968C9340815181C2
:1025E000628173818FE192E00E94CD0F10925202BE
:1025F0001092510270912F0260913002685F7F4FFC
:1026000080912D0290E08F709070880F991F880F35
:10261000991F681B790B625070409B0140E050E0AD
:102620006E5F7F4F89E392E00E94850F9093510285
:10263000809352026FE172E0CE01C6960E94512152
:10264000F801108ADF91CF911F910F91FF90EF90C9
:10265000DF90CF90BF90AF909F908F907F906F90C2
:102660005F904F900895AF92BF92CF92DF92EF921A
:10267000FF920F931F93CF93DF937B018C016A012D
:1026800059018BB78F7D8BBF20E030E0C6E1D0E0F1
:10269000622F2C9FA0012D9F500D3C9F500D1124A7
:1026A000FA01E752FB4F80819181A281B3810097AB
:1026B000A105B10509F042C02630D0F41082118284
:1026C0001282138215821482178216821086118656
:1026D000128613861486158616861786108A128A25
:1026E000118A138AFA01E251FB4F80818E7F808329
:1026F00086E190E0289FF001299FF00D389FF00DB2
:102700001124E752FB4FE082F18202831383D582CA
:10271000C482B782A68282ED94E0A0E0B0E0808718
:102720009187A287B38789E299E0A0E0B0E084872F
:102730009587A687B7878EE1838B07C06F5F2F5F72
:102740003F4F2530310509F0A3CF262F30E086E139
:1027500090E0289FF001299FF00D389FF00D112483
:10276000E752FB4F82E0808B80E090E00E940C12E9
:102770008BB780628BBFDF91CF911F910F91FF903C
:10278000EF90DF90CF90BF90AF900895482F50E02A
:1027900026E130E0429FF001439FF00D529FF00D83
:1027A0001124E752FB4F2FEF3FEF328B218B91E14A
:1027B000908B682F80E090E00E940C1208955F9249
:1027C0006F927F928F929F92AF92BF92CF92DF9241
:1027D000EF92FF920F931F93CF93DF9320E001C0FE
:1027E0002F5F822E9924F401EE0FFF1FEE0FFF1FC3
:1027F000E651FE4F0190F081E02D309709F43AC385
:102800009091430280914402E817F90749F79091AB
:102810004E02892F8271823109F0C5C08FE192E0AA
:102820000E942010C0914102D091420220913902B1
:1028300030913A0240913B0250913C0260E070E0DE
:1028400006E110E0609FF001619FF00D709FF00DB8
:102850001124E752FB4F80819181A281B3818217BD
:102860009307A407B50729F4848195818C179D07E8
:1028700031F06F5F7F4F6530710521F7FBC2262F66
:1028800030E086E190E0289F4001299F900C389F1E
:10289000900C112489ED94E0880E991E8EE1D401EC
:1028A00053968C9353971C962D913D914D915C912D
:1028B0001F971C96ED90FD900D911C911F971C96F3
:1028C000AD90BD90CD90DC901F971C968D919D9101
:1028D0000D90BC91A02D252F332744275527B82FC5
:1028E000AA2799278827280F391F4A1F5B1F2F5FA8
:1028F0003F4F4F4F5F4F80E090E0AFEFB0E0E822F6
:10290000F9220A231B23EF2CF02E012F11272E0D65
:102910003F1D401F511F80E09FEFA0E0B0E0A822C4
:10292000B922CA22DB22DC2CCB2CBA2CAA242A0DF9
:102930003B1D4C1D5D1D122F0027FF24EE24852F0B
:102940009927AA27BB27E80EF91E0A1F1B1FDA01C9
:10295000C90180709070B070892F9A2FAB2FBB2760
:10296000E80EF91E0A1F1B1F207040705070542F74
:10297000432F322F2227E20EF31E041F151FD4010E
:102980001C96ED92FD920D931C931F9780E150963B
:102990008C9380E090E00E940C1281E090E0F401C2
:1029A000928B818B67C2923009F045C08FE192E033
:1029B0000E942010C0914102D09142022091390220
:1029C00030913A0240913B0250913C0260E070E04D
:1029D00006E110E0609FF001619FF00D709FF00D27
:1029E0001124E752FB4F80819181A281B38182172C
:1029F0009307A407B50729F4848195818C179D0757
:102A000031F06F5F7F4F6530710521F733C2262F9C
:102A100030E086E190E0289FF001299FF00D389F7B
:102A2000F00D1124E752FB4F82E1808B80E090E0B3
:102A30000E940C121FC260914102709142022091CB
:102A4000390230913A0240913B0250913C02C0E081
:102A5000D0E006E110E05C2EC09FF001C19FF00DB8
:102A6000D09FF00D1124E752FB4F80819181A2810C
:102A7000B38182179307A407B50729F48481958150
:102A80008617970729F02196C530D10521F7E9C1AE
:102A90008FE192E00E9420106C2E772486E190E076
:102AA000689EF001699EF00D789EF00D1124E752AA
:102AB000FB4F808980FDBAC0B6C02091530530918C
:102AC00054054091550550915605E0905305F090FE
:102AD00054050091550510915605A0905305B090EE
:102AE0005405C0905505D09056058091530590919E
:102AF0005405A0915505B0915605252F332744273D
:102B00005527B82FAA2799278827280F391F4A1F2A
:102B10005B1F2F5F3F4F4F4F5F4F80E090E0AFEF65
:102B2000B0E0E822F9220A231B23EF2CF02E012F1C
:102B300011272E0D3F1D401F511F80E09FEFA0E089
:102B4000B0E0A822B922CA22DB22DC2CCB2CBA2C82
:102B5000AA242A0D3B1D4C1D5D1D122F0027FF24AA
:102B6000EE24852F9927AA27BB27E80EF91E0A1FF6
:102B70001B1FDA01C90180709070B070892F9A2FE5
:102B8000AB2FBB27E80EF91E0A1F1B1F20704070D9
:102B90005070542F432F322F2227E20EF31E041FB2
:102BA000151FE0925305F0925405009355051093BC
:102BB00056058091570580FF08C080E18093570536
:102BC00065E080E090E00E940C12109247051092A0
:102BD00048051092490510924A0510924C05109232
:102BE0004B0510924E0510924D0510924F05109214
:102BF00050051092510510925205109253051092F3
:102C000054051092550510925605109257051092D2
:102C100059051092580510925A0580915C058E7FD7
:102C200080935C0527C1808982FFB0C086E190E077
:102C3000689EE001699ED00D789ED00D1124C75288
:102C4000DB4F2C853D854E855F85EC84FD840E85AC
:102C50001F85AC84BD84CE84DF848C859D85AE8544
:102C6000BF85252F332744275527B82FAA27992713
:102C70008827280F391F4A1F5B1F2F5F3F4F4F4F79
:102C80005F4F80E090E0AFEFB0E0E822F9220A2346
:102C90001B23EF2CF02E012F11272E0D3F1D401F5F
:102CA000511F80E09FEFA0E0B0E0A822B922CA2225
:102CB000DB22DC2CCB2CBA2CAA242A0D3B1D4C1D6C
:102CC0005D1D122F0027FF24EE24852F9927AA27A8
:102CD000BB27E80EF91E0A1F1B1FDA01C90180700D
:102CE0009070B070892F9A2FAB2FBB27E80EF91E7A
:102CF0000A1F1B1F207040705070542F432F322F1B
:102D00002227E20EF31E041F151FEC86FD860E8798
:102D10001F87888980FF14C0880C991C880C991C17
:102D2000ACEEB1E08A0E9B1ED401ED91FC91852D95
:102D3000099580E1888B652D80E090E00E940C125F
:102D400086E190E0689ED001699EB00D789EB00D3E
:102D50001124FD01E752FB4F10821182128213826F
:102D600015821482178216821086118612861386A7
:102D70001486158616861786108A128A118A138A77
:102D8000A251BB4F8C918E7F8C9374C0808983FF3E
:102D900017C0808984FF14C0818992890196928B23
:102DA000818B88E1808B880C991C880C991CECEE37
:102DB000F1E08E0E9F1ED401ED91FC918C2F4FC03F
:102DC00086E190E0689E9001699E300D789E300DFE
:102DD0001124F901E752FB4F808984FF0AC0F901F1
:102DE000E251FB4F808180FD04C08081816080833F
:102DF00041C086E190E0689EF001699EF00D789EEA
:102E0000F00D1124DF01A752BB4F50968C915097C3
:102E100084FF30C0E251FB4F808180FF2BC0519670
:102E20008D919C9152978F5F9F4F21F180E1509639
:102E30008C93509751968D919C91529701965296F2
:102E40009C938E935197880C991C880C991C8CEE3E
:102E500091E0880E991ED401ED91FC91852D099584
:102E600009C08FE192E00E94201080914E0285708F
:102E700009F023CEDF91CF911F910F91FF90EF903A
:102E8000DF90CF90BF90AF909F908F907F906F908A
:102E90005F900895AF92BF92CF92DF92EF92FF9230
:102EA0000F931F93CF93DF9300E010E096E1C92EBC
:102EB000D12C83E0A82EB4E1BB2E0C9D70010D9D9A
:102EC000F00C1C9DF00C1124E701C752DB4F8B89DD
:102ED0008823D1F588819981AA81BB810097A105BA
:102EE000B105C1F1AB8A8C898F5F8C8B81508630A4
:102EF00038F18BB78F7D8BBFB88A602F80E090E070
:102F00000E940C128BB780628BBF188219821A82C2
:102F10001B821D821C821F821E82188619861A86B9
:102F20001B861C861D861E861F86188A1A8A198A89
:102F30001B8AF701E251FB4F80818E7F80830AC09C
:102F4000802F0E94A71106C08B898F3F19F08B89B3
:102F500081508B8B0F5F1F4F0530110509F0ADCFEE
:102F6000DF91CF911F910F91FF90EF90DF90CF9065
:102F7000BF90AF9008958F929F92AF92BF92CF92E1
:102F8000DF92EF92FF920F931F935C01F1E4CF2E3B
:102F9000F2E0DF2EECEEEE2EEFEFFE2EEC0CFD1C41
:102FA0007093410260934202509343024093440263
:102FB00008969093450280934602C5014C96F7010E
:102FC0009283838381E181874EED842E4FEF942E8F
:102FD0008C0C9D1CB901A801C4010E94CD0F109258
:102FE000480210924702F70172816381685F7F4F48
:102FF000808190E08F709070880F991F880F991FC3
:10300000681B790B675F7F4F9B0140E050E0695080
:103010007040C60108970E94850F909347028093E5
:103020004802B401C5018A960E9451211F910F9157
:10303000FF90EF90DF90CF90BF90AF909F908F90D8
:103040000895AF92BF92CF92DF92EF92FF920F93CB
:103050001F933DE2A32E32E0B32EB4E1CB2ED12C50
:10306000CA0CDB1C40934102F6012183F582E48205
:10307000178306831382128220E034E530933002F6
:1030800020932F0221E02093360222EF3FEFA20E81
:10309000B31EAB01BC01C5010E94CD0F70912F0280
:1030A0006091300280912D0290E08F709070880FB7
:1030B000991F880F991F681B790B20E030E040E0D2
:1030C00050E0C6010E94850FF60192838383B5010B
:1030D00082E690E00E9451211F910F91FF90EF90A6
:1030E000DF90CF90BF90AF9008950F931F93809182
:1030F0002D0290912E028050914009F0C1C0809124
:103100002F0290913002089709F0BAC080913102E5
:10311000863009F0B5C080913202843009F0B0C029
:103120002091450230914602409147025091480259
:103130008091B8049091B904A091BA04B091BB04F5
:10314000281739074A075B0709F09AC080913302B4
:1031500090913402E1E080309E0709F08CC00E941B
:10316000300E40913B0250913C0260913D027091C3
:103170003E020DE212E00E501040C8010E942A0FDC
:1031800088E096E0F8019587848740913B02509152
:103190003C0260913D0270913E0220E030E0F90176
:1031A000EE0FFF1FE20FF31FEE0FFF1FEE0FFF1FCB
:1031B000E858FB4F86819781A085B18584179507D4
:1031C000A607B70731F02F5F3F4F2530310539F79C
:1031D00025C0ADE2B2E040E050E0822F90E09C01DB
:1031E000220F331F280F391F220F331F220F331FC7
:1031F000F901E40FF51FE858FB4F808152968C933C
:103200005297FA01EB56FA4F808118968C931897D3
:103210004F5F5F4F11964630510551F780E092E0C5
:10322000909334028093330280913B0290913C0250
:10323000A0913D02B0913E028093450290934602D8
:10324000A0934702B09348028091B8049091B904CA
:10325000A091BA04B091BB0480933B0290933C02CE
:10326000A0933D02B0933E026FE172E08CE390E0E8
:103270000E94512105C08050924011F40E94300EEE
:103280001F910F910895EF92FF920F931F938091DA
:103290002B0290912C0226E08830920719F40E94AC
:1032A00075189EC0089709F09BC020913D0230918F
:1032B0003E0240913F02509140028091B8049091AB
:1032C000B904A091BA04B091BB04281739074A0782
:1032D0005B0709F085C00E94300E80913602813074
:1032E00009F074C0809141028823C1F0883009F050
:1032F00077C0E0904502F09046020091470210919D
:1033000048026091390270913A0280913B0290919B
:103310003C0220E040E00E94211862C08091390206
:1033200090913A02A0913B02B0913C029070A07043
:10333000B070BF93AF939F938F938DED90E09F9369
:103340008F930E944F0C80913A0290E0A0E0B0E091
:10335000BF93AF939F938F9389ED90E09F938F934B
:103360000E944F0C80913B0290E0A0E0B0E0BF9340
:10337000AF939F938F9385ED90E09F938F930E94DF
:103380004F0C8091390290913A02A0913B02B0918A
:103390003C028B2F9927AA27BB27BF93AF939F93FC
:1033A0008F9381ED90E09F938F930E944F0C87EC59
:1033B00090E09F938F930E944F0C8DB79EB74A96D3
:1033C0000FB6F8949EBF0FBE8DBF0AC0863011F4B1
:1033D0000E94DF1380913602813111F40E94841122
:1033E0001F910F91FF90EF9008958091B70481FF96
:1033F0004BC00E944A1740E050E09A01220F331F51
:10340000240F351FD901AA0FBB1FAA0FBB1FA85835
:10341000BB4F1A968D919C911B97892B09F51C9295
:1034200011961C921197F901EE0FFF1FEE0FFF1F6F
:10343000E658FB4F108213961C921397F901EE0F7A
:10344000FF1FEE0FFF1FE458FB4F108215961C92D2
:10345000159716961D921D921D921C92199709C0E0
:103460001A968D919C911B9701971B969C938E9316
:103470001A974F5F5F4F4530510509F0BECF8091DD
:10348000B7048D7F8093B7048091B70480FD0DC091
:1034900008956FE172E088E592E00E944222FC010B
:1034A000E45EFD4F10820E944319B29BF2CF8091DF
:1034B000B7048E7F8093B7048BB780628BBF08956B
:1034C0008F929F92AF92BF92CF92DF92EF92FF9234
:1034D0000F931F93DF93CF93CDB7DEB7AA970FB6A5
:1034E000F894DEBF0FBECDBF4B015C018E01015FC2
:1034F0001F4F8091B8049091B904A091BA04B09183
:10350000BB0488259925AA25BB252091D404309198
:10351000D5044091D6045091D70482239323A42349
:10352000B5230097A105B10519F47501640108C020
:10353000C090BC04D090BD04E090BE04F090BF04E5
:1035400088E096E09E878D87B701A601CE0101969F
:103550000E942A0F8091B8049091B904A091BA04F6
:10356000B091BB04F80186879787A08BB18BC08E82
:10357000D18EE28EF38EA5E9B5E08D918087128A17
:10358000319625E0AB39B207C1F720E031E0F80110
:103590003183208388E090E09383828386E0848374
:1035A00084E0858337832683BE016F5F7F4F8AE285
:1035B00090E00E94512110E05AC0422FF901EE0F15
:1035C000FF1FE20FF31FEE0FFF1FEE0FFF1FE85864
:1035D000FB4F86819781A085B18588159905AA053D
:1035E000BB0531F02F5F3F4F2530310531F745E006
:1035F00020E030E0F901EE0FFF1FE20FF31FEE0FA6
:10360000FF1FEE0FFF1FE858FB4F86819781A085B3
:10361000B1858C159D05AE05BF0531F02F5F3F4F7D
:103620002530310539F73AC0453021F5822F90E039
:10363000FC01EE0FFF1FE80FF91FEE0FFF1FEE0F4B
:10364000FF1FE858FB4F86829782A086B18612C082
:1036500080E090E000000196F7E280319F07D1F70B
:103660000E94F5191F5F143111F480E004C020E0BE
:1036700030E0A3CF81E0AA960FB6F894DEBF0FBE6C
:10368000CDBFCF91DF911F910F91FF90EF90DF9011
:10369000CF90BF90AF909F908F9008954530C1F22A
:1036A000E9CFDF93CF9300D000D0CDB7DEB70E9433
:1036B000231CFE0131962EE130E0E199FECF3FBBA5
:1036C0002EBBE09A8DB381932F5F3F4F223231059D
:1036D000A1F789819A81AB81BC818F3F2FEF92073F
:1036E0002FEFA2072FEFB20721F480EC98EAA0E0B9
:1036F000B3E68093B8049093B904A093BA04B0934E
:10370000BB04FE01319622E230E0E199FECF3FBBDF
:103710002EBBE09A8DB381932F5F3F4F2632310548
:10372000A1F789819A81AB81BC818F3F2FEF9207EE
:103730002FEFA2072FEFB20721F48FEF9FEFAFEF2C
:10374000B0E08093D4049093D504A093D604B093B2
:10375000D704FE01319626E230E0E199FECF3FBB6F
:103760002EBBE09A8DB381932F5F3F4F2A323105F4
:10377000A1F789819A81AB81BC818F3F2FEF92079E
:103780002FEFA2072FEFB20721F480EC98EAA0E018
:10379000B3E08093BC049093BD04A093BE04B093A7
:1037A000BF041092950582E28093960589EF80937D
:1037B000970581E0809398051092990580939A056A
:1037C00084E091E09F938F930E944F0C0E94C1214F
:1037D0008BEF90E09F938F930E944F0C6FE172E00C
:1037E0008CE390E00E9451216FE172E08CE390E065
:1037F0000E9451218091BB0490E09F938F93809110
:10380000BA0490E09F938F938091B90490E09F93C6
:103810008F938091B80490E09F938F9380EE90E017
:103820009F938F930E944F0C8DB79EB70E960FB645
:10383000F8949EBF0FBE8DBF0F900F900F900F900A
:10384000CF91DF9108958EB58D608EBD1DBC1CBCDF
:1038500088E09DE39BBD8ABD89B7806189BF0895DB
:103860001F920F920FB60F9211242F933F934F93F5
:103870005F936F937F938F939F93AF93BF93EF93D8
:10388000FF9380915E0590915F05A0916005B091D6
:1038900061050196A11DB11D80935E0590935F05A2
:1038A000A0936005B0936105809114029091150278
:1038B000A0911602B09117020196A11DB11D80932F
:1038C000140290931502A0931602B0931702019769
:1038D000A109B109815B9440A040B04050F0109222
:1038E00014021092150210921602109217020E94F2
:1038F000511B8091B70482608093B7048091A60128
:103900009091A70101979093A7018093A601FF9141
:10391000EF91BF91AF919F918F917F916F915F9147
:103920004F913F912F910F900FBE0F901F901895C0
:10393000E0E0F0E009940895AC018091C00490911A
:10394000C104892BF1F020E030E0E199FECFF901CC
:10395000EE0FFF1FE054FB4F0190F081E02DE19945
:10396000FECFC901840F951F9FBB8EBBEDBB0FB669
:10397000F894E29AE19A0FBE2F5F3F4F2430310551
:1039800021F7089508958091C2049091C304209175
:10399000C0043091C1049F938F933F932F9382E093
:1039A00093E09F938F930E944F0C4091C2045091DB
:1039B000C3048DB79EB706960FB6F8949EBF0FBE90
:1039C0008DBF4130510561F485B32091C004309121
:1039D000C10402C0440F551F2A95E2F7842B14C07E
:1039E0008091C2049091C304892B91F445B3209136
:1039F000C0043091C10481E090E002C0880F991F9B
:103A00002A95E2F78095842385BB85B385BB08950D
:103A100082EE92E09F938F930E944F0C0F900F9035
:103A2000089583B323B390E0827090709595879545
:103A30009F938F9330E0217030703F932F9387E4F2
:103A400093E09F938F930E944F0C83B323B343B3B0
:103A500090E08071907064E0959587956A95E1F7A4
:103A60009F938F9330E02870307053E03595279501
:103A70005A95E1F73F932F9350E04470507055955D
:103A80004795559547955F934F938EE293E09F93AB
:103A90008F930E944F0C23B383B343B3221F22277B
:103AA000221F30E03F932F9390E08074907026E0C7
:103AB000959587952A95E1F79F938F9350E04072F3
:103AC000507095E0559547959A95E1F75F934F9320
:103AD00085E193E09F938F930E944F0C8DB79EB723
:103AE00046960FB6F8949EBF0FBE8DBF0895809185
:103AF000C2049091C3042091C0043091C1049F93EB
:103B00008F933F932F9388E793E09F938F930E9427
:103B10004F0C4091C2045091C3048DB79EB70696D6
:103B20000FB6F8949EBF0FBE8DBF4130510561F4B2
:103B300082B32091C0043091C10402C0440F551FCC
:103B40002A95E2F7842B14C08091C2049091C3049B
:103B5000892B91F442B32091C0043091C10481E0DB
:103B600090E002C0880F991F2A95E2F78095842380
:103B700082BB82B382BB089588E593E09F938F93C5
:103B80000E944F0C0F900F90089580B320B340B364
:103B900090E08071907034E0959587953A95E1F7C3
:103BA0009F938F9330E028703070B3E03595279560
:103BB000BA95E1F73F932F9350E0447050705595BC
:103BC0004795559547955F934F9384EA93E09F936C
:103BD0008F930E944F0C20B380B340B3221F222743
:103BE000221F30E03F932F9390E080749070F6E0B6
:103BF00095958795FA95E1F79F938F9350E04072E2
:103C00005070E5E055954795EA95E1F75F934F933E
:103C10008BE893E09F938F930E944F0C8DB79EB7D4
:103C200040960FB6F8949EBF0FBE8DBF08950F93B8
:103C30001F9389B329B349B369B390E0887090703A
:103C4000F3E095958795FA95E1F79F938F9330E090
:103C50002470307035952795359527953F932F9390
:103C600050E042705070559547955F934F9370E0C8
:103C7000617070707F936F9387EC93E09F938F9345
:103C80000E944F0C80916800909169009F938F93E0
:103C900084E090E09F938F930DEB13E01F930F93BD
:103CA0000E944F0C80916A0090916B009F938F93BC
:103CB00085E090E09F938F931F930F930E944F0C8A
:103CC00080916C0090916D009F938F9386E090E0BF
:103CD0009F938F931F930F930E944F0C8DB79EB7A6
:103CE0004C960FB6F8949EBF0FBE8DBF1F910F91DB
:103CF0000895EF92FF921F93CF93DF93C0E1D1E03D
:103D0000A8EEEA2EA3E0FA2EFE0121961491812F4F
:103D100090E09F938F93FF92EF920E944F0C0F9031
:103D20000F900F900F90112379F7DF91CF911F9192
:103D3000FF90EF9008958091B60490E09F938F9349
:103D400080911A0290E09F938F9380919B0590E061
:103D50009F938F938BEE93E09F938F930E944F0CD2
:103D60008DB79EB708960FB6F8949EBF0FBE8DBF55
:103D70000895E091C004F091C1048091C204909133
:103D8000C304A0E6B0E0EE0FFF1FEA0FFB1F918314
:103D900080838091C0049091C1042091C00430912F
:103DA000C104880F991FA80FB91F8D919C919F93F3
:103DB0008F933F932F9381E094E09F938F930E9482
:103DC0004F0C8DB79EB706960FB6F8949EBF0FBEE8
:103DD0008DBF08950E94752B089586E290E00E94A1
:103DE0009C1C40EC58EA60E073E086E290E00E94A0
:103DF000350D6093BC047093BD048093BE04909312
:103E0000BF048091BF0490E09F938F938091BE0484
:103E100090E09F938F938091BD0490E09F938F9348
:103E20008091BC0490E09F938F9382E294E09F93F3
:103E30008F930E944F0C8DB79EB70A960FB6F894D9
:103E40009EBF0FBE8DBF089582E290E00E949C1C31
:103E50004FEF5FEF6FEF70E082E290E00E94350D70
:103E60006093D4047093D5048093D6049093D704C0
:103E70008091D70490E09F938F938091D60490E037
:103E80009F938F938091D50490E09F938F9380911F
:103E9000D40490E09F938F938FE394E09F938F934C
:103EA0000E944F0C8DB79EB70A960FB6F8949EBF2E
:103EB0000FBE8DBF089582E390E00E949C1C4DE4EC
:103EC00055E266E07BE382E390E00E94350D60936B
:103ED0001B0270931C0280931D0290931E0280911E
:103EE0001E0290E09F938F9380911D0290E09F931C
:103EF0008F9380911C0290E09F938F9380911B027F
:103F000090E09F938F938AE594E09F938F930E9414
:103F10004F0C8DB79EB70A960FB6F8949EBF0FBE92
:103F20008DBF08958EE190E00E949C1C40EC58EA01
:103F300060E073E68EE190E00E94350D6093B80476
:103F40007093B9048093BA049093BB048091BB042E
:103F500090E09F938F938091BA0490E09F938F930A
:103F60008091B90490E09F938F938091B80490E082
:103F70009F938F9388E794E09F938F930E944F0CB9
:103F80008DB79EB70A960FB6F8949EBF0FBE8DBF31
:103F90000895CF92DF92EF92FF920F931F93DF93DA
:103FA000CF9300D0CDB7DEB79A83898360EA70E003
:103FB000CE0101960E94B2316C0110E00FC01F5F6C
:103FC000E12FF0E0EE0FFF1FEE0FFF1FEA50FF4F53
:103FD00080819181892B11F480E03AC0E12EFF2489
:103FE000F701EE0FFF1FEE0FFF1FEA50FF4FB60164
:103FF000808191810E943831892B09F700E010E01F
:104000006E010894C11CD11C62EA70E0C6010E94D6
:10401000B23140E050E060E070E00E94B12FF80162
:10402000EE0FFF1FE054FB4F718360830F5F1F4F44
:104030000A30110549F7EE0CFF1CEE0CFF1C88EF4F
:1040400090E0E80EF91ED701ED91FC91099581E011
:104050000F900F90CF91DF911F910F91FF90EF90F4
:10406000DF90CF900895CF93DF93EC01DB0134C054
:1040700086958695FD018193888183708295807FE6
:1040800011968C9311979981992321F4DF01119650
:1040900042E026C092959F70890F11968C931197DC
:1040A00089818F70880F880F12968C9312979A814E
:1040B000992319F4139641E013C09295969596951D
:1040C0009370890F12968C9312978A818F7313962F
:1040D0008C931397149623968881882349F640E0A1
:1040E0001C92EB0108C0E881F0E0EF73F070EF562E
:1040F000FB4FE491E993CA17DB07A9F7FD01842F71
:104100009DE302C0919381508823E1F7A40FB11D74
:104110001C92DF91CF910895FC01C4988AE38FB976
:10412000779BFECF07C01FB8779BFECF8FB18193DF
:104130006150704061157105B1F7C49A0895FC0192
:10414000C4988AE78FB9779BFECF81918FB9615070
:104150007040779BFECF61157105B9F7C49A089539
:10416000282F2F712B31F0F4982F90768091C50570
:104170009817C1F09093C505C4988FEB8FB9779BC2
:10418000FECF83E08FB9779BFECFC49AC4988FE9A6
:104190008FB9779BFECF9295969597709FB9779B35
:1041A000FECFC49A2064C4982FB9779BFECF6FB915
:1041B000779BFECFC49A0895C498962F9F71982B31
:1041C0009FB9779BFECF1FB8779BFECF67FF03C0D9
:1041D0001FB8779BFECF8FB1C49A0895682F90E0E7
:1041E0008F7190704B97F4F4962F90768091C5055F
:1041F0009817C1F09093C505C4988FEB8FB9779B42
:10420000FECF83E08FB9779BFECFC49AC4988FE925
:104210008FB9779BFECF9295969597709FB9779BB4
:10422000FECFC49A80E00E94DC2008950F931F9374
:10423000162F072F682F84ED0E94B020612F86ED86
:104240000E94B020602F87ED0E94B0208AEE0E946D
:10425000EE2080FDFBCF1F910F9108950F931F93C8
:10426000682F84ED0E94B02061E082ED0E94B020B2
:104270008AEE0E94EE2080FDFBCF60E082ED0E947E
:10428000B02089ED0E94EE20182F00E088ED0E94FA
:10429000EE20282F30E0202B312BC9011F910F91E8
:1042A0000895CF92DF92EF92FF920F931F93CF93D7
:1042B000DF938C016B01C0E0D0E080EAE82E8FE054
:1042C000F82E8FE10E94EE2083FF07C0C7010197FF
:1042D000F1F72196C233D105A1F760E082E00E9498
:1042E000B0206AE183E00E94B020602F86E00E9447
:1042F000B020C8018050964E692F87E00E94B02000
:10430000C4988AE78FB9779BFECF1FB8779BFECF03
:10431000C49AC4988AE78FB9779BFECFF601819142
:104320006F018FB901501040779BFECF0115110529
:10433000A9F7C49AC4988FE98FB9779BFECF80E81C
:104340008FB9779BFECFC49AC4988FEB8FB9779BB8
:10435000FECF80E88FB9779BFECFC49AC4988FE9CF
:104360008FB9779BFECF8CE08FB9779BFECFC49A35
:10437000DF91CF911F910F91FF90EF90DF90CF9041
:104380000895CF93DF938FEF8093C505BC9A87B3D1
:10439000896087BBC49AC79A87B3886B87BBBE986E
:1043A00080E58DB981E08EB980E090E0A0E0B0E0DA
:1043B00000000196A11DB11D80342DE0920723E07D
:1043C000A20720E0B207A1F7C4988FEF8FB9779BBF
:1043D000FECF8FEF8FB9779BFECFC49A80E090E03D
:1043E000A0E0B0E000000196A11DB11D8034EDE019
:1043F0009E07E3E0AE07E0E0BE07A1F7C0E0D0E033
:1044000001C021968DE10E94EE2080FD04C0FDEFE9
:10441000C83EDF07B1F71092C7051092C605C4ED7C
:10442000D4E0FE0164912197FE0184910E94B020A6
:104430002396F5E0C030DF07A1F760E071E080E18E
:104440000E94162160EC8BE10E94B020C4988FE995
:104450008FB9779BFECF84E08FB9779BFECFC49A4C
:104460006AE477E384E10E9416218FE10E94EE2046
:104470008093C40582E70E94EE208093C405DF91FB
:10448000CF910895EF92FF920F931F93CF93DF93F5
:10449000EC017B018CE10E94EE2086FD08C089E3DF
:1044A0000E94EE20882319F400E010E073C06091B0
:1044B000C6057091C70580E00E94B0208091C605B6
:1044C0009091C705692F81E00E94B02060E08AE3E7
:1044D0000E94DC2090E09093C7058093C605009170
:1044E000C6051091C70560E08AE30E94DC20382FE2
:1044F00020E0202B312B3093C7052093C60560E0C8
:104500008AE30E94DC20082F10E060E08AE30E942A
:10451000DC20382F20E0022B132B60E08AE30E947E
:10452000DC2060E08AE30E94DC20C017D10708F499
:104530008E01B801C7010E948C208091C605909120
:10454000C7058091C6059091C705019780509A4193
:1045500030F06FEF8CE00E94B02069E10EC06091F6
:10456000C6057091C70561508CE00E94B020809113
:10457000C6059091C7050197692F8DE00E94B02074
:10458000C4988EE98FB9779BFECF80E48FB9779B73
:10459000FECFC49AC801DF91CF911F910F91FF9078
:1045A000EF900895C4988FB9779BFECF6FB9779B32
:1045B000FECFC49A089590E02DE030E0A901849FD9
:1045C0009001859F300D949F300D1124E4EEF5E0AD
:1045D000DF01A20FB31F8C91897F81608C93389784
:1045E000E20FF31F13821282118210828C91877F57
:1045F0008C9388EC95E09583848382E991E092879F
:10460000818787E991E0948783878CE991E097839C
:10461000868308952F923F924F925F926F927F927E
:104620008F929F92AF92BF92CF92DF92EF92FF92C2
:104630000F931F93DF93CF93CDB7DEB72F970FB6AE
:10464000F894DEBF0FBECDBF382E482E55248DE026
:1046500090E0489E9001499E300D589E300D1124E7
:10466000F901EC51FA4F808180FD07C0F901E45255
:10467000FA4F8EE494E19383828386E190E0489E32
:10468000F001499EF00D589EF00D1124E752FB4FAA
:104690008089882379F48DE090E0489EF001499E5E
:1046A000F00D589EF00D1124E452FA4F8081918153
:1046B000938382838DE090E0489EF001499EF00D47
:1046C000589EF00D1124E452FA4F82819381918318
:1046D0008083EE24FF2442E0C42ED12CCE0EDF1EB8
:1046E0005E010894A11CB11C31E0632E712C2AE0FC
:1046F000222EF60100811181B8016F5F7F4F718317
:104700006083F801849195E5892E92E0992E8E0CB4
:104710009F1CF4018083853209F003C243E050E01E
:1047200086E391E00E940E31892B81F50C5F1F4FCB
:10473000F80184910F5F1F4FF80124912051829D51
:10474000C0011124280FE22FF0E0EE0FFF1FE05A06
:10475000FF4F4AE050E0B501808191810E94CA314B
:104760006FE070E0C5010E94A731082F10E0A8019A
:10477000B501C4010E94263101501040E00EF11E27
:10478000F60180819181059691838083F601608195
:10479000718143E050E08AE391E00E940E31892B61
:1047A00009F044C04AE050E0B50180919B0590E0DB
:1047B0000E94CA31B5018DE196E00E94A0316EE3FE
:1047C00071E08DE196E00E94953180911A028A3065
:1047D00030F460E471E08DE196E00E9495314AE0AA
:1047E00050E0B50180911A0290E00E94CA31B501F3
:1047F0008DE196E00E9495316AE070E08DE196E0EF
:104800000E94A731082F10E0A8016DE176E0C701F2
:104810008B5A9D4F0E94263101501040E00EF11E30
:10482000F60180819181039691838083F6016081F6
:10483000718143E050E082E491E00E940E31892BC7
:1048400009F048C04AE050E0B5018091880090919D
:1048500089000E94CA31B5018DE196E00E94A03125
:104860006EE371E08DE196E00E94953180918A00BF
:1048700090918B000A9730F460E471E08DE196E04E
:104880000E9495314AE050E0B50180918A009091F4
:104890008B000E94CA31B5018DE196E00E949531EE
:1048A0006AE070E08DE196E00E94A731082F10E0E9
:1048B000A8016DE176E0C7018B5A9D4F0E94263119
:1048C00001501040E00EF11EF601808191810396A7
:1048D00091838083F6016081718143E050E086E43A
:1048E00091E00E940E31892B09F048C04AE050E067
:1048F000B50180918C0090918D000E94CA31B50164
:104900008DE196E00E94A0316EE371E08DE196E0CA
:104910000E94953180918E0090918F000A9730F41B
:1049200060E471E08DE196E00E9495314AE050E04C
:10493000B50180918E0090918F000E94CA31B5011F
:104940008DE196E00E9495316AE070E08DE196E09D
:104950000E94A731082F10E0A8016DE176E0C701A1
:104960008B5A9D4F0E94263101501040E00EF11EDF
:10497000F60180819181039691838083F601008105
:10498000118144E050E0B8018AE491E00E940E31C8
:10499000892B09F052C00B5F1F4FF801849180539F
:1049A00001501040F8016491633481F0643428F4BC
:1049B000613441F0623421F507C0643481F0683518
:1049C000F9F417C02BB303C028B30AC025B3A30161
:1049D00002C0440F551F8A95E2F7CA0108C022B3EE
:1049E000F30102C0EE0FFF1F8A95E2F7CF012823E3
:1049F00002C020917200222319F069E774E102C01D
:104A000067E774E1C5010E9407316FE070E0C501FE
:104A10000E94A731082F10E0A801B501C7018B5AE9
:104A20009D4F0E94263101501040E00EF11EF6010C
:104A300080819181069691838083F60100811181A6
:104A400043E050E0B8018FE491E00E940E31892BE1
:104A500009F04CC00C5F1F4FF80184918053015046
:104A60001040F8016491623461F0633418F46134E9
:104A700001F505C0633439F06434D9F40DC029B3AD
:104A800003C026B30AC023B3A30102C0440F551FBD
:104A90008A95E2F7CA0108C020B3F30102C0EE0F05
:104AA000FF1F8A95E2F7CF01282319F06DE674E124
:104AB00002C063E674E1C5010E9407316FE070E057
:104AC000C5010E94A731082F10E0A801B501C70158
:104AD0008B5A9D4F0E94263101501040E00EF11E6E
:104AE000F60180819181059691838083F601608132
:104AF000718143E050E083E591E00E940E31892B03
:104B000081F486E190E0489EF001499EF00D589EA8
:104B1000F00D1124E752FB4F8DEF9FEF928B818BAD
:104B200009C00894E11CF11CFCE8EF16F1E0FF0657
:104B300008F4DFCD86E190E0489EF001499EF00D3B
:104B4000589EF00D1124E752FB4F88E1808B632DB6
:104B5000C7010E940C122F960FB6F894DEBF0FBE4D
:104B6000CDBFCF91DF911F910F91FF90EF90DF901C
:104B7000CF90BF90AF909F908F907F906F905F90FD
:104B80004F903F902F9008954F925F927F928F9217
:104B90009F92AF92BF92CF92DF92EF92FF920F93CC
:104BA0001F93CF93DF93782E80914D02E82EFF2440
:104BB00020EFE222FF24F594E794F594E79461E86E
:104BC00074E1C7018F5B9D4F0E947031892B81F08A
:104BD000272D30E08DE090E0289FF001299FF00D17
:104BE000389FF00D1124EC51FA4F8081886080834A
:104BF000A72CBB248DE090E0A89EA001A99E500D9B
:104C0000B89E500D1124DA01A452BA4F96E0C92E75
:104C1000D12CCA0EDB1E1696ED91FC911797808160
:104C2000882309F458C087010E5D1F4F8091300220
:104C3000282F30E02E5D3F4F90912F0280E0280F0B
:104C4000391F2E193F09B801615E7D4FEA01CC5131
:104C5000DA4F149688EC882E85E0982EA601FCE9A0
:104C6000CF2EF1E0DF2E34C0888180FD17C0FB011C
:104C70008081ED91FC91119791911196FC93EE93A7
:104C8000891719F011969C928E92ED91FC911197D3
:104C90008081882319F4888181608883FB01808169
:104CA000FA0140805180F20191912F01FA01518265
:104CB0004082891711F0D182C0826F5F7F4FFA0165
:104CC00080819181FC018081882329F00F5F1F4F33
:104CD0000217130748F28DE090E0A89E9001A99E6C
:104CE000300DB89E300D1124F901EC51FA4FE081DE
:104CF000E0FFD2C0E3FFD0C087010E5D1F4F80915F
:104D00003002482F50E04E5D5F4F90912F0280E0BF
:104D1000480F591F4E195F09B801615E7D4FC901E7
:104D200084529A4FDC011996E2E98E2EE1E09E2E24
:104D3000EC012B9687E9482E81E0582EA9C0FB0193
:104D4000D080ED91FC91119781911196FC93EE9397
:104D5000D81619F011969C928E92ED91FC911197B4
:104D60008081882309F071C0FB018181883409F4B6
:104D700046C0893498F48434A1F1853440F48234F7
:104D800031F1833450F5813409F05CC01CC08634A5
:104D900071F190911802873470F527C08C34E9F1D5
:104DA0008D3438F48A3489F1909119028B3488F566
:104DB0002AC08E34D1F18E34A0F18F34D1F18035F8
:104DC00009F040C03AC0809118028F5F03C0809103
:104DD00018028E5F8093180235C0809118028C5F94
:104DE000F9CF80911802885FF5CF905F05C0809160
:104DF0001802805EEFCF905C9093180223C08091E0
:104E000018028058E7CF9F5F05C0809119028E5F1E
:104E100017C09C5F9093190215C080911902885F9A
:104E20000FC080911902805F0BC080911902805ED3
:104E300007C080911902805C03C0809119028058DC
:104E40008093190211969C928E92E881F98181914A
:104E5000F983E883D81611F0598248826F5F7F4F3B
:104E6000E881F9818081882389F4F901EC51FA4FB6
:104E70008081877F80838091180285BB1092180201
:104E80008091190282BB1092190206C00F5F1F4F5A
:104E90000417150708F453CF8DE090E0A89EF001A9
:104EA000A99EF00DB89EF00D1124E452FA4F8281B4
:104EB0009381892B09F099C0F701B7968091300250
:104EC000282F30E02E5D3F4F90912F0280E0280F79
:104ED000391F2E193F09DF01A15EBD4F15C08D910D
:104EE0008D3089F4E15EFD4F108280914D02C82F14
:104EF000D0E0C07FD070D595C795D595C795CF5BCD
:104F0000DD4F00E063C03196E217F30740F3EDCFC9
:104F1000B701CE010E944B31892B09F456C08DE0B8
:104F200090E0A89EE001A99ED00DB89ED00D11245E
:104F3000CC51DA4F08810260088367E571E0C70150
:104F40000E944B316CE571E0C7010E944B31892B07
:104F500071F08DE090E0A89EF001A99EF00DB89E42
:104F6000F00D1124EC51FA4F80818260808361E65C
:104F700071E0C7010E944B31892B71F08DE090E008
:104F8000A89EF001A99EF00DB89EF00D1124EC51E1
:104F9000FA4F80818D7F80838DE090E0A89EF001A4
:104FA000A99EF00DB89EF00D1124E452FA4FCC0CDE
:104FB000DD1CCC0CDD1C88E891E0C80ED91ED601A2
:104FC0008D919C919383828310C00F5FC02EDD244E
:104FD000F601EE0FFF1FEE0FFF1FEA57FE4FE080B6
:104FE000F180E114F10409F093CF8DE090E0A89EE8
:104FF0009001A99E300DB89E300D1124D901A45204
:10500000BA4F1696ED91FC9117978081882331F461
:10501000F901EC51FA4FE081E3FF1BC086E190E01B
:10502000A89E8001A99E100DB89E100D1124075254
:105030001B4F80E1F801808B672D80E090E00E949B
:105040000C1281E090E0D80152969C938E93519778
:10505000B0C0E0FD31C086E190E0A89EE001A99ECD
:10506000D00DB89ED00D1124C752DB4F888983FF25
:1050700023C08EE494E113969C938E9312978091B3
:105080004D0290E0807F90709595879595958795D6
:105090004CE750E061ED73E18F5B9D4F0E94FE3065
:1050A00088E1888B672D8CE790E00E940C1282E0EB
:1050B00090E09A8B898B7DC08DE090E0A89EF001F6
:1050C000A99EF00DB89EF00D1124E452FA4F828192
:1050D0009381892B39F580919A0090919B000196DC
:1050E00090939B0080939A008051974221F41092F4
:1050F0009B0010929A008DE090E0A89EF001A99E7E
:10510000F00DB89EF00D1124DF01A452BA4F8FEFBD
:1051100094E013969C938E931297EC51FA4F8081F2
:105120008D7F808386E190E0A89EE001A99ED00D4E
:10513000B89ED00D1124C752DB4F82E090E09A8BCD
:10514000898B8DE090E0A89EF001A99EF00DB89E9D
:10515000F00D1124EC51FA4FE081E695E170E13059
:1051600071F480914D0290E0807F907095958795C5
:105170009595879542E550E06EE773E10FC0EE2309
:10518000C1F480914D0290E0807F90709595879555
:105190009595879542E550E06BE273E18F5B9D4FFB
:1051A0000E94FE3088E1888B672D82E590E00E94A6
:1051B0000C12DF91CF911F910F91FF90EF90DF9034
:1051C000CF90BF90AF909F908F907F905F904F90C7
:1051D0000895482F282F30E086E190E0289FF001C5
:1051E000299FF00D389FF00D1124E752FB4F808965
:1051F00080FD64C081899289019749F58DE090E036
:10520000289FF001299FF00D389FF00D1124DF0138
:10521000AC51BA4F8C91897F81608C93E452FA4FE4
:1052200013821282118210828C91877F8C9388EC7A
:1052300095E09583848382E991E09287818787E96D
:1052400091E0948783878CE991E09783868386E158
:1052500090E0289FF001299FF00D389FF00D112458
:10526000E752FB4F81899289039720F4842F0E9493
:10527000C425089581899289039748F0818992898C
:105280008E5F9F4F20F4842F0E940A23089586E1A9
:1052900090E0289FF001299FF00D389FF00D112418
:1052A000E752FB4F818992898E5F9F4F38F08EEFD6
:1052B0009FEF928B818B842F0E94C613089568EC18
:1052C00075E086E691E00E94332069EE78E280E5A1
:1052D00090E00E94B90D0895FF920F931F93CF9312
:1052E000DF93C0919C00D0919D008091B404909177
:1052F000B504C817D90709F469C060E070E026E179
:1053000030E0F62E629FF001639FF00D729FF00D6A
:105310001124E752FB4F868197818050974109F015
:1053200046C080915D0580FD51C080915D05816022
:1053300080935D0580919E0090919F009093B504AD
:105340008093B40440E050E015C0FA01E15EFD4FE7
:10535000D9018D9186ABB093B504A093B404A35941
:10536000B54031F4205330403093B5042093B40459
:105370004F5F5F4F2091B4043091B504C217D3073B
:1053800021F786E190E0689F8001699F100D789F6A
:10539000100D112407521B4F88E1F801808B6F2DEF
:1053A000CA010E940C1283E0F801838B0FC06F5F6B
:1053B0007F4F6530710509F0A4CF8091D80482FF3A
:1053C00005C08091D8048B7F8093D804DF91CF9162
:1053D0001F910F91FF900895FF920F931F93F82E46
:1053E000A82FB0E086E190E0A89FF001A99FF00D02
:1053F000B89FF00D1124E752FB4F808980FF06C053
:105400008091D8048B7F8093D804B3C0818992891E
:10541000892B21F081899289019759F586E190E0E5
:10542000A89F8001A99F100DB89F100D112407524D
:105430001B4F81E090E0F801928B818B46E150E0B8
:1054400066E874E185E592E00E94FE306F2D86E10A
:1054500090E00E940C128091D80484608093D8045C
:1054600080915D058E7F80935D058FEFF801838BC2
:1054700080C081899289029708F440C0808983FFA7
:105480003DC082E090E0928B818B20914D0230E014
:10549000207F30703595279535952795B9016E5D3C
:1054A0007F4F80913002482F50E04E5D5F4F9091CA
:1054B0002F0280E0480F591F421B530BFB01E15E96
:1054C000FD4F06C05D9BFECF81918CB96F5F7F4F12
:1054D00064177507BCF386E190E0A89FF001A99FCF
:1054E000F00DB89FF00D1124E752FB4F80E1808B47
:1054F0006F2D80E090E00E940C123BC086E190E0AE
:10550000A89FF001A99FF00DB89FF00D1124E7525C
:10551000FB4F818992890297B8F0808984FF14C07B
:1055200080915D0580FF10C08FEF838B8091B40464
:105530009091B50490939F0080939E0080915D05AB
:105540008E7F80935D0515C086E190E0A89FF001F5
:10555000A99FF00DB89FF00D1124E752FB4F8089F1
:10556000882339F480915D058E7F80935D050E94CC
:105570006C291F910F91FF9008956CEE79E287E1FD
:1055800090E00E94B90D0895AF92BF92CF92DF9242
:10559000EF92FF920F931F938BEE94E19F938F9363
:1055A0000E944F0CE0907102F09072020091730221
:1055B00010917402212F332744275527BE2DAA2787
:1055C00099278827280F391F4A1F5B1F205F314FFB
:1055D0004F4F5F4FD801C70180709070B070892F16
:1055E0009A2FAB2FBB27280F391F4A1F5B1F80E064
:1055F0009FEFA0E0B0E0E822F9220A231B23102F3E
:105600000F2DFE2CEE242E0D3F1D401F511F209309
:10561000710230937202409373025093740220938C
:105620005E0530935F054093600550936105A0903F
:105630005E05B0905F05C0906005D0906105E09078
:105640005E05F0905F050091600510916105609125
:105650005E0570915F0580916005909161052CE376
:1056600030E040E050E00E941F3270E07F936F9383
:10567000C801B7012CE330E040E050E00E941F3247
:10568000CA01B9012CE330E040E050E00E941F3233
:1056900070E07F936F93C601B50120E13EE040E0EA
:1056A00050E00E941F32CA01B90128E130E040E019
:1056B00050E00E941F3270E07F936F9381ED94E180
:1056C0009F938F930E944F0CADB7BEB71A960FB63B
:1056D000F894BEBF0FBEADBF1F910F91FF90EF902A
:1056E000DF90CF90BF90AF900895CF92DF92EF926E
:1056F000FF920F931F93CF93DF93C0901B02D09024
:105700001C02E0901D02F0901E02C701B6010E942B
:10571000601A813049F5C0E0D0E00DE914E1F801EC
:105720000F5F1F4FE491DE01A15EBD4F9A96EC938F
:1057300044E050E0B80181EA91E00E940E31FE01A0
:105740003196892B29F0EF0182E0EE32F80739F724
:10575000970186014BE750E06CEF78E0CF010E94A3
:10576000BB178EE195E102C081E095E19F938F9395
:105770000E944F0C0F900F90DF91CF911F910F91CE
:10578000FF90EF90DF90CF90089564EC7AE28CEF79
:1057900098E00E94F60D4DE455E266E07BE382E37B
:1057A00090E00E94350D60931B0270931C02809361
:1057B0001D0290931E0208958091300290E04C9754
:1057C00030912F0220E0820F931F9F938F938CE3E1
:1057D00095E19F938F930E944F0C0F900F900F9025
:1057E0000F9008956CED7BE289E591E00E94F60D43
:1057F00008958091A801805C87B98FEE86B90895DD
:105800001F920F920FB60F9211242F933F938F93F5
:10581000EF93FF9316B88091A80124B135B1E82F1A
:10582000F0E0EE0FFF1FE05AFF4F318320838F5FC0
:105830008093A8018091A801873018F084E08093BC
:10584000A8018091A801805C87B9FF91EF918F91A9
:105850003F912F910F900FBE0F901F901895DC0174
:1058600020E040E050E098E115C0FD01E40FF51F95
:10587000E08138E08E2F8227F82FF17080FD2927F4
:105880002695F13009F42068315011F0E695F2CFF9
:105890004F5F5F4F4617570741F7822F0895DC018E
:1058A000CB0181159105A105B10529F081509040EA
:1058B000A040B040D9F70895FF920F931F93CF9364
:1058C000DF93F82EFB01DA01E9018081482F50E0D7
:1058D000918180E0482B592B80E1F81671F4CA01C0
:1058E0008E7F33E0880F991F3A95E1F726814CE0CF
:1058F00050E0421B5109480F591F57FF06C081E075
:105900008C93509541955F4F01C01C9288E2F81628
:1059100091F48481682F70E0CB018076907080369E
:10592000910549F066FF02C04E7F05C065FF02C0C9
:105930004C7F01C0487FCA0124E0969587952A953F
:10594000E1F78883842F8F70F801808380E0DF91F6
:10595000CF911F910F91FF9008950F931F93DF93A5
:10596000CF93CDB7DEB728970FB6F894DEBF0FBE42
:10597000CDBF082F162FDE011196EFEDF1E088E084
:1059800001900D928150E1F7242F30E081E792E001
:10599000BC01269FC001279F900D369F900D1124BA
:1059A00068EE73E00E940C32CB012AE0129FB00136
:1059B0001124680F791F002379F4FE0131969E01AE
:1059C000275F3F4F8081481719F46F5F7F4F04C0F6
:1059D0003196E217F307B1F7CB0128960FB6F8948A
:1059E000DEBF0FBECDBFCF91DF911F910F91089504
:1059F000882319F0709561957F4F442319F03095F5
:105A000021953F4F6217730714F48FEF089580E0DC
:105A1000261737070CF481E00895CF93DF93EC014C
:105A20000E94FE2E0E94F52E882311F481E009C009
:105A3000BE0188EB0E94922F80E49CE90197F1F768
:105A400080E0DF91CF9108951F93CF93DF93182FBC
:105A5000EB010E94FE2E0E94F52E882311F482E0B5
:105A600009C0BE0184E40E94922F113011F00E94FF
:105A7000F82E80E0DF91CF911F9108951F93CF936F
:105A8000DF93182FEB010E94FE2E0E94F52E882333
:105A900011F482E011C0BE0188E40E94922F1130FF
:105AA00011F00E94F82E80E49CE90197F1F7113083
:105AB00011F00E94FB2E80E0DF91CF911F9108959D
:105AC0000F931F93CF93DF93EC018B010E94FE2E67
:105AD0000E94F52E882311F481E011C0BE018EEBE7
