:100000000C948E090C94AB090C94AB090C94CE0D96
:100010000C94AB090C94AB090C94AB090C94EA1B3F
:100020000C94AB090C94AB090C94AB090C94AB0980
:100030000C94AB090C948A0B0C94AB090C94AB098F
:100040000C94792C0C94AB090C94AB090C94AB096F
:100050000C94AB092D004100504F5254433A25698E
:100060002569256925692569256925692569002589
:100070003469002532693A2532693A2532690045EA
:1000800052524F520D0A0D0A0052656164790D0AF1
:100090000D0A000D0A002531692E2531692E253102
:1000A000692E253169002A4156522D4E45542D495D
:1000B0004F20312E352A00436F6D70696C6965726F
:1000C00074206D6974204743432056657273696FCD
:1000D0006E20342E332E300D0A00436F6D70696C24
:1000E0006965727420616D20466562203139203265
:1000F00030303920756D2032333A31383A33350D8E
:100100000A000A0D53797374656D20526561647934
:100110000A0D003A20504F4E47210D0A002E256946
:10012000002E2569002E2569002569004D7920499A
:10013000503A202531692E2531692E2531692E2529
:1001400031690D0A0D0A005245414459210D0A003A
:100150000A0D4E494320696E69743A0048454C5077
:1001600020202020202D207072696E742048656C3C
:1001700070746578740D0A3F2020202020202020F4
:100180002D207072696E742048656C707465787487
:100190000D0A5245534554202020202D20726573AE
:1001A00065742074686520415652202D20436F6E7F
:1001B00074726F6C6C65720D0A54435020202020BD
:1001C00020202D206C69737420746865207463701E
:1001D000207461626C650D0A495020202020202087
:1001E000202D206C6973742F6368616E67652069C8
:1001F000700D0A4E45542020202020202D206C69AF
:1002000073742F6368616E6765206E65746D6173CA
:100210006B0D0A524F555445522020202D206C69F9
:1002200073742F6368616E676520726F7574657291
:100230002069700D0A54494D4520202020202D2092
:100240006765742074696D650D0A504F52544120E2
:100250002020202D206C69737420504F5254410D82
:100260000A504F525443202020202D206C69737473
:1002700020504F5254430D0A504F5254435345544B
:10028000202D2073657420504F52544320302D3759
:1002900020302F310D0A4E5450202020202D206C6C
:1002A0006973742F6368616E6765204E54500D0A40
:1002B0004E5450522020202D204E5450205265661E
:1002C000726573680D0A4D4143202020202D206C5B
:1002D000697374204D41432D616464726573730DBD
:1002E0000A535620202020202D207365742076612B
:1002F000726961626C650D0A004552524F5220507E
:100300004152414D4554455220205B50696E2E5359
:1003100074617475735D0D0A00736574706F727427
:1003200044202531692E2531690D0A0043353A20D4
:1003300025690D0A43363A2025690D0A43373A20CC
:1003400025690D0A0043323A2025690D0A43333AE4
:100350002025690D0A43343A2025690D0A004330EF
:100360003A2025690D0A43313A2025690D0A0041DA
:1003700025693A2025690D0A0041303A2025690D8A
:100380000A41313A2025690D0A41323A2025690D8A
:100390000A41333A2025690D0A002563000A0D54ED
:1003A000494D453A202532693A2532693A25326964
:1003B0000D0A00496E68616C742064657220566194
:1003C000726961626C655B2532695D203D20253272
:1003D000690D0A00526F757465722049503A2025E4
:1003E00031692E2531692E2531692E2531690D0A95
:1003F000004E45544D41534B3A202531692E25314D
:10040000692E2531692E2531690D0A004E54505F41
:100410005365727665723A202531692E2531692E31
:100420002531692E2531690D0A004D792049503A50
:10043000202531692E2531692E2531692E25316916
:100440000D0A004142434445464748494A4B4C4DFA
:100450004E4F505152535455565758595A61626332
:100460006465666768696A6B6C6D6E6F70717273D4
:100470007475767778797A30313233343536373867
:10048000392B2F3D000400051A06FF071F0800093D
:10049000000AFF0B19C100C00DC232CAEECB05C461
:1004A00012C612C70CE400E522E2F9E301E000E124
:1004B000013C68746D6C3E3C686561643E3C6D65F2
:1004C000746120687474702D65717569763D22724F
:1004D0006566726573682220636F6E74656E743D25
:1004E0002233302220746578742F68746D6C3B2041
:1004F000636861727365743D69736F2D383835397F
:100500002D31223E0D0A3C7469746C653E41565291
:10051000204E455420494F3C2F7469746C653E0D44
:100520000A3C7374796C6520747970653D2274653A
:1005300078742F637373223E0D0A2E6665747420DF
:100540007B666F6E742D7765696768743A20626F99
:100550006C643B206D617267696E2D746F703A3107
:100560003570783B7D0D0A7464207B2063656C6C6C
:1005700070616464696E673A203270783B207D0D4B
:100580000A626F6479207B20666F6E742D66616DE0
:10059000696C793A20617269616C3B2020666F6EEC
:1005A000742D73697A653A20312E3020656D3B20B9
:1005B000636F6C6F723A20233030303030303B2024
:1005C0006261636B67726F756E642D636F6C6F72BF
:1005D0003A20726762283235352C203235352C208E
:1005E000323034297D0D0A6831207B746578742D92
:1005F000616C69676E3A2063656E7465723B206654
:100600006F6E742D7765696768743A20626F6C64E9
:100610003B20636F6C6F723A2077686974653B208A
:10062000666F6E742D73697A653A20312E322065BB
:100630006D7D0D0A3C2F7374796C653E0D0A3C2F5D
:10064000686561643E3C626F64793E3C63656E74CC
:1006500065723E0D0A3C7461626C65207374796C3E
:10066000653D2277696474683A2036303070783B93
:1006700020746578742D616C69676E3A206C6566CC
:10068000743B206261636B67726F756E642D636F7C
:100690006C6F723A20726762283135332C20313505
:1006A000332C20323535293B222063656C6C706118
:1006B0006464696E673D2235223E0D0A3C74723EC9
:1006C0003C74643E3C68313E4156522D4E45542D9B
:1006D000494F3C2F68313E0D0A3C7461626C6520C5
:1006E0007374796C653D2277696474683A2031309F
:1006F00030253B20666F6E742D7765696768743AA4
:1007000020626F6C643B223E0D0A3C74723E3C7466
:10071000643E5365727665727A6569743A20255431
:1007200049403C2F74643E3C7464207374796C655A
:100730003D22746578742D616C69676E3A20726928
:100740006768743B223E50616765636F756E7465C0
:10075000723A202556414032393C2F74643E3C2F7A
:1007600074723E3C2F7461626C653E0D0A3C2F74BE
:10077000643E3C2F74723E3C2F7461626C653E0D8A
:100780000A3C64697620636C6173733D226665740C
:1007900074223E53746174757320504F5254413A21
:1007A0003C2F6469763E0D0A3C7461626C6520736F
:1007B00074796C653D2277696474683A203630300C
:1007C00070783B20746578742D616C69676E3A208F
:1007D0006C6566743B206261636B67726F756E64F3
:1007E0002D636F6C6F723A20726762283235352C38
:1007F000203235352C20313533293B2220626F726F
:100800006465723D2230223E0D0A3C74723E3C7497
:10081000643E6469672E2045696E67616E673C2F90
:1008200074643E3C7464207374796C653D2277690E
:100830006474683A333570783B223E6175662F7A6E
:10084000753C2F74643E3C746420616C69676E3D36
:100850002263656E746572223E616E616C6F672EF5
:100860002045696E67616E673C2F74643E3C74641A
:100870003E576572742028302D31303233293C2F99
:1008800074643E3C2F74723E0D0A3C74723E3C749C
:10089000643E41305F46656E737465725F313C2F14
:1008A00074643E3C7464207374796C653D226261AB
:1008B000636B67726F756E642D636F6C6F723A2035
:1008C000726762282550494E4130293B223E3C2F19
:1008D00074643E3C746420616C69676E3D2263659C
:1008E0006E746572223E41442D41343C2F74643E47
:1008F0003C74643E2556414030343C2F74643E3C89
:100900002F74723E0D0A3C74723E3C74643E413159
:100910005F46656E737465725F323C2F74643E3C53
:100920007464207374796C653D226261636B6772D5
:100930006F756E642D636F6C6F723A2072676228F8
:100940002550494E4131293B223E3C2F74643E3CA8
:10095000746420616C69676E3D2263656E746572B4
:10096000223E41442D41353C2F74643E3C74643E2C
:100970002556414030353C2F74643E3C2F74723E06
:100980000D0A3C74723E3C74643E41325F3C2F74ED
:10099000643E3C7464207374796C653D22626163CB
:1009A0006B67726F756E642D636F6C6F723A207235
:1009B0006762282550494E4132293B223E3C2F7424
:1009C000643E3C746420616C69676E3D2263656EB1
:1009D000746572223E41442D41363C2F74643E3C86
:1009E00074643E2556414030363C2F74643E3C2FA3
:1009F00074723E0D0A3C74723E3C74643E41335F37
:100A00003C2F74643E3C7464207374796C653D22A1
:100A10006261636B67726F756E642D636F6C6F726A
:100A20003A20726762282550494E4133293B223EC5
:100A30003C2F74643E3C746420616C69676E3D2297
:100A400063656E746572223E41442D41373C2F74BC
:100A5000643E3C74643E282D3E20312D57697265FA
:100A6000293C2F74643E3C2F74723E0D0A3C2F7457
:100A700061626C653E0D0A3C64697620636C61734B
:100A8000733D2266657474223E536368616C7465BD
:100A90006E3A3C2F6469763E0D0A3C7461626C6567
:100AA000207374796C653D2277696474683A2036E6
:100AB000303070783B20746578742D616C69676E96
:100AC0003A206C6566743B206261636B67726F7578
:100AD0006E642D636F6C6F723A20726762283235D4
:100AE000352C203230342C203531293B2220626FC6
:100AF000726465723D2230223E0D0A3C74723E3CA7
:100B000074643E3C666F726D206E616D653D226659
:100B10006F726D3122206D6574686F643D22706F55
:100B200073742220616374696F6E3D2220223E0D32
:100B30000A3C7461626C65207374796C653D227740
:100B4000696474683A20313030253B2074657874CC
:100B50002D616C69676E3A206C6566743B22206279
:100B60006F726465723D2230223E0D0A3C74723E03
:100B70003C74643E3C696E70757420747970653D98
:100B800022636865636B626F7822206E616D653DDC
:100B9000224F5554222076616C75653D22412225F5
:100BA000504F525443303E2043305F52656C616970
:100BB000735F313C2F74643E3C74643E3C2F74641C
:100BC0003E3C74643E3C2F74643E3C2F74723E0D78
:100BD0000A3C74723E3C74643E3C696E70757420CD
:100BE000747970653D22636865636B626F7822205B
:100BF0006E616D653D224F5554222076616C75659E
:100C00003D22422225504F525443313E2043315F12
:100C100052656C6169735F323C2F74643E3C74644E
:100C20003E3C2F74643E3C74643E3C2F74643E3CF6
:100C30002F74723E0D0A3C74723E3C74643E3C69F3
:100C40006E70757420747970653D22636865636B9E
:100C5000626F7822206E616D653D224F55542220CF
:100C600076616C75653D22432225504F52544332C4
:100C70003E2043325F52656C6169735F333C2F7471
:100C8000643E3C74643E3C2F74643E3C74643E3C61
:100C90002F74643E3C2F74723E0D0A3C74723E3CCD
:100CA00074643E3C696E70757420747970653D2281
:100CB000636865636B626F7822206E616D653D22AB
:100CC0004F5554222076616C75653D224422255093
:100CD0004F525443333E2043335F52656C61697316
:100CE0005F343C2F74643E3C74643E3C2F74643E1D
:100CF0003C74643E3C2F74643E3C2F74723E0D0A7B
:100D00003C74723E3C74643E3C696E707574207431
:100D10007970653D22636865636B626F7822206E2F
:100D2000616D653D224F5554222076616C75653D9D
:100D300022452225504F525443343E2043345F52C3
:100D4000656C6169735F353C2F74643E3C74643E2E
:100D50003C2F74643E3C74643E3C2F74643E3C2FD4
:100D600074723E0D0A3C74723E3C74643E3C696E83
:100D700070757420747970653D22636865636B6279
:100D80006F7822206E616D653D224F55542220768A
:100D9000616C75653D22462225504F525443353EC5
:100DA0002043355F52656C6169735F363C2F746414
:100DB0003E3C74643E3C2F74643E3C74643E3C2F65
:100DC00074643E3C2F74723E0D0A3C74723E3C7457
:100DD000643E3C696E70757420747970653D226361
:100DE0006865636B626F7822206E616D653D224F8E
:100DF0005554222076616C75653D22472225504F5F
:100E0000525443363E2043365F52656C6169735FCE
:100E1000373C2F74643E3C74643E3C2F74643E3C0B
:100E200074643E3C2F74643E3C2F74723E0D0A3C49
:100E300074723E3C74643E3C696E707574207479C3
:100E400070653D22636865636B626F7822206E6116
:100E50006D653D224F5554222076616C75653D22AB
:100E6000482225504F525443373E2043375F526546
:100E70006C6169735F383C2F74643E3C74643E3C23
:100E80002F74643E3C74643E3C2F74643E3C2F746B
:100E9000723E0D0A3C2F7461626C653E0D0A3C681F
:100EA000723E3C7020616C69676E3D2263656E74B2
:100EB0006572223E3C696E70757420747970653D70
:100EC000227375626D697422206E616D653D2253D7
:100ED0005542222076616C75653D2253656E6465CE
:100EE0006E223E3C2F703E3C2F666F726D3E0D0AA7
:100EF0003C2F74643E3C2F74723E3C2F7461626CD4
:100F0000653E0D0A3C62723E3C64697620636C610A
:100F100073733D2266657474223E4C6F6B616C6521
:100F200020576574746572696E666F726D6174695D
:100F30006F6E656E3A203C2F6469763E3C61206896
:100F40007265663D687474703A2F2F7777772E77C5
:100F5000657474657232342E64652F6E632F646518
:100F60002F686F6D652F7765747465722F77656C68
:100F7000747765747465722F6F72746577657474B5
:100F800065722E68746D6C3F6369747949443D34B1
:100F900039583732343126747970653D39383E2DF1
:100FA0003E207777772E77657474657232342E64BD
:100FB000653C2F613E0D0A3C62723E3C68723E0DFC
:100FC0000A3C6469763E504F525442202D3E2045E3
:100FD0004E4332384A36303C62723E504F5254448F
:100FE000202D3E204C43446973706C61793C2F6422
:100FF00069763E0D0A3C62723E0D0A3C6469763E9B
:1010000057656273657276657220766F6E20556CD7
:10101000726963682052616469672056312E302EF0
:1010200039393C2F6469763E0D0A3C6469763E434B
:101030006F6D70696C6965727420616D20466562C0
:10104000203139203230303920756D2032333A3139
:10105000383A3336206D6974204743432056657211
:1010600073696F6E20342E332E303C2F6469763EC8
:101070000D0A3C6469763E56657273696F6E203165
:101080002E3520526F42756520766F6D2031382ED7
:1010900030322E323030392066FC72204156522DCB
:1010A0004E45542D494F3C2F6469763E0D0A3C2F26
:1010B0007370616E3E3C2F626F64793E3C2F6874A2
:1010C0006D6C3E0D0A25454E440025564140303496
:1010D0000D0A2556414030350D0A2556414030361F
:1010E0000D0A25454E4400485454502F312E3020CF
:1010F00032303020446F63756D656E7420666F6C9E
:101100006C6F77730D0A5365727665723A2041569B
:10111000525F5745425F5377697463680D0A436FA6
:101120006E74656E742D547970653A2074657874A8
:101130002F68746D6C0D0A0D0A00485454502F31FD
:101140002E302032303020446F63756D656E742010
:10115000666F6C6C6F77730D0A5365727665723AC1
:10116000204156525F5745425F5377697463680D5B
:101170000A436F6E74656E742D547970653A2069F8
:101180006D6167652F6A70670D0A0D0A0048545437
:10119000502F312E302034303120556E61757468F7
:1011A0006F72697A65640D0A5365727665723A20CA
:1011B0004156525F5745425F5377697463680D0A21
:1011C0005757572D41757468656E7469636174650E
:1011D0003A204261736963207265616C6D3D224EF5
:1011E00065656450617373776F7264220D0A436F93
:1011F0006E74656E742D547970653A2074657874D8
:101200002F68746D6C0D0A0D0A0034303120556E54
:10121000617574686F72697A656425454E44003063
:101220002C203135332C2030003135332C20302C1C
:101230002030000000636865636B656400504F53A5
:10124000540053746172742054656C6E657420533D
:1012500065727665723A0D0A00D9000AFA0000003C
:101260000000010400000000000000000000000079
:10127000000000000000000000000000000000006E
:1012800000C7D6AC720800000025454E440A0D4E3A
:1012900054502054494D453A202532693A25326947
:1012A0003A2532690D0A002A2A204E545020444122
:1012B00054412047455421202A2A0D0A004B6569D4
:1012C0006E204E54502053657276657220676566B5
:1012D000756E64656E21210D0A002A2A204E545035
:1012E000205265717565737420676573656E6465FA
:1012F0007421202A2A0D0A002A2A204C4344204423
:10130000415441204745542042797465733A202561
:1013100069202A2A0D0A00257820000011241FBE0A
:10132000CFE5D8E0DEBFCDBF11E0A0E6B0E0E4EF4E
:10133000F5E602C005900D92A43DB107D9F716E07D
:10134000A4EDB1E001C01D92A631B107E1F70E9402
:10135000AD090C94F8320C9400002F923F924F92FA
:101360005F926F927F928F929F92AF92BF92CF9235
:10137000DF92EF92FF920F931F93CF93DF931ABAEE
:101380008FEF84BB8BB38F608BBB8BB380678BBBC2
:1013900060E875E280E090E00E945A0B0E94722C97
:1013A00082E091E09F938F930E94090C8AED90E078
:1013B0009F938F930E94090C87EB90E09F938F93EC
:1013C0000E94090C80E090E0A0E0B0E02DB73EB7AD
:1013D0002A5F3F4F0FB6F8943EBF0FBE2DBF0000EF
:1013E0000196A11DB11D803432E493073FE0A307AD
:1013F00030E0B307A1F70E940B1B0E943C280E941B
:101400009A290E946B2C0E941E2B0E94502B86EA68
:1014100090E09F938F931F921F920E94592B8BB73E
:1014200080628BBF8091A80490E09F938F938091FE
:10143000A70490E09F938F938091A60490E09F93E0
:101440008F938091A50490E09F938F9386E990E01D
:101450009F938F931F9282E08F930E94592B7894D1
:101460000E94A22A0E94522A8DB79EB740960FB6BC
:10147000F8949EBF0FBE8DBF03E7202E00E0302EF4
:101480001FE6412E10E0512EB8E56B2EB0E07B2E0A
:10149000A3E0DA2EF4E58F2EF0E09F2EEFE0CE2EC3
:1014A00076E5A72E70E0B72EC4E7D4E09FEE96B99C
:1014B0000E94AF198091C50480FF20C023E930E06D
:1014C0003F932F930E94090C8FE495E00E94E31E46
:1014D0000F900F90882329F089E890E09F938F93D5
:1014E00004C02FE730E03F932F930E94090C0F9028
:1014F0000F908091C5048E7F8093C50460914B0549
:1015000070914C0580914D0590914E0520E13EE093
:1015100040E050E00E949832CA01B90128E130E071
:1015200040E050E00E949832E62E6093880560917A
:101530004B0570914C0580914D0590914E052CE323
:1015400030E040E050E00E949832CA01B9012CE33B
:1015500030E040E050E00E949832062F609307028E
:1015600060914B0570914C0580914D0590914E0511
:101570002CE330E040E050E00E9498326093A304F6
:1015800070E07F936F9310E01F930F93FF24FF92FF
:10159000EF923F922F921F9231E03F930E94592B7E
:1015A00080919A0090919B009F938F935F924F92AE
:1015B0008CE08F9391E09F930E94592B63B383B388
:1015C00023B343B3E3B3A3B303B3E3B2661F662706
:1015D000661F70E07F936F9390E08074907066E078
:1015E000959587956A95E1F79F938F9330E02072E8
:1015F000307055E0359527955A95E1F73F932F9335
:1016000050E04071507034E0559547953A95E1F7B8
:101610005F934F93F0E0E870F07023E0F595E79565
:101620002A95E1F7FF93EF93B0E0A470B070B59501
:10163000A795B595A795BF93AF9310E00270107072
:10164000159507951F930F93FF2421E0E222FF24B5
:10165000FF92EF927F926F921F92DF920E94592B1E
:101660008DB79EB784960FB6F8949EBF0FBE8DBF00
:101670008091720090917300019719F4BF92AF921C
:1016800002C09F928F92CF92DF920E94592B0F90AF
:101690000F900F900F9080918F0190919001892B66
:1016A00031F4D0939001C0938F010E94522A0E947E
:1016B0004928FCCE9B01AC0188E98AB984E0220F5D
:1016C000331F441F551F8A95D1F760E074E284EF01
:1016D00090E00E949832215029B98091C5048B7FF7
:1016E0008093C5040895982F8091C50482FD03C09E
:1016F0005D9BFECF9CB90895FC0108C03196809196
:10170000C50482FD03C05D9BFECF9CB990819923E7
:10171000A9F708951F920F920FB60F9211242F93DD
:101720003F938F939F93EF93FF938091C50482FD26
:1017300049C02CB15D9BFECF2CB980FF04C08091C5
:10174000C504826028C0283069F48091D40190914A
:10175000D501892B09F452C08091D4019091D50113
:1017600001972BC02D30D1F4E091D401F091D50137
:10177000E25BFA4F80818C3589F0E091D401F091E1
:10178000D501E15BFA4F10821092D5011092D4017D
:101790008091C50481608093C50430C08091D401DC
:1017A0009091D501C19750F58091D4019091D501C8
:1017B000FC01E15BFA4F208301969093D501809361
:1017C000D4011CC020919C0030919D0080919E000E
:1017D00090919F0001972817390781F08CB1F9018A
:1017E0008193F0939D00E0939C00E058F54031F424
:1017F0002053304030939D0020939C00FF91EF9147
:101800009F918F913F912F910F900FBE0F901F903E
:1018100018956F927F928F929F92AF92BF92CF92C4
:10182000DF92EF92FF920F931F93DF93CF93CDB789
:10183000DEB764970FB6F894DEBF0FBECDBF8E0142
:101840000B5D1F4FD801ED90FD908D01BB243E0133
:101850000894611C711C5BE0852E912C8C0E9D1EE2
:1018600040E3A42E02C068018601F70194919923F8
:1018700009F4A0C00894E11CF11C953209F092C053
:10188000F7010894E11CF11C2491822F90E0C0978D
:101890000A9710F0822F0BC02B871C86C4010E9470
:1018A0005931B82EF7010894E11CF11C8491893656
:1018B00071F08A3628F4823661F08336A1F620C0B2
:1018C000833749F0883769F18F3669F628C04AE0D6
:1018D00029C042E027C0D801ED91FC9108C03196A3
:1018E0008091C50482FD03C05D9BFECF9CB99081B1
:1018F0009923A9F732E0C32ED12CC00ED11EB4CF4C
:1019000022E0C22ED12CC00ED11EF8019081809110
:10191000C50482FDA9CF5D9BFECF9CB9A5CF48E051
:1019200001C040E192E0C92ED12CC00ED11E50E082
:10193000B301D8018D919C910E94433220E030E0A8
:10194000A9014F5F5F4FF301E20FF31F80818823EE
:1019500011F09A01F5CF8B2D90E0281739079CF4F0
:10196000B21AF401C4018B0D911D01C0A192E817B8
:10197000F907E1F71082B301C4010E940E32B401ED
:10198000C3010E941932F30108C031968091C50449
:1019900082FD03C05D9BFECF9CB990819923A9F77E
:1019A000BB2462CF8091C50482FD5DCF5D9BFECFDD
:1019B0009CB959CF64960FB6F894DEBF0FBECDBF69
:1019C000CF91DF911F910F91FF90EF90DF90CF901B
:1019D000BF90AF909F908F907F906F9008950F93DE
:1019E0001F93DF93CF9300D000D0CDB7DEB7DC01DB
:1019F000142F052F20E030E0AE014F5F5F4FE199DB
:101A0000FECFC9018A0F9B1F9FBB8EBBE09A8DB38F
:101A1000FA01E20FF31F80832F5F3F4F243031051F
:101A200071F729813A814B815C812F3F8FEF380715
:101A30008FEF48078FEF580731F4212F302FC9015E
:101A4000DB019C01AD01B901CA010F900F900F900D
:101A50000F90CF91DF911F910F91089540E050E0DA
:101A60009A01220F331F240F351FD901AA0FBB1F64
:101A7000AA0FBB1FAB59BB4F1A968D919C911B9718
:101A8000892B09F51C9211961C921197F901EE0F02
:101A9000FF1FEE0FFF1FE959FB4F108213961C9298
:101AA0001397F901EE0FFF1FEE0FFF1FE759FB4FD2
:101AB000108215961C92159716961D921D921D92D6
:101AC0001C92199709C01A968D919C911B970197AA
:101AD0001B969C938E931A974F5F5F4F453051052D
:101AE00009F0BECF0895AC0120E001C02F5FA22F06
:101AF000B0E0FD01EE0FFF1FEE0FFF1FEA52FE4F99
:101B000080819181892B91F7253050F45183408356
:101B1000AA0FBB1FAA0FBB1FA852BE4F6D937C9389
:101B2000089520E001C02F5FA22FB0E0FD01EE0F6D
:101B3000FF1FEE0FFF1FEA52FE4F0190F081E02DD4
:101B4000309719F0E817F90771F7253040F4AA0F1C
:101B5000BB1FAA0FBB1FAA52BE4F6D937C93089563
:101B6000AC0120E001C02F5FA22FB0E0FD01EE0F1D
:101B7000FF1FEE0FFF1FE651FE4F80819181892BE1
:101B800091F7253050F451834083AA0FBB1FAA0F51
:101B9000BB1FA451BE4F6D937C9308951F920F926B
:101BA0000FB60F9211248F938091A40481608093CB
:101BB000A4041092000210920102109202021092EC
:101BC00003028BB78F7D8BBF8F910F900FBE0F904D
:101BD0001F9018950F931F93CF93DF9300911802D6
:101BE0001091190260E070E086E008301807C1F437
:101BF000FB01EE0FFF1FE60FF71FEE0FFF1FEE0FAB
:101C0000FF1FEB59FB4F268137814085518580911D
:101C1000280290912902A0912A02B0912B021AC0A9
:101C20000830110509F5FB01EE0FFF1FE60FF71F46
:101C3000EE0FFF1FEE0FFF1FEB59FB4F2681378181
:101C4000408551858091260290912702A09128021B
:101C5000B0912902281739074A075B0729F484E65F
:101C600090E09387828788C06F5F7F4F65307105F2
:101C700009F0BACF20E030E0A901440F551F420F10
:101C8000531FEA01CC0FDD1FCC0FDD1FCB59DB4FFB
:101C9000BE016A5F7F4F8E819F81A885B9850097BD
:101CA000A105B10509F062C0E6E008301E0749F55C
:101CB000809112028883809113028983809114029B
:101CC000FA01EE0FFF1FEE0FFF1FE959FB4F808354
:101CD000809115028B8380911602FA01EE0FFF1F8F
:101CE000EE0FFF1FE759FB4F8083809117028D8312
:101CF0008091280290912902A0912A02B0912B0292
:101D00002BC008301105C1F58091120288838091A3
:101D10001302898380911402FA01EE0FFF1FEE0F68
:101D2000FF1FE959FB4F8083809115028B838091BF
:101D30001602FA01EE0FFF1FEE0FFF1FE759FB4FD0
:101D40008083809117028D838091260290912702D3
:101D5000A0912802B0912902FB0180839183A28384
:101D6000B38384E690E09B878A8706C02F5F3F4F4E
:101D70002530310509F080CFDF91CF911F910F9170
:101D800008951F93AB01BC0120E030E0122FF90150
:101D9000EE0FFF1FE20FF31FEE0FFF1FEE0FFF1FEF
:101DA000EB59FB4F86819781A085B18584179507F4
:101DB000A607B70731F02F5F3F4F2530310531F7C8
:101DC00015E0812F1F910895FF920F931F93182FF5
:101DD000092F20E030E0F22EF901EE0FFF1FE20F95
:101DE000F31FEE0FFF1FEE0FFF1FEB59FB4F868116
:101DF0009781A085B18584179507A607B70731F0AD
:101E00002F5F3F4F2530310531F726C0212F302F6E
:101E1000C901DC0140E050E08F2D90E09C01220FD1
:101E2000331F280F391F220F331F220F331FF901D1
:101E3000E40FF51FEB59FB4F80818C93FA01EE57AD
:101E4000FA4F808116968C9316974F5F5F4F1196CD
:101E50004630510561F70FC0A2E8B5E0812F902F01
:101E60009C01F9019FEF90838D918683319685E0E7
:101E7000A838B807C1F71F910F91FF900895EF920E
:101E8000FF920F931F93CF93DF937C018B01EC01A3
:101E900011C0888199812296F82FE0E0DF01A90F17
:101EA000B11DCD01A0E0B0E0280F391F4A1F5B1F14
:101EB000625070406230710560F7F801EE7FEE0D00
:101EC000FF1D00FF08C0908180E0A0E0B0E0280F77
:101ED000391F4A1F5B1FCA01AA27BB2740705070D9
:101EE000820F931FA41FB51F9D0144275527A07083
:101EF000B070280F391F4A1F5B1F20953095C9010C
:101F0000DF91CF911F910F91FF90EF900895AF92C5
:101F1000BF92CF92DF92EF92FF920F931F937C01BB
:101F20005A016B010E94E40E88E090E0F70195876A
:101F300084878701025F1F4F80E490E0F801978358
:101F4000868380E880878091FE019091FF01019651
:101F50009093FF018093FE019483858385E4F701CC
:101F60008687F8011182A08AB18AC28AD38A8091B9
:101F7000A5049091A604A091A704B091A804848719
:101F80009587A687B7871386128620E030E040E069
:101F900050E064E170E0C8010E943F0FF8019287B1
:101FA00083871F910F91FF90EF90DF90CF90BF90AC
:101FB000AF9008956F927F928F929F92AF92BF924F
:101FC000CF92DF92EF92FF920F931F93CF93DF9305
:101FD0008C01EC01A296BC01625F7F4FDB011C9675
:101FE000CD90DD90ED90FC901F9740E050E0E6E151
:101FF000AE2EB12C4A9DF0014B9DF00D5A9DF00D77
:102000001124EA53FB4F80819181A281B3818C1509
:102010009D05AE05BF0509F0A1C0248135818881E9
:1020200099812817390709F099C088859985AA856B
:10203000BB8580879187A287B3878C819D81AE8184
:10204000BF8184879587A687B7878D85808B838995
:102050008F3F11F083E0838BFB01F280E3802CEE55
:102060003FEFE20EF31E8C8590E0807F9070959597
:10207000879595958795E81AF90A00E010E086E1C2
:1020800090E0489FF001499FF00D589FF00D1124FA
:10209000EA53FB4FA484B584C684D7842485358550
:1020A0004685578564847584868497848485958560
:1020B000A685B785B82FAA2799278827AD2CBB24DA
:1020C000CC24DD248A0D9B1DAC1DBD1D20703070FD
:1020D0005070232F342F452F5527820F931FA41F95
:1020E000B51F20E03FEF40E050E0622273228422DF
:1020F0009522982C872C762C6624860D971DA81D7A
:10210000B91D8E0D9F1DA01FB11F182F0027FF2482
:10211000EE242B2F332744275527E20EF31E041FEE
:10212000151F9C01AD01207030705070232F342F8B
:10213000452F5527E20EF31E041F151F8070A07057
:10214000B070BA2FA92F982F8827E80EF91E0A1F02
:102150001B1FE486F586068717874FC04F5F5F4FCA
:102160004530510509F046CF20E030E066E170E0EF
:10217000269FA001279F500D369F500D1124FA0174
:10218000EA53FB4F80819181A281B3810097A10521
:10219000B10569F5C082D182E282F382D8019296BC
:1021A0008D919C919397958384838A819B8197835A
:1021B000868388859985AA85BB8580879187A28734
:1021C000B3878C819D81AE81BF8184879587A687E7
:1021D000B7878D85808B128A118A83E0838B148A5E
:1021E000FA01E552FB4F80818E7F808306C02F5F0E
:1021F0003F4F2530310509F0BBCFDF91CF911F91C3
:102200000F91FF90EF90DF90CF90BF90AF909F9095
:102210008F907F906F900895EF92FF920F931F938E
:10222000CF93DF937B018C0120E030E0C6E1D0E06A
:10223000622F2C9FF0012D9FF00D3C9FF00D11247B
:10224000EA53FB4F80819181A281B3818E159F0556
:10225000A007B10729F4848195818417950731F08F
:102260002F5F3F4F2530310519F765E0862FDF914D
:10227000CF911F910F91FF90EF90089520E001C042
:102280002F5FA22FB0E0FD01EE0FFF1FEE0FFF1F2B
:10229000E651FE4F0190F081E02D309789F090914A
:1022A000300280913102E817F90751F7AA0FBB1FDE
:1022B000AA0FBB1FA451BE4FED91FC9180E0099580
:1022C0000895CF93DF93582F40E0282F30E086E128
:1022D00090E0289FE001299FD00D389FD00D112458
:1022E000C453DB4F01C04F5FA42FB0E0FD01EE0FE0
:1022F000FF1FEE0FFF1FEA52FE4F0190F081E02D0D
:10230000309769F02881398188819981892F9927AF
:10231000322F2227820F931FE817F90721F7AA0F00
:10232000BB1FAA0FBB1FA852BE4FED91FC91852F7A
:102330000995DF91CF910895863038F5282F30E048
:1023400086E190E0289FD001299FB00D389FB00D05
:102350001124FD01EA53FB4F108211821282138275
:1023600015821482178216821086118612861386B1
:102370001486158616861786108A128A118A138A81
:10238000A552BB4F8C918E7F8C9308954F925F9294
:102390006F927F928F929F92AF92BF92CF92DF9275
:1023A000EF92FF920F931F93CF93DF93EC018AE19B
:1023B000482E82E0582E70E086E190E0689FF001A0
:1023C000699FF00D789FF00D1124EA53FB4F868131
:1023D000978190932F0280932E0284819581909310
:1023E000310280933002109241021092400281E04B
:1023F00094EF90933D0280933C0280E580933A02F3
:10240000E484F584068517852485358546855785BA
:10241000A484B584C684D78484859585A685B7852C
:10242000982E882477246624E12EFF240027112784
:102430006E0C7F1C801E911E207030705070232FF8
:10244000342F452F5527620E731E841E951E80E083
:102450009FEFA0E0B0E0A822B922CA22DB22DC2C48
:10246000CB2CBA2CAA246A0C7B1C8C1C9D1C80894A
:1024700080933B02808981FF16C00894611C711C07
:10248000811C911C82E08093420284E0809343028D
:1024900081E08093440284EF8093450280E680933C
:1024A0003A02C4E0D0E0562D442733272227892D55
:1024B0009927AA27BB27280F391F4A1F5B1FD40162
:1024C000C30180709070B070892F9A2FAB2FBB27FB
:1024D000280F391F4A1F5B1F80E09FEFA0E0B0E08C
:1024E000682279228A229B22B82DA72D962D882733
:1024F000280F391F4A1F5B1F209336023093370283
:10250000409338025093390286E190E0689F800141
:10251000699F100D789F100D11240A531B4FF8016D
:1025200080859185A285B385809332029093330292
:10253000A0933402B0933502CE018896D201129650
:102540009C93129713968C93139786E019968C930D
:1025500040815181628173818CE092E00E94870FFB
:1025600010923F0210923E0270911C0260911D0277
:10257000685F7F4F80911A0290E08F709070880F93
:10258000991F880F991F681B790B625070409B013F
:1025900040E050E06E5F7F4F86E292E00E943F0F86
:1025A00090933E0280933F026CE072E0CE01C696AB
:1025B0000E946B20F801108ADF91CF911F910F913B
:1025C000FF90EF90DF90CF90BF90AF909F908F9053
:1025D0007F906F905F904F900895AF92BF92CF928F
:1025E000DF92EF92FF920F931F93CF93DF937B01C4
:1025F0008C016A0159018BB78F7D8BBF20E030E0E1
:10260000C6E1D0E0622F2C9FA0012D9F500D3C9F72
:10261000500D1124FA01EA53FB4F80819181A28170
:10262000B3810097A105B10509F042C02630D0F46E
:1026300010821182128213821582148217821682EE
:1026400010861186128613861486158616861786BE
:10265000108A128A118A138AFA01E552FB4F80818F
:102660008E7F808386E190E0289FF001299FF00D06
:10267000389FF00D1124EA53FB4FE082F182028370
:102680001383D582C482B782A68282ED94E0A0E053
:10269000B0E080879187A287B38789E299E0A0E0C4
:1026A000B0E084879587A687B7878EE1838B07C0C4
:1026B0006F5F2F5F3F4F2530310509F0A3CF262FE5
:1026C00030E086E190E0289FF001299FF00D389FCF
:1026D000F00D1124EA53FB4F82E0808B80E090E004
:1026E0000E94C6118BB780628BBFDF91CF911F9183
:1026F0000F91FF90EF90DF90CF90BF90AF90089533
:10270000482F50E026E130E0429FF001439FF00D5A
:10271000529FF00D1124EA53FB4F2FEF3FEF328B06
:10272000218B91E1908B682F80E090E00E94C61190
:1027300008955F926F927F928F929F92AF92BF9215
:10274000CF92DF92EF92FF920F931F93CF93DF937D
:1027500020E001C02F5F822E9924F401EE0FFF1FAD
:10276000EE0FFF1FEA52FE4F0190F081E02D3097EF
:1027700009F43AC39091300280913102E817F907C9
:1027800049F790913B02892F8271823109F0C5C0CF
:102790008CE092E00E94DA0FC0912E02D0912F02BD
:1027A000209126023091270240912802509129025F
:1027B00060E070E006E110E0609FF001619FF00DC5
:1027C000709FF00D1124EA53FB4F80819181A2810B
:1027D000B38182179307A407B50729F484819581F3
:1027E0008C179D0731F06F5F7F4F6530710521F7C2
:1027F000FBC2262F30E086E190E0289F4001299F10
:10280000900C389F900C112486EC94E0880E991E51
:102810008EE1D40153968C9353971C962D913D9144
:102820004D915C911F971C96ED90FD900D911C9120
:102830001F971C96AD90BD90CD90DC901F971C9675
:102840008D919D910D90BC91A02D252F332744276C
:102850005527B82FAA2799278827280F391F4A1FDD
:102860005B1F2F5F3F4F4F4F5F4F80E090E0AFEF18
:10287000B0E0E822F9220A231B23EF2CF02E012FCF
:1028800011272E0D3F1D401F511F80E09FEFA0E03C
:10289000B0E0A822B922CA22DB22DC2CCB2CBA2C35
:1028A000AA242A0D3B1D4C1D5D1D122F0027FF245D
:1028B000EE24852F9927AA27BB27E80EF91E0A1FA9
:1028C0001B1FDA01C90180709070B070892F9A2F98
:1028D000AB2FBB27E80EF91E0A1F1B1F207040708C
:1028E0005070542F432F322F2227E20EF31E041F65
:1028F000151FD4011C96ED92FD920D931C931F970A
:1029000080E150968C9380E090E00E94C61181E0B7
:1029100090E0F401928B818B67C2923009F045C040
:102920008CE092E00E94DA0FC0912E02D0912F022B
:1029300020912602309127024091280250912902CD
:1029400060E070E006E110E0609FF001619FF00D33
:10295000709FF00D1124EA53FB4F80819181A28179
:10296000B38182179307A407B50729F48481958161
:102970008C179D0731F06F5F7F4F6530710521F730
:1029800033C2262F30E086E190E0289FF001299F96
:10299000F00D389FF00D1124EA53FB4F82E1808B3C
:1029A00080E090E00E94C6111FC260912E027091DB
:1029B0002F02209126023091270240912802509147
:1029C0002902C0E0D0E006E110E05C2EC09FF001DB
:1029D000C19FF00DD09FF00D1124EA53FB4F808171
:1029E0009181A281B38182179307A407B50729F4C7
:1029F000848195818617970729F02196C530D105E6
:102A000021F7E9C18CE092E00E94DA0F6C2E772466
:102A100086E190E0689EF001699EF00D789EF00DD1
:102A20001124EA53FB4F808980FDBAC0B6C02091C3
:102A30004005309141054091420550914305E09099
:102A40004005F09041050091420510914305A0908A
:102A50004005B0904105C0904205D090430580915B
:102A6000400590914105A0914205B0914305252F65
:102A7000332744275527B82FAA2799278827280FB7
:102A8000391F4A1F5B1F2F5F3F4F4F4F5F4F80E043
:102A900090E0AFEFB0E0E822F9220A231B23EF2CED
:102AA000F02E012F11272E0D3F1D401F511F80E0DA
:102AB0009FEFA0E0B0E0A822B922CA22DB22DC2CE2
:102AC000CB2CBA2CAA242A0D3B1D4C1D5D1D122FA8
:102AD0000027FF24EE24852F9927AA27BB27E80E7D
:102AE000F91E0A1F1B1FDA01C90180709070B070B7
:102AF000892F9A2FAB2FBB27E80EF91E0A1F1B1F29
:102B0000207040705070542F432F322F2227E20E36
:102B1000F31E041F151FE0924005F092410500933B
:102B20004205109343058091440580FF08C080E171
:102B30008093440565E080E090E00E94C611109209
:102B40003405109235051092360510923705109213
:102B500039051092380510923B0510923A051092F3
:102B60003C0510923D0510923E0510923F051092D3
:102B700040051092410510924205109243051092B3
:102B80004405109246051092450510924705809124
:102B900049058E7F8093490527C1808982FFB0C097
:102BA00086E190E0689EE001699ED00D789ED00D90
:102BB0001124CA53DB4F2C853D854E855F85EC84FF
:102BC000FD840E851F85AC84BD84CE84DF848C8516
:102BD0009D85AE85BF85252F332744275527B82FE0
:102BE000AA2799278827280F391F4A1F5B1F2F5FA5
:102BF0003F4F4F4F5F4F80E090E0AFEFB0E0E822F3
:102C0000F9220A231B23EF2CF02E012F11272E0D62
:102C10003F1D401F511F80E09FEFA0E0B0E0A822C1
:102C2000B922CA22DB22DC2CCB2CBA2CAA242A0DF6
:102C30003B1D4C1D5D1D122F0027FF24EE24852F08
:102C40009927AA27BB27E80EF91E0A1F1B1FDA01C6
:102C5000C90180709070B070892F9A2FAB2FBB275D
:102C6000E80EF91E0A1F1B1F207040705070542F71
:102C7000432F322F2227E20EF31E041F151FEC866E
:102C8000FD860E871F87888980FF14C0880C991CD9
:102C9000880C991CA8EDB1E08A0E9B1ED401ED9121
:102CA000FC91852D099580E1888B652D80E090E071
:102CB0000E94C61186E190E0689ED001699EB00D29
:102CC000789EB00D1124FD01EA53FB4F1082118252
:102CD0001282138215821482178216821086118640
:102CE000128613861486158616861786108A128A0F
:102CF000118A138AA552BB4F8C918E7F8C9374C01E
:102D0000808983FF17C0808984FF14C081899289DC
:102D10000196928B818B88E1808B880C991C880CA2
:102D2000991CE8EDF1E08E0E9F1ED401ED91FC910F
:102D30008C2F4FC086E190E0689E9001699E300D17
:102D4000789E300D1124F901EA53FB4F808984FFEE
:102D50000AC0F901E552FB4F808180FD04C08081EB
:102D60008160808341C086E190E0689EF001699EA9
:102D7000F00D789EF00D1124DF01AA53BB4F509641
:102D80008C91509784FF30C0E552FB4F808180FFCB
:102D90002BC051968D919C9152978F5F9F4F21F13F
:102DA00080E150968C93509751968D919C915297BB
:102DB000019652969C938E935197880C991C880C7F
:102DC000991C88ED91E0880E991ED401ED91FC913B
:102DD000852D099509C08CE092E00E94DA0F809160
:102DE0003B02857009F023CEDF91CF911F910F91A7
:102DF000FF90EF90DF90CF90BF90AF909F908F901B
:102E00007F906F905F900895AF92BF92CF92DF92C4
:102E1000EF92FF920F931F93CF93DF9300E010E0A8
:102E200096E1C92ED12C83E0A82EB4E1BB2E0C9DD7
:102E300070010D9DF00C1C9DF00C1124E701CA538C
:102E4000DB4F8B898823D1F588819981AA81BB8149
:102E50000097A105B105C1F1AB8A8C898F5F8C8B7E
:102E60008150863038F18BB78F7D8BBFB88A602F49
:102E700080E090E00E94C6118BB780628BBF188201
:102E800019821A821B821D821C821F821E82188652
:102E900019861A861B861C861D861E861F86188A22
:102EA0001A8A198A1B8AF701E552FB4F80818E7FAF
:102EB00080830AC0802F0E94611106C08B898F3FDA
:102EC00019F08B8981508B8B0F5F1F4F05301105D7
:102ED00009F0ADCFDF91CF911F910F91FF90EF904F
:102EE000DF90CF90BF90AF9008958F929F92AF9256
:102EF000BF92CF92DF92EF92FF920F931F935C01EC
:102F0000FEE2CF2EF2E0DF2EECEEEE2EEFEFFE2E05
:102F1000EC0CFD1C70932E0260932F025093300234
:102F20004093310208969093320280933302C50198
:102F30004C96F7019283838381E181874EED842E45
:102F40004FEF942E8C0C9D1CB901A801C4010E9466
:102F5000870F1092350210923402F701728163815B
:102F6000685F7F4F808190E08F709070880F991F0D
:102F7000880F991F681B790B675F7F4F9B0140E0AB
:102F800050E069507040C60108970E943F0F90932F
:102F9000340280933502B401C5018A960E946B20E9
:102FA0001F910F91FF90EF90DF90CF90BF90AF9067
:102FB0009F908F900895AF92BF92CF92DF92EF9241
:102FC000FF920F931F933AE1A32E32E0B32EB4E1A8
:102FD000CB2ED12CCA0CDB1C40932E02F601218390
:102FE000F582E482178306831382128220E034E59F
:102FF00030931D0220931C0221E02093230222EF34
:103000003FEFA20EB31EAB01BC01C5010E94870FAA
:1030100070911C0260911D0280911A0290E08F70E5
:103020009070880F991F880F991F681B790B20E0FB
:1030300030E040E050E0C6010E943F0FF60192836D
:103040008383B50182E690E00E946B201F910F916F
:10305000FF90EF90DF90CF90BF90AF9008950F93C7
:103060001F9380911A0290911B028050914009F0A9
:10307000C1C080911C0290911D02089709F0BAC04E
:1030800080911E02863009F0B5C080911F02843005
:1030900009F0B0C0209132023091330240913402E5
:1030A000509135028091A5049091A604A091A704A7
:1030B000B091A804281739074A075B0709F09AC09E
:1030C0008091200290912102E1E080309E0709F07A
:1030D0008CC00E94EA0D4091280250912902609113
:1030E0002A0270912B020AE112E00E501040C80132
:1030F0000E94E40E88E096E0F8019587848740916D
:1031000028025091290260912A0270912B0220E03E
:1031100030E0F901EE0FFF1FE20FF31FEE0FFF1F6C
:10312000EE0FFF1FEB59FB4F86819781A085B1857C
:1031300084179507A607B70731F02F5F3F4F25305B
:10314000310539F725C0AAE1B2E040E050E0822F16
:1031500090E09C01220F331F280F391F220F331FCD
:10316000220F331FF901E40FF51FEB59FB4F80814C
:1031700052968C935297FA01EE57FA4F8081189627
:103180008C9318974F5F5F4F11964630510551F75A
:1031900080E092E0909321028093200280912802A7
:1031A00090912902A0912A02B0912B0280933202C1
:1031B00090933302A0933402B09335028091A5041A
:1031C0009091A604A091A704B091A804809328022E
:1031D00090932902A0932A02B0932B026CE072E034
:1031E0008CE390E00E946B2005C08050924011F467
:1031F0000E94EA0D1F910F910895EF92FF920F9395
:103200001F93809118029091190226E0883092074E
:1032100019F40E942F189EC0089709F09BC02091B6
:103220002A0230912B0240912C0250912D02809164
:10323000A5049091A604A091A704B091A804281712
:1032400039074A075B0709F085C00E94EA0D8091A3
:103250002302813009F074C080912E028823C1F0CE
:10326000883009F077C0E0903202F090330200918C
:1032700034021091350260912602709127028091EC
:1032800028029091290220E040E00E94DB1762C0F2
:103290008091260290912702A0912802B0912902E4
:1032A0009070A070B070BF93AF939F938F9389E29B
:1032B00091E09F938F930E94090C8091270290E0E8
:1032C000A0E0B0E0BF93AF939F938F9385E291E02E
:1032D0009F938F930E94090C8091280290E0A0E0B8
:1032E000B0E0BF93AF939F938F9381E291E09F9360
:1032F0008F930E94090C8091260290912702A09141
:103300002802B09129028B2F9927AA27BB27BF93A8
:10331000AF939F938F938DE191E09F938F930E9442
:10332000090C83E191E09F938F930E94090C8DB764
:103330009EB74A960FB6F8949EBF0FBE8DBF0AC0C7
:10334000863011F40E94991380912302813111F487
:103350000E943E111F910F91FF90EF900895809170
:10336000A40481FF4BC00E94041740E050E09A0182
:10337000220F331F240F351FD901AA0FBB1FAA0F1D
:10338000BB1FAB59BB4F1A968D919C911B97892BF4
:1033900009F51C9211961C921197F901EE0FFF1F6F
:1033A000EE0FFF1FE959FB4F108213961C921397E3
:1033B000F901EE0FFF1FEE0FFF1FE759FB4F1082C1
:1033C00015961C92159716961D921D921D921C9291
:1033D000199709C01A968D919C911B9701971B967E
:1033E0009C938E931A974F5F5F4F4530510509F0BC
:1033F000BECF8091A4048D7F8093A4048091A40407
:1034000080FD0DC008956CE072E088E592E00E94B6
:103410005C21FC01E75FFD4F10820E94FD18B29B0A
:10342000F2CF8091A4048E7F8093A4048BB7806236
:103430008BBF08958F929F92AF92BF92CF92DF92EF
:10344000EF92FF920F931F93DF93CF93CDB7DEB729
:10345000AA970FB6F894DEBF0FBECDBF4B015C013B
:103460008E01015F1F4F8091A5049091A604A09149
:10347000A704B091A80488259925AA25BB252091E9
:10348000C1043091C2044091C3045091C40482230A
:103490009323A423B5230097A105B10519F4750161
:1034A000640108C0C090A904D090AA04E090AB04C5
:1034B000F090AC0488E096E09E878D87B701A60166
:1034C000CE0101960E94E40E8091A5049091A6047D
:1034D000A091A704B091A804F80186879787A08BD4
:1034E000B18BC08ED18EE28EF38EA2E8B5E08D91C5
:1034F0008087128A319625E0A838B207C1F720E00C
:1035000031E0F8013183208388E090E09383828367
:1035100086E0848384E0858337832683BE016F5FE2
:103520007F4F8AE290E00E946B2010E05AC0422F49
:10353000F901EE0FFF1FE20FF31FEE0FFF1FEE0F5B
:10354000FF1FEB59FB4F86819781A085B1858815B8
:103550009905AA05BB0531F02F5F3F4F2530310596
:1035600031F745E020E030E0F901EE0FFF1FE20FF8
:10357000F31FEE0FFF1FEE0FFF1FEB59FB4F86816E
:103580009781A085B1858C159D05AE05BF0531F0ED
:103590002F5F3F4F2530310539F73AC0453021F5CF
:1035A000822F90E0FC01EE0FFF1FE80FF91FEE0FD6
:1035B000FF1FEE0FFF1FEB59FB4F86829782A086FD
:1035C000B18612C080E090E000000196F7E2803101
:1035D0009F07D1F70E94AF191F5F143111F480E0EB
:1035E00004C020E030E0A3CF81E0AA960FB6F894A3
:1035F000DEBF0FBECDBFCF91DF911F910F91FF9026
:10360000EF90DF90CF90BF90AF909F908F900895F4
:103610004530C1F2E9CFDF93CF9300D000D0CDB7D2
:10362000DEB70E94DD1BFE0131962EE130E0E1990C
:10363000FECF3FBB2EBBE09A8DB381932F5F3F4FF0
:1036400022323105A1F789819A81AB81BC818F3FFC
:103650002FEF92072FEFA2072FEFB20721F480EC94
:1036600098EAA0E0B3E68093A5049093A604A09303
:10367000A704B093A804FE01319622E230E0E1995C
:10368000FECF3FBB2EBBE09A8DB381932F5F3F4FA0
:1036900026323105A1F789819A81AB81BC818F3FA8
:1036A0002FEF92072FEFA2072FEFB20721F48FEF32
:1036B0009FEFAFEFB0E08093C1049093C204A0935A
:1036C000C304B093C404FE01319626E230E0E199D0
:1036D000FECF3FBB2EBBE09A8DB381932F5F3F4F50
:1036E0002A323105A1F789819A81AB81BC818F3F54
:1036F0002FEF92072FEFA2072FEFB20721F480ECF4
:1037000098EAA0E0B3E08093A9049093AA04A09360
:10371000AB04B093AC041092820582E280938305DF
:1037200089EF8093840581E080938505109286055A
:103730008093870580E591E09F938F930E94090C09
:103740000E94DB2087E491E09F938F930E94090CF5
:103750006CE072E08CE390E00E946B206CE072E021
:103760008CE390E00E946B208091A80490E09F93EE
:103770008F938091A70490E09F938F938091A604EC
:1037800090E09F938F938091A50490E09F938F93F7
:103790008CE291E09F938F930E94090C8DB79EB7A6
:1037A0000E960FB6F8949EBF0FBE8DBF0F900F9070
:1037B0000F900F90CF91DF9108958EB58D608EBDE3
:1037C0001DBC1CBC88E09DE39BBD8ABD89B78061A0
:1037D00089BF08951F920F920FB60F9211242F9355
:1037E0003F934F935F936F937F938F939F93AF9389
:1037F000BF93EF93FF9380914B0590914C05A0915F
:103800004D05B0914E050196A11DB11D80934B054C
:1038100090934C05A0934D05B0934E058091000206
:1038200090910102A0910202B09103020196A11DA4
:10383000B11D8093000290930102A0930202B09305
:1038400003020197A109B109815B9440A040B040F7
:1038500050F0109200021092010210920202109297
:1038600003020E940B1B8091A40482608093A40435
:1038700080918F0190919001019790939001809396
:103880008F01FF91EF91BF91AF919F918F917F91A8
:103890006F915F914F913F912F910F900FBE0F90BD
:1038A0001F901895E0E0F0E009940895AC01809134
:1038B000AD049091AE04892BF1F020E030E0E19965
:1038C000FECFF901EE0FFF1FE355FB4F0190F08192
:1038D000E02DE199FECFC901840F951F9FBB8EBBE0
:1038E000EDBB0FB6F894E29AE19A0FBE2F5F3F4FFF
:1038F0002430310521F7089508958091AF04909107
:10390000B0042091AD043091AE049F938F933F9308
:103910002F9389E193E09F938F930E94090C40912C
:10392000AF045091B0048DB79EB706960FB6F894C9
:103930009EBF0FBE8DBF4130510561F485B320910C
:10394000AD043091AE0402C0440F551F2A95E2F732
:10395000842B14C08091AF049091B004892B91F412
:1039600045B32091AD043091AE0481E090E002C0F7
:10397000880F991F2A95E2F78095842385BB85B32C
:1039800085BB089589EF92E09F938F930E94090C65
:103990000F900F90089583B323B390E082709070DE
:1039A000959587959F938F9330E0217030703F936A
:1039B0002F938EE593E09F938F930E94090C83B31E
:1039C00023B343B390E08071907064E09595879540
:1039D0006A95E1F79F938F9330E02870307053E041
:1039E000359527955A95E1F73F932F9350E0447012
:1039F000507055954795559547955F934F9385E43E
:103A000093E09F938F930E94090C23B383B343B336
:103A1000221F2227221F30E03F932F9390E08074D3
:103A2000907026E0959587952A95E1F79F938F935F
:103A300050E04072507095E0559547959A95E1F7A2
:103A40005F934F938CE293E09F938F930E94090CB6
:103A50008DB79EB746960FB6F8949EBF0FBE8DBF2A
:103A600008950F931F9389B329B349B369B390E0C5
:103A700088709070A3E095958795AA95E1F79F933C
:103A80008F9330E0247030703595279535952795C4
:103A90003F932F9350E042705070559547955F9338
:103AA0004F9370E0617070707F936F9389E793E03C
:103AB0009F938F930E94090C8091680090916900F8
:103AC0009F938F9384E090E09F938F930FE613E092
:103AD0001F930F930E94090C80916A0090916B00D4
:103AE0009F938F9385E090E09F938F931F930F9305
:103AF0000E94090C80916C0090916D009F938F93B0
:103B000086E090E09F938F931F930F930E94090C80
:103B10008DB79EB74C960FB6F8949EBF0FBE8DBF63
:103B20001F910F910895EF92FF921F93CF93DF9310
:103B3000CCE5D1E0BAE9EB2EB3E0FB2EFE012196F5
:103B40001491812F90E09F938F93FF92EF920E94A8
:103B5000090C0F900F900F900F90112379F7DF91C0
:103B6000CF911F91FF90EF9008958091A30490E072
:103B70009F938F938091070290E09F938F93809102
:103B8000880590E09F938F938DE993E09F938F93A7
:103B90000E94090C8DB79EB708960FB6F8949EBF89
:103BA0000FBE8DBF0895E091AD04F091AE048091F9
:103BB000AF049091B004A0E6B0E0EE0FFF1FEA0F53
:103BC000FB1F918380838091AD049091AE0420917E
:103BD000AD043091AE04880F991FA80FB91F8D91C5
:103BE0009C919F938F933F932F9383EB93E09F93AD
:103BF0008F930E94090C8DB79EB706960FB6F89466
:103C00009EBF0FBE8DBF08950E94522A089586E27E
:103C100090E00E94561C40EC58EA60E073E086E2B7
:103C200090E00E94EF0C6093A9047093AA04809323
:103C3000AB049093AC048091AC0490E09F938F937D
:103C40008091AB0490E09F938F938091AA0490E0C1
:103C50009F938F938091A90490E09F938F9384ED1D
:103C600093E09F938F930E94090C8DB79EB70A969D
:103C70000FB6F8949EBF0FBE8DBF089582E290E00C
:103C80000E94561C4FEF5FEF6FEF70E082E290E012
:103C90000E94EF0C6093C1047093C2048093C3042C
:103CA0009093C4048091C40490E09F938F9380917B
:103CB000C30490E09F938F938091C20490E09F9300
:103CC0008F938091C10490E09F938F9381EF93E055
:103CD0009F938F930E94090C8DB79EB70A960FB6DB
:103CE000F8949EBF0FBE8DBF089582E390E00E94BE
:103CF000561C4DE455E266E07BE382E390E00E94CF
:103D0000EF0C609308027093090280930A0290936B
:103D10000B0280910B0290E09F938F9380910A0297
:103D200090E09F938F938091090290E09F938F93EF
:103D30008091080290E09F938F938CE094E09F9392
:103D40008F930E94090C8DB79EB70A960FB6F89410
:103D50009EBF0FBE8DBF08958EE190E00E94561C5D
:103D600040EC58EA60E073E68EE190E00E94EF0CD0
:103D70006093A5047093A6048093A7049093A8046D
:103D80008091A80490E09F938F938091A70490E086
:103D90009F938F938091A60490E09F938F9380913F
:103DA000A50490E09F938F938AE294E09F938F9372
:103DB0000E94090C8DB79EB70A960FB6F8949EBF65
:103DC0000FBE8DBF0895CF92DF92EF92FF920F93B7
:103DD0001F93DF93CF9300D0CDB7DEB79A8389834B
:103DE00060EA70E0CE0101960E942B326C0110E077
:103DF0000FC01F5FE12FF0E0EE0FFF1FEE0FFF1F60
:103E0000E951FF4F80819181892B11F480E03AC004
:103E1000E12EFF24F701EE0FFF1FEE0FFF1FE95108
:103E2000FF4FB601808191810E94B131892B09F742
:103E300000E010E06E010894C11CD11C62EA70E041
:103E4000C6010E942B3240E050E060E070E00E942A
:103E50002A30F801EE0FFF1FE355FB4F718360839B
:103E60000F5F1F4F0A30110549F7EE0CFF1CEE0CD7
:103E7000FF1C89EE90E0E80EF91ED701ED91FC9150
:103E8000099581E00F900F90CF91DF911F910F91D5
:103E9000FF90EF90DF90CF900895CF93DF93EC01E8
:103EA000DB0134C086958695FD01819388818370FE
:103EB0008295807F11968C9311979981992321F493
:103EC000DF01119642E026C092959F70890F1196EE
:103ED0008C93119789818F70880F880F12968C931D
:103EE00012979A81992319F4139641E013C0929581
:103EF000969596959370890F12968C9312978A8156
:103F00008F7313968C931397149623968881882326
:103F100049F640E01C92EB0108C0E881F0E0EF7345
:103F2000F070ED5BFB4FE491E993CA17DB07A9F74B
:103F3000FD01842F9DE302C0919381508823E1F716
:103F4000A40FB11D1C92DF91CF910895FC01C4987C
:103F50008AE38FB9779BFECF07C01FB8779BFECF50
:103F60008FB181936150704061157105B1F7C49AAA
:103F70000895FC01C4988AE78FB9779BFECF8191A1
:103F80008FB961507040779BFECF61157105B9F70D
:103F9000C49A0895282F2F712B31F0F4982F907622
:103FA0008091B2059817C1F09093B205C4988FEB39
:103FB0008FB9779BFECF83E08FB9779BFECFC49AF2
:103FC000C4988FE98FB9779BFECF9295969597709D
:103FD0009FB9779BFECFC49A2064C4982FB9779B72
:103FE000FECF6FB9779BFECFC49A0895C498962FE1
:103FF0009F71982B9FB9779BFECF1FB8779BFECF01
:1040000067FF03C01FB8779BFECF8FB1C49A089596
:10401000682F90E08F7190704B97F4F4962F907604
:104020008091B2059817C1F09093B205C4988FEBB8
:104030008FB9779BFECF83E08FB9779BFECFC49A71
:10404000C4988FE98FB9779BFECF9295969597701C
:104050009FB9779BFECFC49A80E00E94F61F089517
:104060000F931F93162F072F682F84ED0E94CA1FEE
:10407000612F86ED0E94CA1F602F87ED0E94CA1F24
:104080008AEE0E94082080FDFBCF1F910F910895BA
:104090000F931F93682F84ED0E94CA1F61E082ED89
:1040A0000E94CA1F8AEE0E94082080FDFBCF60E0BC
:1040B00082ED0E94CA1F89ED0E940820182F00E09F
:1040C00088ED0E940820282F30E0202B312BC901D9
:1040D0001F910F910895CF92DF92EF92FF920F936D
:1040E0001F93CF93DF938C016B01C0E0D0E080EA97
:1040F000E82E8FE0F82E8FE10E94082083FF07C092
:10410000C7010197F1F72196C233D105A1F760E00D
:1041100082E00E94CA1F6AE183E00E94CA1F602FEA
:1041200086E00E94CA1FC8018050964E692F87E022
:104130000E94CA1FC4988AE78FB9779BFECF1FB829
:10414000779BFECFC49AC4988AE78FB9779BFECF3E
:10415000F60181916F018FB901501040779BFECF1E
:1041600001151105A9F7C49AC4988FE98FB9779BF7
:10417000FECF80E88FB9779BFECFC49AC4988FEBAF
:104180008FB9779BFECF80E88FB9779BFECFC49A1B
:10419000C4988FE98FB9779BFECF8CE08FB9779B5E
:1041A000FECFC49ADF91CF911F910F91FF90EF90B6
:1041B000DF90CF900895CF93DF938FEF8093B20578
:1041C000BC9A87B3896087BBC49AC79A87B3886B48
:1041D00087BBBE9880E58DB981E08EB980E090E024
:1041E000A0E0B0E000000196A11DB11D80342DE0DB
:1041F000920723E0A20720E0B207A1F7C4988FEF4F
:104200008FB9779BFECF8FEF8FB9779BFECFC49A84
:1042100080E090E0A0E0B0E000000196A11DB11D9B
:104220008034EDE09E07E3E0AE07E0E0BE07A1F7D3
:10423000C0E0D0E001C021968DE10E94082080FD01
:1042400004C0FDEFC83EDF07B1F71092B40510922D
:10425000B305C6E8D4E0FE0164912197FE01849184
:104260000E94CA1F2396F4E0C23BDF07A1F760E07B
:1042700071E080E10E94302060EC8BE10E94CA1F57
:10428000C4988FE98FB9779BFECF84E08FB9779B75
:10429000FECFC49A6AE477E384E10E9430208FE184
:1042A0000E9408208093B10582E70E940820809335
:1042B000B105DF91CF910895EF92FF920F931F9375
:1042C000CF93DF93EC017B018CE10E94082086FDF7
:1042D00008C089E30E940820882319F400E010E058
:1042E00073C06091B3057091B40580E00E94CA1F4D
:1042F0008091B3059091B405692F81E00E94CA1F97
:1043000060E08AE30E94F61F90E09093B4058093EA
:10431000B3050091B3051091B40560E08AE30E94F3
:10432000F61F382F20E0202B312B3093B40520933B
:10433000B30560E08AE30E94F61F082F10E060E0FA
:104340008AE30E94F61F382F20E0022B132B60E037
:104350008AE30E94F61F60E08AE30E94F61FC017FE
:10436000D10708F48E01B801C7010E94A61F8091F1
:10437000B3059091B4058091B3059091B405019770
:1043800080509A4130F06FEF8CE00E94CA1F69E1C3
:104390000EC06091B3057091B40561508CE00E942D
:1043A000CA1F8091B3059091B4050197692F8DE0E4
:1043B0000E94CA1FC4988EE98FB9779BFECF80E414
:1043C0008FB9779BFECFC49AC801DF91CF911F911F
:1043D0000F91FF90EF900895C4988FB9779BFECF0F
:1043E0006FB9779BFECFC49A089590E02DE030E03E
:1043F000A901849F9001859F300D949F300D112459
:10440000E1EDF5E0DF01A20FB31F8C91897F8160A0
:104410008C933897E20FF31F13821282118210825D
:104420008C91877F8C9385EB95E0958384838BE7D4
:1044300091E09287818780E891E09487838785E87F
:1044400091E09783868308952F923F924F925F92D7
:104450006F927F928F929F92AF92BF92CF92DF9294
:10446000EF92FF920F931F93DF93CF93CDB7DEB7F9
:104470002F970FB6F894DEBF0FBECDBF382E482E53
:1044800055248DE090E0489E9001499E300D589E45
:10449000300D1124F901EF52FA4F808180FD07C0E1
:1044A000F901E753FA4F8AE092E19383828386E130
:1044B00090E0489EF001499EF00D589EF00D1124A9
:1044C000EA53FB4F8089882379F48DE090E0489E81
:1044D000F001499EF00D589EF00D1124E753FA4F5C
:1044E00080819181938382838DE090E0489EF001EA
:1044F000499EF00D589EF00D1124E753FA4F82812A
:10450000938191838083EE24FF2442E0C42ED12C3A
:10451000CE0EDF1E5E010894A11CB11C31E0632E9B
:10452000712C2AE0222EF60100811181B8016F5F03
:104530007F4F71836083F801849192E4892E92E029
:10454000992E8E0C9F1CF4018083853209F003C2E2
:1045500043E050E08FE191E00E948731892B81F5A3
:104560000C5F1F4FF80184910F5F1F4FF8012491DA
:104570002051829DC0011124280FE22FF0E0EE0FA0
:10458000FF1FE05AFF4F4AE050E0B5018081918162
:104590000E9443326FE070E0C5010E942032082F74
:1045A00010E0A801B501C4010E949F3101501040E4
:1045B000E00EF11EF6018081918105969183808342
:1045C000F6016081718143E050E083E291E00E9456
:1045D0008731892B09F044C04AE050E0B501809151
:1045E000880590E00E944332B5018AE096E00E947F
:1045F000193267E271E08AE096E00E940E32809103
:1046000007028A3030F469E271E08AE096E00E94A5
:104610000E324AE050E0B5018091070290E00E941E
:104620004332B5018AE096E00E940E326AE070E003
:104630008AE096E00E942032082F10E0A8016AE08C
:1046400076E0C7018E5B9D4F0E949F310150104064
:10465000E00EF11EF60180819181039691838083A3
:10466000F6016081718143E050E08BE291E00E94AD
:104670008731892B09F048C04AE050E0B5018091AC
:104680008800909189000E944332B5018AE096E04B
:104690000E94193267E271E08AE096E00E940E32D1
:1046A00080918A0090918B000A9730F469E271E062
:1046B0008AE096E00E940E324AE050E0B501809117
:1046C0008A0090918B000E944332B5018AE096E007
:1046D0000E940E326AE070E08AE096E00E9420328A
:1046E000082F10E0A8016AE076E0C7018E5B9D4FBD
:1046F0000E949F3101501040E00EF11EF6018081B2
:104700009181039691838083F6016081718143E0FA
:1047100050E08FE291E00E948731892B09F048C078
:104720004AE050E0B50180918C0090918D000E948C
:104730004332B5018AE096E00E94193267E271E0E7
:104740008AE096E00E940E3280918E0090918F0058
:104750000A9730F469E271E08AE096E00E940E3236
:104760004AE050E0B50180918E0090918F000E9448
:104770004332B5018AE096E00E940E326AE070E0B2
:104780008AE096E00E942032082F10E0A8016AE03B
:1047900076E0C7018E5B9D4F0E949F310150104013
:1047A000E00EF11EF6018081918103969183808352
:1047B000F6010081118144E050E0B80183E391E00B
:1047C0000E948731892B09F052C00B5F1F4FF801FF
:1047D0008491805301501040F8016491633481F05A
:1047E000643428F4613441F0623421F507C0643444
:1047F00081F06835F9F417C02BB303C028B30AC0A1
:1048000025B3A30102C0440F551F8A95E2F7CA01E0
:1048100008C022B3F30102C0EE0FFF1F8A95E2F732
:10482000CF01282302C020917200222319F065E3F2
:1048300072E102C063E372E1C5010E9480316FE062
:1048400070E0C5010E942032082F10E0A801B501D8
:10485000C7018E5B9D4F0E949F3101501040E00EBA
:10486000F11EF60180819181069691838083F60185
:104870000081118143E050E0B80188E391E00E949B
:104880008731892B09F04CC00C5F1F4FF8018491D0
:10489000805301501040F8016491623461F0633438
:1048A00018F4613401F505C0633439F06434D9F487
:1048B0000DC029B303C026B30AC023B3A30102C0AD
:1048C000440F551F8A95E2F7CA0108C020B3F301CF
:1048D00002C0EE0FFF1F8A95E2F7CF01282319F0DF
:1048E00069E272E102C06FE172E1C5010E948031AC
:1048F0006FE070E0C5010E942032082F10E0A8018F
:10490000B501C7018E5B9D4F0E949F310150104041
:10491000E00EF11EF60180819181059691838083DE
:10492000F6016081718143E050E08CE391E00E94E8
:104930008731892B81F486E190E0489EF001499E01
:10494000F00D589EF00D1124EA53FB4F8DEF9FEFB1
:10495000928B818B09C00894E11CF11CFCE8EF16D6
:10496000F1E0FF0608F4DFCD86E190E0489EF0011B
:10497000499EF00D589EF00D1124EA53FB4F88E13B
:10498000808B632DC7010E94C6112F960FB6F89435
:10499000DEBF0FBECDBFCF91DF911F910F91FF9072
:1049A000EF90DF90CF90BF90AF909F908F907F90CF
:1049B0006F905F904F903F902F9008954F925F922D
:1049C0007F928F929F92AF92BF92CF92DF92EF929F
:1049D000FF920F931F93CF93DF93782E80913A022B
:1049E000E82EFF2420EFE222FF24F594E794F594CB
:1049F000E7946DE372E1C701825D9D4F0E94E9314A
:104A0000892B81F0272D30E08DE090E0289FF00188
:104A1000299FF00D389FF00D1124EF52FA4F80813D
:104A200088608083A72CBB248DE090E0A89EA00125
:104A3000A99E500DB89E500D1124DA01A753BA4F0C
:104A400096E0C92ED12CCA0EDB1E1696ED91FC9174
:104A500017978081882309F458C087010E5D1F4F86
:104A600080911D02282F30E02E5D3F4F90911C0257
:104A700080E0280F391F2E193F09B801645F7D4F70
:104A8000EA01CF52DA4F149685EB882E85E0982EF6
:104A9000A601F5E8CF2EF1E0DF2E34C0888180FD3D
:104AA00017C0FB018081ED91FC91119791911196B6
:104AB000FC93EE93891719F011969C928E92ED91CA
:104AC000FC9111978081882319F488818160888303
:104AD000FB018081FA0140805180F20191912F0108
:104AE000FA0151824082891711F0D182C0826F5F32
:104AF0007F4FFA0180819181FC018081882329F018
:104B00000F5F1F4F0217130748F28DE090E0A89E39
:104B1000A001A99E500DB89E500D1124FA01EF522C
:104B2000FA4FE081E0FF95C0E3FF93C087010E5D7F
:104B30001F4F80911D02282F30E02E5D3F4F909136
:104B40001C0280E0280F391F2E193F09B801645F4D
:104B50007D4FCA0187539A4FDC011996EBE7CE2EA1
:104B6000E1E0DE2EEC012B9680E8882E81E0982E85
:104B70006CC0FB019081ED91FC9111978191119690
:104B8000FC93EE93981719F01196DC92CE92ED916A
:104B9000FC91119780818823D1F5FB0181818434B8
:104BA000F1F0853438F4823491F08334A0F4813408
:104BB00059F509C08634D9F08634A8F08734D9F085
:104BC000883411F51CC0809104028F5F1BC0809156
:104BD00004028E5F17C0809104028C5F13C0809125
:104BE0000402885F0FC080910402805F0BC0809137
:104BF0000402805E07C080910402805C03C0809143
:104C000004028058809304021196DC92CE92E881CF
:104C1000F9818191F983E883981711F0998288824C
:104C20006F5F7F4FE881F9818081882361F4FA0109
:104C3000EF52FA4F8081877F80838091040285BB89
:104C40001092040206C00F5F1F4F0217130708F4EB
:104C500090CF8DE090E0A89EF001A99EF00DB89E47
:104C6000F00D1124E753FA4F82819381892B09F0CB
:104C700099C0F701B79680911D02282F30E02E5D74
:104C80003F4F90911C0280E0280F391F2E193F09D9
:104C9000DF01A45FBD4F15C08D918D3089F4E45FB5
:104CA000FD4F108280913A02C82FD0E0C07FD070B3
:104CB000D595C795D595C795C25DDD4F00E063C01A
:104CC0003196E217F30740F3EDCFB701CE010E9412
:104CD000C431892B09F456C08DE090E0A89EE00114
:104CE000A99ED00DB89ED00D1124CF52DA4F088165
:104CF0000260088360E471E0C7010E94C43165E48A
:104D000071E0C7010E94C431892B71F08DE090E001
:104D1000A89EF001A99EF00DB89EF00D1124EF524F
:104D2000FA4F8081826080836AE471E0C7010E944B
:104D3000C431892B71F08DE090E0A89EF001A99E0E
:104D4000F00DB89EF00D1124EF52FA4F80818D7F47
:104D500080838DE090E0A89EF001A99EF00DB89EA2
:104D6000F00D1124E753FA4FCC0CDD1CCC0CDD1CEC
:104D700081E791E0C80ED91ED6018D919C91938355
:104D8000828310C00F5FC02EDD24F601EE0FFF1FDF
:104D9000EE0FFF1FE159FE4FE080F180E114F104B6
:104DA00009F093CF8DE090E0A89E9001A99E300D70
:104DB000B89E300D1124D901A753BA4F1696ED9124
:104DC000FC9117978081882331F4F901EF52FA4F53
:104DD000E081E3FF1BC086E190E0A89E8001A99ED0
:104DE000100DB89E100D11240A531B4F80E1F801DD
:104DF000808B672D80E090E00E94C61181E090E0FA
:104E0000D80152969C938E935197B0C0E0FD31C06B
:104E100086E190E0A89EE001A99ED00DB89ED00D3D
:104E20001124CA53DB4F888983FF23C08AE092E1B3
:104E300013969C938E93129780913A0290E0807F14
:104E4000907095958795959587954CE750E06DE81E
:104E500071E1825D9D4F0E94773188E1888B672DDB
:104E60008CE790E00E94C61182E090E09A8B898BDB
:104E70007DC08DE090E0A89EF001A99EF00DB89E47
:104E8000F00D1124E753FA4F82819381892B39F574
:104E900080919A0090919B00019690939B00809343
:104EA0009A008051974221F410929B0010929A0030
:104EB0008DE090E0A89EF001A99EF00DB89EF00D47
:104EC0001124DF01A753BA4F81EB94E013969C9312
:104ED0008E931297EF52FA4F80818D7F808386E107
:104EE00090E0A89EE001A99ED00DB89ED00D11249F
:104EF000CA53DB4F82E090E09A8B898B8DE090E083
:104F0000A89EF001A99EF00DB89EF00D1124EF525D
:104F1000FA4FE081E695E170E13071F480913A0258
:104F200090E0807F9070959587959595879542E55F
:104F300050E06AE371E10FC0EE23C1F480913A02C0
:104F400090E0807F9070959587959595879542E53F
:104F500050E067EE70E1825D9D4F0E94773188E1FD
:104F6000888B672D82E590E00E94C611DF91CF917A
:104F70001F910F91FF90EF90DF90CF90BF90AF9077
:104F80009F908F907F905F904F900895482F282F8B
:104F900030E086E190E0289FF001299FF00D389FD6
:104FA000F00D1124EA53FB4F808980FD64C0818994
:104FB0009289019749F58DE090E0289FF001299FA3
:104FC000F00D389FF00D1124DF01AF52BA4F8C91D4
:104FD000897F81608C93E753FA4F1382128211828A
:104FE00010828C91877F8C9385EB95E095838483E9
:104FF0008BE791E09287818780E891E094878387AF
:1050000085E891E09783868386E190E0289FF00110
:10501000299FF00D389FF00D1124EA53FB4F818931
:105020009289039720F4842F0E94DE2408958189B9
:105030009289039748F0818992898E5F9F4F20F46F
:10504000842F0E942422089586E190E0289FF00199
:10505000299FF00D389FF00D1124EA53FB4F8189F1
:1050600092898E5F9F4F38F08EEF9FEF928B818BEE
:10507000842F0E948013089565EB75E08FE491E022
:105080000E944D1F66EC77E280E590E00E94730D70
:105090000895FF920F931F93CF93DF93C0919C00CD
:1050A000D0919D008091A1049091A204C817D907C6
:1050B00009F469C060E070E026E130E0F62E629FFE
:1050C000F001639FF00D729FF00D1124EA53FB4F26
:1050D000868197818050974109F046C080914A05AA
:1050E00080FD51C080914A05816080934A0580917E
:1050F0009E0090919F009093A2048093A10440E0B1
:1051000050E015C0FA01E45FFD4FD9018D9186ABE7
:10511000B093A204A093A104A058B54031F4205349
:1051200030403093A2042093A1044F5F5F4F209141
:10513000A1043091A204C217D30721F786E190E0C1
:10514000689F8001699F100D789F100D11240A53EC
:105150001B4F88E1F801808B6F2DCA010E94C61198
:1051600083E0F801838B0FC06F5F7F4F653071055F
:1051700009F0A4CF8091C50482FF05C08091C504C9
:105180008B7F8093C504DF91CF911F910F91FF908A
:105190000895FF920F931F93F82EA82FB0E086E199
:1051A00090E0A89FF001A99FF00DB89FF00D112489
:1051B000EA53FB4F808980FF06C08091C5048B7F36
:1051C0008093C504B3C081899289892B21F081899C
:1051D0009289019759F586E190E0A89F8001A99FE7
:1051E000100DB89F100D11240A531B4F81E090E061
:1051F000F801928B818B46E150E062E472E182E437
:1052000092E00E9477316F2D86E190E00E94C611F6
:105210008091C50484608093C50480914A058E7F87
:1052200080934A058FEFF801838B80C08189928932
:10523000029708F440C0808983FF3DC082E090E07F
:10524000928B818B20913A0230E0207F307035952F
:10525000279535952795B9016E5D7F4F80911D0289
:10526000482F50E04E5D5F4F90911C0280E0480F48
:10527000591F421B530BFB01E45FFD4F06C05D9BB2
:10528000FECF81918CB96F5F7F4F64177507BCF3B8
:1052900086E190E0A89FF001A99FF00DB89FF00D66
:1052A0001124EA53FB4F80E1808B6F2D80E090E06A
:1052B0000E94C6113BC086E190E0A89FF001A99F23
:1052C000F00DB89FF00D1124EA53FB4F81899289AC
:1052D0000297B8F0808984FF14C080914A0580FF4E
:1052E00010C08FEF838B8091A1049091A2049093C2
:1052F0009F0080939E0080914A058E7F80934A058F
:1053000015C086E190E0A89FF001A99FF00DB89F1D
:10531000F00D1124EA53FB4F8089882339F48091E2
:105320004A058E7F80934A050E9449281F910F915C
:10533000FF90089569EC78E287E190E00E94730D98
:105340000895AF92BF92CF92DF92EF92FF920F93A8
:105350001F9387EA92E19F938F930E94090CE0903C
:105360005E02F0905F020091600210916102212FB5
:10537000332744275527BE2DAA2799278827280F8A
:10538000391F4A1F5B1F205F314F4F4F5F4FD801BE
:10539000C70180709070B070892F9A2FAB2FBB27F8
:1053A000280F391F4A1F5B1F80E09FEFA0E0B0E08D
:1053B000E822F9220A231B23102F0F2DFE2CEE24A6
:1053C0002E0D3F1D401F511F20935E0230935F0240
:1053D000409360025093610220934B0530934C053B
:1053E00040934D0550934E05A0904B05B0904C0551
:1053F000C0904D05D0904E05E0904B05F0904C05C7
:1054000000914D0510914E0560914B0570914C0532
:1054100080914D0590914E052CE330E040E050E046
:105420000E94983270E07F936F93C801B7012CE31C
:1054300030E040E050E00E949832CA01B9012CE30C
:1054400030E040E050E00E94983270E07F936F932C
:10545000C601B50120E13EE040E050E00E949832F4
:10546000CA01B90128E130E040E050E00E949832E2
:1054700070E07F936F938DE892E19F938F930E94EA
:10548000090CADB7BEB71A960FB6F894BEBF0FBEE3
:10549000ADBF1F910F91FF90EF90DF90CF90BF9025
:1054A000AF900895CF92DF92EF92FF920F931F93E8
:1054B000CF93DF93C0900802D0900902E0900A02D7
:1054C000F0900B02C701B6010E941A1A813049F50B
:1054D000C0E0D0E009E512E1F8010F5F1F4FE49151
:1054E000DE01A45FBD4F9A96EC9344E050E0B80112
:1054F0008AE891E00E948731FE013196892B29F0DC
:10550000EF0182E0EE32F80739F7970186014BE7A9
:1055100050E06CEF78E0CF010E9475178AED92E1C0
:1055200002C08DEB92E19F938F930E94090C0F9024
:105530000F90DF91CF911F910F91FF90EF90DF902F
:10554000CF90089561EA79E28CEF98E00E94B00D67
:105550004DE455E266E07BE382E390E00E94EF0CCD
:10556000609308027093090280930A0290930B02E1
:1055700008959CE091BB97B3996097BB939A882359
:1055800011F4929801C0929AC09A80E090E00000D5
:105590000196883C9105D9F720B3C098C09A80E065
:1055A00090E000000196883C9105D9F780B3207FF8
:1055B000C09882958F70820F08950F931F93CF9399
:1055C000DF93182F062FC0E0D0E080E00E94B92AB8
:1055D00087FF06C081E0C43FD80711F02196F5CFC0
:1055E0008CEF81BB87B3896087BB002311F492984D
:1055F00001C0929A939882B3912F907F8F70980FE9
:1056000092BBC09A80E090E000000196883C910532
:10561000D9F7C09882B31295107F8F70810F82BB2B
:10562000C09A80E090E000000196883C9105D9F78F
:10563000C098DF91CF911F910F9108951F938CEF28
:1056400081BB87B3896087BB80E090E00000019652
:1056500027E280319207D1F710E060E082E20E94F9
:10566000DD2A60E080E80E94DD2A1F5F1330A9F781
:1056700060E088E20E94DD2A60E08CE00E94DD2A82
:105680001F910895CF93DF93EC0104C0219661E050
:105690000E94DD2A88818823C9F7DF91CF91089580
:1056A00060E081E00E94DD2A60E080E80E94DD2A5F
:1056B00008956F927F928F929F92AF92BF92CF92F6
:1056C000DF92EF92FF920F931F93DF93CF93CDB7AB
:1056D000DEB764970FB6F894DEBF0FBECDBFEFA064
:1056E000F8A48E01075D1F4FEDA1F0E0EF56FE4FCD
:1056F000808160E09EA1890F0E94DD2ABB243E01CB
:105700000894611C711C4BE0842E912C8C0E9D1E04
:1057100030E3A32E02C068018601F701849188233B
:1057200009F48CC00894E11CF11C853209F082C098
:10573000F7010894E11CF11C2491822F90E0C0979E
:105740000A9710F0822F0BC02B871C86C4010E9481
:105750005931B82EF7010894E11CF11C8491893667
:1057600071F08A3628F4823661F08336A1F61EC0C5
:10577000833749F0883739F18F3669F622C04AE01D
:1057800023C042E021C022E0C22ED12CC00ED11E87
:10579000F8010081118105C00F5F1F4F61E00E9479
:1057A000DD2AF80180818823B9F7B6CF92E0C92EAF
:1057B000D12CC00ED11E61E0F80180810E94DD2A4B
:1057C000ABCF48E001C040E182E0C82ED12CC00E32
:1057D000D11E50E0B301F801808191810E944332D3
:1057E00020E030E0A9014F5F5F4FF301E20FF31FAC
:1057F0008081882311F09A01F5CF8B2D90E0281736
:1058000039079CF4B21AF401C4018B0D911D01C03B
:10581000A192E817F907E1F71082B301C4010E94D1
:105820000E32B401C3010E941932C3010E94422BFF
:10583000BB2472CF61E00E94DD2A6DCF64960FB663
:10584000F894DEBF0FBECDBFCF91DF911F910F91B6
:10585000FF90EF90DF90CF90BF90AF909F908F9090
:105860007F906F9008950F931F93CF93DF93809154
:105870001D0290E04C9730911C0220E0820F931F94
:105880009F938F9388EF92E19F938F930E94090CCF
:105890000E94502B0AE210E00F900F900F900F9093
:1058A00009C0F801E45FFD4F61E080810E94DD2ABC
:1058B0000F5F1F4F80911D0290E00D96D0911C024A
:1058C000C0E08C0F9D1F801791075CF7DF91CF918F
:1058D0001F910F91089563E37CE289E591E00E94B6
:1058E000B00D089580919501805C87B98FEE86B9DF
:1058F00008951F920F920FB60F9211242F933F938A
:105900008F93EF93FF9316B88091950124B135B131
:10591000E82FF0E0EE0FFF1FE05AFF4F31832083A6
:105920008F5F8093950180919501873018F084E016
:105930008093950180919501805C87B9FF91EF91EB
:105940008F913F912F910F900FBE0F901F90189540
:10595000DC0120E040E050E098E115C0FD01E40FDB
:10596000F51FE08138E08E2F8227F82FF17080FD3F
:1059700029272695F13009F42068315011F0E69579
:10598000F2CF4F5F5F4F4617570741F7822F0895B9
:10599000DC01CB0181159105A105B10529F08150EC
:1059A0009040A040B040D9F70895FF920F931F9305
:1059B000CF93DF93F82EFB01DA01E9018081482FB4
:1059C00050E0918180E0482B592B80E1F81671F46A
:1059D000CA018E7F33E0880F991F3A95E1F726813F
:1059E0004CE050E0421B5109480F591F57FF06C0B9
:1059F00081E08C93509541955F4F01C01C9288E2E5
:105A0000F81691F48481682F70E0CB018076907055
:105A10008036910549F066FF02C04E7F05C065FFE4
:105A200002C04C7F01C0487FCA0124E0969587954B
:105A30002A95E1F78883842F8F70F801808380E0B6
:105A4000DF91CF911F910F91FF9008950F931F93B6
:105A5000DF93CF93CDB7DEB728970FB6F894DEBFAC
:105A60000FBECDBF082F162FDE011196ECECF1E032
:105A700088E001900D928150E1F7242F30E081E71A
:105A800092E0BC01269FC001279F900D369F900D8C
:105A9000112468EE73E00E948532CB012AE0129F48
:105AA000B0011124680F791F002379F4FE013196AB
:105AB0009E01275F3F4F8081481719F46F5F7F4F2A
:105AC00004C03196E217F307B1F7CB0128960FB661
:105AD000F894DEBF0FBECDBFCF91DF911F910F9124
