:100000000C94AB0D0C94C80D0C94C80D0C94C51336
:100010000C94C80D0C94C80D0C94C80D0C94E121DF
:100020000C94C80D0C94C80D0C94C80D0C94C80DFC
:100030000C94C80D0C9481110C94C80D0C94C80D2F
:100040000C9401340C94C80D0C94C80D0C94C80D7C
:100050000C94C80DBB2CBF2CC52CC92CCD2CD12C7D
:10006000D52CD92C832D832D832D832D832D832D6A
:10007000832D832D832D832D832D832D832D832D00
:10008000832DB82C832D832D832D832D832D832DBC
:10009000832D832DDD2CE72CF52CFF2C832D832D38
:1000A000832D832D0D2D162D832D832D242D2D2D68
:1000B000832D832D832D832D832D832D3C2D4E2D3C
:1000C000602D722D107A8C480108006710449E53F1
:1000D000010800CA1002AF5301080044109E7D9829
:1000E000010800F810006C98010800EB0000000007
:1000F0000000000000000000000000000000000000
:100100000000000000000000000000002569DF2F53
:100110002569DF002569DF00543A202020202020B7
:100120002020202020202020000D0A43524320457B
:1001300072726F7220286C6F737420636F6E6E65BD
:100140006374696F6E3F2920002D004100504F52AB
:1001500054433A2569256925692569256925692555
:1001600069256900253469002532693A2532693AE2
:10017000253269004552524F520D0A0D0A00526550
:100180006164790D0A0D0A000D0A002531692E25DA
:1001900031692E2531692E253169002A4156522DAB
:1001A0004E45542D494F20312E352A00436F6D7036
:1001B000696C69657274206D6974204743432056E9
:1001C000657273696F6E20342E332E300D0A004332
:1001D0006F6D70696C6965727420616D204665622F
:1001E000203138203230303920756D2032333A33A7
:1001F000393A34310D0A000A0D53797374656D2054
:1002000052656164790A0D003A20504F4E47210D26
:100210000A002E2569002E2569002E256900256912
:10022000004D792049503A202531692E2531692E1B
:100230002531692E2531690D0A0D0A0052454144C8
:1002400059210D0A000A0D4E494320696E69743A1E
:100250000048454C5020202020202D207072696ECF
:10026000742048656C70746578740D0A3F202020F6
:1002700020202020202D207072696E742048656C2B
:1002800070746578740D0A5245534554202020201F
:100290002D20726573657420746865204156522064
:1002A0002D20436F6E74726F6C6C65720D0A54432F
:1002B000502020202020202D206C69737420746829
:1002C0006520746370207461626C650D0A4950206A
:1002D0002020202020202D206C6973742F636861FA
:1002E0006E67652069700D0A4E455420202020203D
:1002F000202D206C6973742F6368616E6765206EB2
:1003000065746D61736B0D0A524F55544552202030
:10031000202D206C6973742F6368616E676520728D
:100320006F757465722069700D0A54494D4520201F
:100330002020202D206765742074696D650D0A509A
:100340004F525441202020202D206C69737420507E
:100350004F5254410D0A504F525443202020202D1B
:10036000206C69737420504F5254430D0A504F5201
:100370005443534554202D2073657420504F5254DC
:100380004320302D3720302F310D0A4E545020207D
:1003900020202D206C6973742F6368616E6765205F
:1003A0004E54500D0A4E5450522020202D204E54B1
:1003B0005020526566726573680D0A4D41432020D6
:1003C00020202D206C697374204D41432D6164649D
:1003D000726573730D0A4F5720202020202D206C4A
:1003E00069737420312D576972652074656D70656D
:1003F000726174757265730D0A5356202020202097
:100400002D20736574207661726961626C650D0AD6
:10041000004552524F5220504152414D4554455291
:1004200020205B50696E2E5374617475735D0D0AE4
:1004300000736574706F727444202531692E253104
:10044000690D0A0043353A2025690D0A43363A20E2
:1004500025690D0A43373A2025690D0A0043323ACF
:100460002025690D0A43333A2025690D0A43343AA1
:100470002025690D0A0043303A2025690D0A4331D1
:100480003A2025690D0A004125693A2025690D0A9F
:100490000041303A2025690D0A41313A2025690D85
:1004A0000A41323A2025690D0A41333A2025690D67
:1004B0000A0025692C25690D0A002D0053656E730D
:1004C0006F722025693A20002563000A0D54494DBA
:1004D000453A202532693A2532693A2532690D0AB2
:1004E00000496E68616C742064657220566172699F
:1004F00061626C655B2532695D203D202532690DA6
:100500000A00526F757465722049503A202531698E
:100510002E2531692E2531692E2531690D0A004EAF
:1005200045544D41534B3A202531692E2531692ED2
:100530002531692E2531690D0A004E54505F5365EF
:10054000727665723A202531692E2531692E253162
:10055000692E2531690D0A004D792049503A202530
:1005600031692E2531692E2531692E2531690D0A13
:10057000004142434445464748494A4B4C4D4E4F43
:10058000505152535455565758595A6162636465D5
:10059000666768696A6B6C6D6E6F70717273747583
:1005A000767778797A303132333435363738392BBB
:1005B0002F3D000400051A06FF071F080009000A66
:1005C000FF0B19C100C00DC232CAEECB05C412C662
:1005D00012C70CE400E522E2F9E301E000E1013C8E
:1005E00068746D6C3E3C686561643E3C6D65746129
:1005F00020687474702D65717569763D2272656628
:10060000726573682220636F6E74656E743D223369
:10061000302220746578742F68746D6C3B20636899
:1006200061727365743D69736F2D383835392D31BA
:10063000223E0D0A3C7469746C653E415652204E50
:10064000455420494F3C2F7469746C653E0D0A3C3B
:100650007374796C6520747970653D227465787463
:100660002F637373223E0D0A2E66657474207B66B9
:100670006F6E742D7765696768743A20626F6C6479
:100680003B206D617267696E2D746F703A31357001
:10069000783B7D0D0A7464207B2063656C6C70610F
:1006A0006464696E673A203270783B207D0D0A627F
:1006B0006F6479207B20666F6E742D66616D696C46
:1006C000793A20617269616C3B2020666F6E742DEF
:1006D00073697A653A20312E3020656D3B20636F57
:1006E0006C6F723A20233030303030303B20626102
:1006F000636B67726F756E642D636F6C6F723A20F7
:10070000726762283235352C203235352C20323054
:1007100034297D0D0A6831207B746578742D616CF5
:1007200069676E3A2063656E7465723B20666F6E12
:10073000742D7765696768743A20626F6C643B203A
:10074000636F6C6F723A2077686974653B20666FDF
:100750006E742D73697A653A20312E3220656D7D75
:100760000D0A3C2F7374796C653E0D0A3C2F686549
:1007700061643E3C626F64793E3C63656E74657291
:100780003E0D0A3C7461626C65207374796C653D42
:100790002277696474683A2036303070783B207470
:1007A0006578742D616C69676E3A206C6566743B80
:1007B000206261636B67726F756E642D636F6C6F1F
:1007C000723A20726762283135332C203135332C50
:1007D00020323535293B222063656C6C706164647E
:1007E000696E673D2235223E0D0A3C74723E3C74B0
:1007F000643E3C68313E4156522D4E45542D494F82
:100800003C2F68313E0D0A3C7461626C6520737444
:10081000796C653D2277696474683A2031303025FF
:100820003B20666F6E742D7765696768743A206245
:100830006F6C643B223E0D0A3C74723E3C74643E15
:100840005365727665727A6569743A202554494019
:100850003C2F74643E3C7464207374796C653D2253
:10086000746578742D616C69676E3A207269676887
:10087000743B223E50616765636F756E7465723AB2
:10088000202556414032393C2F74643E3C2F74720F
:100890003E3C2F7461626C653E0D0A3C2F74643ED1
:1008A0003C2F74723E3C2F7461626C653E0D0A3CB5
:1008B00064697620636C6173733D2266657474228B
:1008C0003E53746174757320504F5254413A3C2F1B
:1008D0006469763E0D0A3C7461626C6520737479BC
:1008E0006C653D2277696474683A203630307078E0
:1008F0003B20746578742D616C69676E3A206C6575
:1009000066743B206261636B67726F756E642D6302
:100910006F6C6F723A20726762283235352C203244
:1009200035352C20313533293B2220626F726465C6
:10093000723D2230223E0D0A3C74723E3C74643E8D
:100940006469672E2045696E67616E673C2F746429
:100950003E3C7464207374796C653D2277696474DD
:10096000683A333570783B223E6175662F7A753C64
:100970002F74643E3C746420616C69676E3D226331
:10098000656E746572223E616E616C6F672E2045E4
:10099000696E67616E673C2F74643E3C74643E57B9
:1009A0006572742028302D31303233293C2F746425
:1009B0003E3C2F74723E0D0A3C74723E3C74643EA1
:1009C00041305F46656E737465725F313C2F7464AD
:1009D0003E3C7464207374796C653D226261636B84
:1009E00067726F756E642D636F6C6F723A207267F9
:1009F00062282550494E4130293B223E3C2F7464E9
:100A00003E3C746420616C69676E3D2263656E7460
:100A10006572223E41442D41343C2F74643E3C7447
:100A2000643E2556414030343C2F74643E3C2F7464
:100A3000723E0D0A3C74723E3C74643E41315F4626
:100A4000656E737465725F323C2F74643E3C7464EF
:100A5000207374796C653D226261636B67726F7598
:100A60006E642D636F6C6F723A2072676228255036
:100A7000494E4131293B223E3C2F74643E3C746414
:100A800020616C69676E3D2263656E746572223EFB
:100A900041442D41353C2F74643E3C74643E2556E0
:100AA000414030353C2F74643E3C2F74723E0D0A39
:100AB0003C74723E3C74643E41325F3C2F74643E31
:100AC0003C7464207374796C653D226261636B676A
:100AD000726F756E642D636F6C6F723A207267620D
:100AE000282550494E4132293B223E3C2F74643E1A
:100AF0003C746420616C69676E3D2263656E746549
:100B000072223E41442D41363C2F74643E3C746455
:100B10003E2556414030363C2F74643E3C2F747263
:100B20003E0D0A3C74723E3C74643E41335F3C2F80
:100B300074643E3C7464207374796C653D22626118
:100B4000636B67726F756E642D636F6C6F723A20A2
:100B5000726762282550494E4133293B223E3C2F83
:100B600074643E3C746420616C69676E3D22636509
:100B70006E746572223E41442D41373C2F74643EB1
:100B80003C74643E282D3E20312D57697265293C06
:100B90002F74643E3C2F74723E0D0A3C2F746162C8
:100BA0006C653E0D0A3C64697620636C6173733D2D
:100BB0002266657474223E312D576972652D546525
:100BC0006D7065726174757273656E736F72656E48
:100BD0003A3C2F6469763E0D0A3C7461626C652074
:100BE0007374796C653D2277696474683A20363095
:100BF0003070783B20746578742D616C69676E3A4B
:100C0000206C6566743B206261636B67726F756E02
:100C1000642D636F6C6F723A2072676228323535CB
:100C20002C203235352C20313032293B2220626F86
:100C3000726465723D2230223E0D0A3C74723E3C65
:100C400074643E312D576972653C2F74643E3C7468
:100C5000643E4F72743C2F74643E3C746420616C3B
:100C600069676E3D227269676874223E57657274C7
:100C70003C2F74643E3C746420616C69676E3D2255
:100C80006C656674223E45696E686569743C2F74B4
:100C9000643E3C74643E4D696E2F4D61782854610A
:100CA00067293C2F74643E3C2F74723E0D0A3C74DD
:100CB000723E3C74643E53656E736F7220303C2FFD
:100CC00074643E3C74643E5261756D5F313C2F74B8
:100CD000643E3C746420616C69676E3D2272696792
:100CE0006874223E254F574030303C2F74643E3CA0
:100CF000746420616C69676E3D226C656674223E87
:100D0000266465673B433C2F74643E3C74643E2517
:100D10004F57403038202F20254F574031363C2F39
:100D200074643E3C2F74723E0D0A3C74723E3C74F7
:100D3000643E53656E736F7220313C2F74643E3C89
:100D400074643E5261756D5F323C2F74643E3C7436
:100D50006420616C69676E3D227269676874223E27
:100D6000254F574030313C2F74643E3C7464206101
:100D70006C69676E3D226C656674223E2664656709
:100D80003B433C2F74643E3C74643E254F574030D7
:100D900039202F20254F574031373C2F74643E3C7B
:100DA0002F74723E0D0A3C74723E3C74643E53656F
:100DB0006E736F7220323C2F74643E3C74643E410B
:100DC000757373656E3C2F74643E3C746420616C73
:100DD00069676E3D227269676874223E254F5740ED
:100DE00030323C2F74643E3C746420616C69676EE1
:100DF0003D226C656674223E266465673B433C2F4A
:100E000074643E3C74643E254F57403130202F209F
:100E1000254F574031383C2F74643E3C2F74723E4E
:100E20000D0A3C74723E3C74643E53656E736F727F
:100E300020333C2F74643E3C74643E50756D706585
:100E400020564C3C2F74643E3C746420616C69678E
:100E50006E3D227269676874223E254F57403033D9
:100E60003C2F74643E3C746420616C69676E3D2263
:100E70006C656674223E266465673B433C2F746450
:100E80003E3C74643E254F57403131202F20254F82
:100E9000574031393C2F74643E3C2F74723E0D0A2A
:100EA0003C74723E3C74643E53656E736F722034C2
:100EB0003C2F74643E3C74643E50756D70652052E6
:100EC0004C3C2F74643E3C746420616C69676E3DD9
:100ED000227269676874223E254F574030343C2F98
:100EE00074643E3C746420616C69676E3D226C657D
:100EF0006674223E266465673B433C2F74643E3C27
:100F000074643E254F57403132202F20254F5740E3
:100F100032303C2F74643E3C2F74723E0D0A3C2FDD
:100F20007461626C653E0D0A3C64697620636C6195
:100F300073733D2266657474223E536368616C74FA
:100F4000616E77656973756E67656E3A3C2F64698B
:100F5000763E0D0A3C7461626C65207374796C6531
:100F60003D2277696474683A2036303070783B20CF
:100F7000746578742D616C69676E3A206C6566746F
:100F80003B206261636B67726F756E642D636F6C7B
:100F90006F723A20726762283235352C2032303435
:100FA0002C203531293B2220626F726465723D220C
:100FB00030223E0D0A3C74723E3C74643E3C666FC7
:100FC000726D206E616D653D22666F726D312220FB
:100FD0006D6574686F643D22706F73742220616365
:100FE00074696F6E3D2220223E0D0A3C7461626C72
:100FF00065207374796C653D2277696474683A2062
:10100000313030253B20746578742D616C69676ED2
:101010003A206C6566743B2220626F726465723D93
:101020002230223E0D0A3C74723E3C74643E3C69A0
:101030006E70757420747970653D22636865636BAA
:10104000626F7822206E616D653D224F55542220DB
:1010500076616C75653D22582225504F525458399F
:10106000203E204175746F6D6174696B3C68723EFF
:101070003C2F74643E3C74643E2556414030393CFC
:1010800068723E3C2F74643E3C74643E2865696E11
:101090002F61757329203C68723E3C2F74643E3C7E
:1010A0002F74723E0D0A3C74723E3C74643E3C697F
:1010B0006E70757420747970653D22636865636B2A
:1010C000626F7822206E616D653D224F555422205B
:1010D00076616C75653D22412225504F5254433054
:1010E0003E2043305F52656C6169735F313C2F7401
:1010F000643E3C74643E3C696E7075742074797013
:10110000653D22636865636B626F7822206E616D56
:10111000653D224F5554222076616C75653D2261F4
:10112000223E2D202F202B3C696E7075742074791F
:1011300070653D22636865636B626F7822206E6123
:101140006D653D224F5554222076616C75653D22B8
:1011500062223E20616220255641403130202664C3
:1011600065673B43206175733C2F74643E3C746437
:101170003E202D3E2053656E736F7220303C2F74DD
:10118000643E3C2F74723E0D0A3C74723E3C7464A3
:101190003E3C696E70757420747970653D22636899
:1011A00065636B626F7822206E616D653D224F55DD
:1011B00054222076616C75653D22422225504F52A3
:1011C0005443313E2043315F52656C6169735F3235
:1011D0003C2F74643E3C74643E3C696E70757420B0
:1011E000747970653D22636865636B626F78222055
:1011F0006E616D653D224F5554222076616C756598
:101200003D2263223E2D202F202B3C696E70757489
:1012100020747970653D22636865636B626F782224
:10122000206E616D653D224F5554222076616C75AC
:10123000653D2264223E20616220255641403131C5
:1012400020266465673B43206175733C2F74643EC0
:101250003C74643E202D3E2053656E736F722031C6
:101260002C2041313C2F74643E3C2F74723E0D0A99
:101270003C74723E3C74643E3C696E7075742074BC
:101280007970653D22636865636B626F7822206EBA
:10129000616D653D224F5554222076616C75653D28
:1012A00022432225504F525443323E2043325F5254
:1012B000656C6169735F333C2F74643E3C74643EBB
:1012C0003C2F74643E3C74643E3C2F74643E3C2F5F
:1012D00074723E0D0A3C74723E3C74643E3C696E0E
:1012E00070757420747970653D22636865636B6204
:1012F0006F7822206E616D653D224F555422207615
:10130000616C75653D22442225504F525443333E53
:101310002043335F52656C6169735F343C2F7464A2
:101320003E3C74643E3C2F74643E3C74643E3C2FEF
:1013300074643E3C2F74723E0D0A3C74723E3C74E1
:10134000643E3C696E70757420747970653D2263EB
:101350006865636B626F7822206E616D653D224F18
:101360005554222076616C75653D22452225504FEB
:10137000525443343E2043345F52656C6169735F5D
:10138000353C2F74643E3C74643E3C696E707574E9
:1013900020747970653D22636865636B626F7822A3
:1013A000206E616D653D224F5554222076616C752B
:1013B000653D2269223E2D202F202B3C696E7075E1
:1013C0007420747970653D22636865636B626F7821
:1013D00022206E616D653D224F5554222076616C4E
:1013E00075653D226A223E206162202556414031CA
:1013F0003420266465673B432044696666657265F0
:101400006E7A2065696E3C2F74643E3C74643E2D98
:101410003E2053656E736F7220332C343C2F7464FE
:101420003E3C2F74723E0D0A3C74723E3C74643E26
:101430003C696E70757420747970653D22636865CF
:10144000636B626F7822206E616D653D224F55544B
:10145000222076616C75653D22462225504F5254FC
:1014600043353E2043355F52656C6169735F363C9E
:101470002F74643E3C74643E3C2F74643E3C746440
:101480003E3C2F74643E3C2F74723E0D0A3C7472D5
:101490003E3C74643E3C696E70757420747970656E
:1014A0003D22636865636B626F7822206E616D65B3
:1014B0003D224F5554222076616C75653D224722AE
:1014C00025504F525443363E2043365F52656C617F
:1014D00069735F373C2F74643E3C74643E3C696EB4
:1014E00070757420747970653D22636865636B6202
:1014F0006F7822206E616D653D224F555422207613
:10150000616C75653D226D223E2D202F202B3C699C
:101510006E70757420747970653D22636865636BC5
:10152000626F7822206E616D653D224F55542220F6
:1015300076616C75653D226E223E206162205765A2
:101540007274202556414031382065696E203C2F49
:1015500074643E3C74643E2D3E2041442D41363C33
:101560002F74643E3C2F74723E0D0A3C74723E3CF4
:1015700074643E3C696E70757420747970653D22A8
:10158000636865636B626F7822206E616D653D22D2
:101590004F5554222076616C75653D2248222550B6
:1015A0004F525443373E2043375F52656C61697335
:1015B0005F383C2F74643E3C74643E3C696E7075C9
:1015C0007420747970653D22636865636B626F781F
:1015D00022206E616D653D224F5554222076616C4C
:1015E00075653D2275223E2B68206D2B3C696E701F
:1015F000757420747970653D22636865636B626FF2
:101600007822206E616D653D224F5554222076610F
:101610006C75653D2276223E2065696E3A20255420
:101620003040205568723C2F74643E3C74643E3CEC
:10163000696E70757420747970653D2263686563A6
:101640006B626F7822206E616D653D224F5554228A
:101650002076616C75653D2277223E2B68206D2BCC
:101660003C696E70757420747970653D226368659D
:10167000636B626F7822206E616D653D224F555419
:10168000222076616C75653D2278223E206175735B
:101690003A2025543140205568723C2F74643E3CFA
:1016A0002F74723E0D0A3C2F7461626C653E0D0A08
:1016B0003C68723E3C7020616C69676E3D226365D8
:1016C0006E746572223E3C696E7075742074797018
:1016D000653D227375626D697422206E616D653D92
:1016E00022535542222076616C75653D2253656E0A
:1016F00064656E223E3C2F703E3C2F666F726D3EDD
:101700000D0A3C2F74643E3C2F74723E3C2F746172
:10171000626C653E0D0A3C62723E3C6469762063F1
:101720006C6173733D2266657474223E4C6F6B610D
:101730006C6520576574746572696E666F726D6151
:1017400074696F6E656E3A203C2F6469763E3C6129
:1017500020687265663D687474703A2F2F777777CA
:101760002E77657474657232342E64652F6E632F24
:1017700064652F686F6D652F7765747465722F7758
:10178000656C747765747465722F6F7274657765B4
:10179000747465722E68746D6C3F63697479494422
:1017A0003D3439583732343126747970653D3938D3
:1017B0003E2D3E207777772E7765747465723234CC
:1017C0002E64653C2F613E0D0A3C62723E3C68729D
:1017D0003E0D0A3C6469763E504F525442202D3EE5
:1017E00020454E4332384A36303C62723E504F52AA
:1017F0005444202D3E204C43446973706C61793C05
:101800002F6469763E0D0A3C62723E0D0A3C6469A3
:10181000763E57656273657276657220766F6E20CC
:10182000556C726963682052616469672056312E75
:10183000302E39393C2F6469763E0D0A3C64697656
:101840003E436F6D70696C6965727420616D2046EE
:101850006562203138203230303920756D203233C6
:101860003A33393A3433206D697420474343205664
:10187000657273696F6E20342E332E303C2F64698D
:10188000763E0D0A3C6469763E56657273696F6EEA
:1018900020312E3520526F42756520766F6D2031D4
:1018A000382E30322E323030392066FC72204156CC
:1018B000522D4E45542D494F3C2F6469763E0D0AFA
:1018C0003C2F7370616E3E3C2F626F64793E3C2FFB
:1018D00068746D6C3E0D0A25454E4400254F5740F7
:1018E00030300D0A254F574030310D0A254F5740F3
:1018F00030320D0A254F574030330D0A254F5740DF
:1019000030340D0A2556414030340D0A25564140E9
:1019100030350D0A2556414030360D0A25454E44D6
:1019200000485454502F312E302032303020446F34
:1019300063756D656E7420666F6C6C6F77730D0ADE
:101940005365727665723A204156525F5745425F41
:101950005377697463680D0A436F6E74656E742DF6
:10196000547970653A20746578742F68746D6C0DC5
:101970000A0D0A00485454502F312E302032303096
:1019800020446F63756D656E7420666F6C6C6F7745
:10199000730D0A5365727665723A204156525F574D
:1019A00045425F5377697463680D0A436F6E7465CF
:1019B0006E742D547970653A20696D6167652F6A80
:1019C00070670D0A0D0A00485454502F312E3020F4
:1019D00034303120556E617574686F72697A656450
:1019E0000D0A5365727665723A204156525F57452B
:1019F000425F5377697463680D0A5757572D4175D5
:101A00007468656E7469636174653A2042617369D4
:101A100063207265616C6D3D224E65656450617333
:101A200073776F7264220D0A436F6E74656E742D46
:101A3000547970653A20746578742F68746D6C0DF4
:101A40000A0D0A0034303120556E617574686F726A
:101A5000697A656425454E4400302C203135332C9D
:101A60002030003135332C20302C20300000006332
:101A70006865636B656400504F5354005374617222
:101A8000742054656C6E6574205365727665723A85
:101A90000D0A00D9000AFA0000000000010400004D
:101AA0000000000000000000000000000000000036
:101AB0000000000000000000000000C7D6AC720863
:101AC00000000025454E440A0D4E54502054494D07
:101AD000453A202532693A2532693A2532690D0A9C
:101AE000002A2A204E545020444154412047455456
:101AF00021202A2A0D0A004B65696E204E54502081
:101B000053657276657220676566756E64656E21D1
:101B1000210D0A002A2A204E545020526571756505
:101B2000737420676573656E64657421202A2A0DBD
:101B30000A002A2A204C434420444154412047456E
:101B4000542042797465733A202569202A2A0D0AA7
:101B500000257820000011241FBECFE5D8E0DEBFAD
:101B6000CDBF11E0A0E6B0E0ECE1F5E702C00590E2
:101B70000D92A23EB107D9F716E0A2EEB1E001C086
:101B80001D92A535B107E1F70E94CA0D0C948C3A5D
:101B90000C9400002F923F924F925F926F927F922F
:101BA0008F929F92AF92BF92CF92DF92EF92FF926D
:101BB0000F931F93DF93CF93CDB7DEB72B970FB65D
:101BC000F894DEBF0FBECDBF1ABA8FEF84BB8BB3C4
:101BD0008F608BBB8BB380678BBB60E875E280E066
:101BE00090E00E9451110E94FA3387EF91E09F9399
:101BF0008F930E9400128FEC91E09F938F930E942D
:101C000000128CEA91E09F938F930E94001280E073
:101C100090E0A0E0B0E02DB73EB72A5F3F4F0FB68F
:101C2000F8943EBF0FBE2DBF00000196A11DB11D4F
:101C3000803432E493073FE0A30730E0B307A1F715
:101C40000E9402210E94C42F0E9422310E94F3337D
:101C50000E94A6320E94D8328BE991E09F938F9325
:101C60001F921F920E94E1328BB780628BBF8091DE
:101C7000B70490E09F938F938091B60490E09F9378
:101C80008F938091B50490E09F938F938091B404DB
:101C900090E09F938F938BE891E09F938F931F9297
:101CA00082E08F930E94E13278940E942A320E944F
:101CB000DA31E5EDF4E08DB79EB740960FB6F894B3
:101CC0009EBF0FBE8DBF86E990E08193919324E083
:101CD000E53EF207D1F71192119235E0E530F307B6
:101CE000D1F760E070E080E00E94253580E090E070
:101CF000A0E0B0E000000196A11DB11D8034E2E437
:101D00009E07EFE0AE07E0E0BE07A1F71092E20108
:101D100081E080939D004FEEA42EBB24B3943BE45E
:101D2000432E31E0532E24E0C22ED12CCC0EDD1EEA
:101D300093E0292E312C2C0E3D1E84E1882E81E06B
:101D4000982E0CE0602E01E0702EA6B80E94A61F0F
:101D50008091D40480FF20C028E831E03F932F9386
:101D60000E9400128EE895E00E9443250F900F908C
:101D7000882329F08EE791E09F938F9304C0E4E7D6
:101D8000F1E0FF93EF930E9400120F900F9080916B
:101D9000D4048E7F8093D40460918A0570918B0562
:101DA00080918C0590918D0520E13EE040E050E06F
:101DB0000E942C3ACA01B90128E130E040E050E02D
:101DC0000E942C3AE62E6093C70560918A057091B7
:101DD0008B0580918C0590918D052CE330E040E0DF
:101DE00050E00E942C3ACA01B9012CE330E040E0F7
:101DF00050E00E942C3A062F6093160260918A05EB
:101E000070918B0580918C0590918D052CE330E0CD
:101E100040E050E00E942C3A6093B20470E07F935F
:101E20006F9310E01F930F93FF24FF92EF9228E629
:101E300031E03F932F931F92BF920E94E132809135
:101E40009A0090919B009F938F9384E691E09F93DB
:101E50008F939CE09F93BF920E94E13263B383B360
:101E600023B343B3E3B3A3B303B3E3B2661F66275D
:101E7000661F70E07F936F9390E08074907016E01F
:101E8000959587951A95E1F79F938F9330E020728F
:101E90003070B5E035952795BA95E1F73F932F93CC
:101EA00050E040715070F4E055954795FA95E1F790
:101EB0005F934F93F0E0E870F07073E0F595E7956D
:101EC0007A95E1F7FF93EF93B0E0A470B070B59509
:101ED000A795B595A795BF93AF9310E002701070CA
:101EE000159507951F930F93FF24E1E0EE22FF2441
:101EF000FF92EF922DE431E03F932F931F9213E076
:101F00001F930E94E1328DB79EB784960FB6F89466
:101F10009EBF0FBE8DBF809172009091730001979C
:101F200019F45F924F9204C0E9E4F1E0FF93EF935C
:101F30008FE08F931F930E94E1320F900F900F90CC
:101F40000F908091C705882331F480911602882371
:101F500011F4B0929D008091B2046AE00E940D3AA3
:101F6000953069F410919C00113049F460E070E004
:101F700080E00E94253510929C001093E201809130
:101F8000B2046AE00E940D3A983009F0D6C0809100
:101F9000E201813009F0CBC048E050E064EC70E031
:101FA000C6010E94FF38EE2481C09101AE014E5F50
:101FB0005F4FBE016F5F7F4FC6010E9404368823CA
:101FC00009F058C00E2D10E04B816A8189810E9472
:101FD000AE349C01F801EE0FFF1FEB52FB4F9183D3
:101FE00080838981882331F088279927821B930B6E
:101FF0009183808380919D00F801EE0FFF1FD8012F
:1020000018968130A1F4AA0FBB1FAB52BB4FEB5205
:10201000FB4F808191818D939C93000F111F0B507A
:102020001B4F80819181F8019183808330C0EB52F6
:10203000FB4F0190F081E02DAA0FBB1FAB52BB4FAD
:102040008D919C911197E817F90714F4ED93FC9387
:10205000000F111FF801EB52FB4F20813181F80175
:10206000EB50FB4F808191818217930784F4318379
:1020700020830DC029E231E03F932F930E9400128C
:1020800068E070E0C6010E948E360F900F90E394D6
:102090006E2D70E0E3E0660F771FEA95E1F76C5371
:1020A0007F4F48E050E0C6010E94FF388C818823B2
:1020B00009F07BCF88E191E09F938F931F9212E00C
:1020C0001F930E94E1328091D7049091D8046AE076
:1020D00070E00E94193A7F936F939F928F9283E0F2
:1020E0008F931F930E94E1328091DD049091DE0472
:1020F0006AE070E00E94193A7F936F938091DB044D
:102100009091DC046AE070E00E94193A7F936F932B
:102110007F926F9288E08F931F930E94E132EDB718
:10212000FEB772960FB6F894FEBF0FBEEDBF1092C9
:10213000E201B0929C0010929D00809172009091FB
:102140007300019709F09CC08091B2046AE00E947C
:102150000D3A913019F49093C00592C0992309F07B
:102160008FC08091C005813009F08AC080917400D1
:10217000909175009C0173E0220F331F7A95E1F76F
:10218000880F991F280F391F8091D5049091D6048C
:102190008217930714F4A89A01C0A898209176009A
:1021A00030917700C99914C0C9019C0153E0220FF6
:1021B000331F5A95E1F7880F991F280F391F809117
:1021C000D7049091D8048217930714F4A99A01C0F8
:1021D000A998E0911602EE23D1F08091DD04909150
:1021E000DE0466EF7FEF0E94193A9B018091DB04C9
:1021F0009091DC046AE070E00E94193A260F371FC4
:1022000080917C0090917D002817390710F0AC9ADE
:1022100001C0AC9820916C0030916D0080918400D9
:10222000909185008217930710F4AE9A01C0AE9882
:102230008091C705482F50E08091880090918900D7
:102240004817590751F42E2F30E080918A00909161
:102250008B002817390709F4AF9A80918C00909170
:102260008D004817590751F42E2F30E080918E00D1
:1022700090918F002817390709F4AF981092C00584
:1022800080919C0190919D01892B41F484E794E019
:1022900090939D0180939C010E94DA310E94D12F7E
:1022A00054CD9B01AC0188E98AB984E0220F331F29
:1022B000441F551F8A95D1F760E074E284EF90E0E7
:1022C0000E942C3A215029B98091D4048B7F8093AD
:1022D000D4040895982F8091D40482FD03C05D9B9F
:1022E000FECF9CB90895FC0108C031968091D404BA
:1022F00082FD03C05D9BFECF9CB990819923A9F715
:1023000008951F920F920FB60F9211242F933F93AF
:102310008F939F93EF93FF938091D40482FD49C0E4
:102320002CB15D9BFECF2CB980FF04C08091D404FA
:10233000826028C0283069F48091E3019091E40123
:10234000892B09F452C08091E3019091E401019737
:102350002BC02D30D1F4E091E301F091E401E3577B
:10236000FA4F80818C3589F0E091E301F091E4012E
:10237000E257FA4F10821092E4011092E30180912B
:10238000D40481608093D40430C08091E3019091A3
:10239000E401C19750F58091E3019091E401FC01C3
:1023A000E257FA4F208301969093E4018093E30172
:1023B0001CC020919E0030919F008091A0009091C0
:1023C000A10001972817390781F08CB1F901819399
:1023D000F0939F00E0939E00EF5BF54031F42053B3
:1023E000304030939F0020939E00FF91EF919F918A
:1023F0008F913F912F910F900FBE0F901F901895C6
:102400006F927F928F929F92AF92BF92CF92DF9204
:10241000EF92FF920F931F93DF93CF93CDB7DEB769
:1024200064970FB6F894DEBF0FBECDBF8E010B5D73
:102430001F4FD801ED90FD908D01BB243E01089403
:10244000611C711C5BE0852E912C8C0E9D1E40E35F
:10245000A42E02C068018601F7019491992309F422
:10246000A0C00894E11CF11C953209F092C0F7015C
:102470000894E11CF11C2491822F90E0C0970A97E8
:1024800010F0822F0BC02B871C86C4010E94E138FC
:10249000B82EF7010894E11CF11C8491893671F083
:1024A0008A3628F4823661F08336A1F620C083375D
:1024B00049F0883769F18F3669F628C04AE029C0AB
:1024C00042E027C0D801ED91FC9108C0319680917F
:1024D000D40482FD03C05D9BFECF9CB990819923FB
:1024E000A9F732E0C32ED12CC00ED11EB4CF22E00A
:1024F000C22ED12CC00ED11EF80190818091D4043F
:1025000082FDA9CF5D9BFECF9CB9A5CF48E001C05D
:1025100040E192E0C92ED12CC00ED11E50E0B30193
:10252000D8018D919C910E94CB3920E030E0A90127
:102530004F5F5F4FF301E20FF31F8081882311F09B
:102540009A01F5CF8B2D90E0281739079CF4B21A29
:10255000F401C4018B0D911D01C0A192E817F90788
:10256000E1F71082B301C4010E949639B401C3019E
:102570000E94A139F30108C031968091D40482FDF4
:1025800003C05D9BFECF9CB990819923A9F7BB2422
:1025900062CF8091D40482FD5DCF5D9BFECF9CB95C
:1025A00059CF64960FB6F894DEBF0FBECDBFCF9162
:1025B000DF911F910F91FF90EF90DF90CF90BF9030
:1025C000AF909F908F907F906F9008950F931F937F
:1025D000DF93CF9300D000D0CDB7DEB7DC01142F4E
:1025E000052F20E030E0AE014F5F5F4FE199FECF55
:1025F000C9018A0F9B1F9FBB8EBBE09A8DB3FA0166
:10260000E20FF31F80832F5F3F4F2430310571F7B6
:1026100029813A814B815C812F3F8FEF38078FEF03
:1026200048078FEF580731F4212F302FC901DB0104
:102630009C01AD01B901CA010F900F900F900F904E
:10264000CF91DF911F910F91089540E050E09A01E2
:10265000220F331F240F351FD901AA0FBB1FAA0F4A
:10266000BB1FAC58BB4F1A968D919C911B97892B21
:1026700009F51C9211961C921197F901EE0FFF1F9C
:10268000EE0FFF1FEA58FB4F108213961C92139710
:10269000F901EE0FFF1FEE0FFF1FE858FB4F1082EE
:1026A00015961C92159716961D921D921D921C92BE
:1026B000199709C01A968D919C911B9701971B96AB
:1026C0009C938E931A974F5F5F4F4530510509F0E9
:1026D000BECF0895AC0120E001C02F5FA22FB0E073
:1026E000FD01EE0FFF1FEE0FFF1FEB51FE4F80812C
:1026F0009181892B91F7253050F451834083AA0FA3
:10270000BB1FAA0FBB1FA951BE4F6D937C930895A9
:1027100020E001C02F5FA22FB0E0FD01EE0FFF1FF0
:10272000EE0FFF1FEB51FE4F0190F081E02D30972F
:1027300019F0E817F90771F7253040F4AA0FBB1F0D
:10274000AA0FBB1FAB51BE4F6D937C930895AC0194
:1027500020E001C02F5FA22FB0E0FD01EE0FFF1FB0
:10276000EE0FFF1FE750FE4F80819181892B91F77B
:10277000253050F451834083AA0FBB1FAA0FBB1F03
:10278000A550BE4F6D937C9308951F920F920FB684
:102790000F9211248F938091B30481608093B304CE
:1027A00010920F0210921002109211021092120257
:1027B0008BB78F7D8BBF8F910F900FBE0F901F90A7
:1027C00018950F931F93CF93DF93009127021091D9
:1027D000280260E070E086E008301807C1F4FB01D1
:1027E000EE0FFF1FE60FF71FEE0FFF1FEE0FFF1F8D
:1027F000EC58FB4F26813781408551858091370207
:1028000090913802A0913902B0913A021AC0083072
:10281000110509F5FB01EE0FFF1FE60FF71FEE0F85
:10282000FF1FEE0FFF1FEC58FB4F268137814085BD
:1028300051858091350290913602A0913702B09176
:102840003802281739074A075B0729F484E690E025
:102850009387828788C06F5F7F4F6530710509F06D
:10286000BACF20E030E0A901440F551F420F531F9B
:10287000EA01CC0FDD1FCC0FDD1FCC58DB4FBE01B2
:102880006A5F7F4F8E819F81A885B9850097A105DA
:10289000B10509F062C0E6E008301E0749F58091F5
:1028A0002102888380912202898380912302FA0188
:1028B000EE0FFF1FEE0FFF1FEA58FB4F8083809142
:1028C00024028B8380912502FA01EE0FFF1FEE0F89
:1028D000FF1FE858FB4F8083809126028D838091F3
:1028E000370290913802A0913902B0913A022BC080
:1028F00008301105C1F58091210288838091220260
:10290000898380912302FA01EE0FFF1FEE0FFF1F54
:10291000EA58FB4F8083809124028B8380912502AB
:10292000FA01EE0FFF1FEE0FFF1FE858FB4F8083E9
:10293000809126028D838091350290913602A0917C
:102940003702B0913802FB0180839183A283B38365
:1029500084E690E09B878A8706C02F5F3F4F253033
:10296000310509F080CFDF91CF911F910F9108952C
:102970001F93AB01BC0120E030E0122FF901EE0FF4
:10298000FF1FE20FF31FEE0FFF1FEE0FFF1FEC58AC
:10299000FB4F86819781A085B18584179507A6078F
:1029A000B70731F02F5F3F4F2530310531F715E084
:1029B000812F1F910895FF920F931F93182F092FB6
:1029C00020E030E0F22EF901EE0FFF1FE20FF31FBF
:1029D000EE0FFF1FEE0FFF1FEC58FB4F8681978114
:1029E000A085B18584179507A607B70731F02F5F3B
:1029F0003F4F2530310531F726C0212F302FC90137
:102A0000DC0140E050E08F2D90E09C01220F331F4D
:102A1000280F391F220F331F220F331FF901E40F34
:102A2000F51FEC58FB4F80818C93FA01EF53FA4F5E
:102A3000808116968C9316974F5F5F4F11964630A4
:102A4000510561F70FC0A1ECB5E0812F902F9C01DB
:102A5000F9019FEF90838D918683319685E0A73CA5
:102A6000B807C1F71F910F91FF900895EF92FF9261
:102A70000F931F93CF93DF937C018B01EC0111C067
:102A8000888199812296F82FE0E0DF01A90FB11D1E
:102A9000CD01A0E0B0E0280F391F4A1F5B1F625034
:102AA00070406230710560F7F801EE7FEE0DFF1D9A
:102AB00000FF08C0908180E0A0E0B0E0280F391F3F
:102AC0004A1F5B1FCA01AA27BB2740705070820FA4
:102AD000931FA41FB51F9D0144275527A070B070F8
:102AE000280F391F4A1F5B1F20953095C901DF91C0
:102AF000CF911F910F91FF90EF900895AF92BF92E9
:102B0000CF92DF92EF92FF920F931F937C015A01B5
:102B10006B010E94DB1488E090E0F70195878487C1
:102B20008701025F1F4F80E490E0F801978386835E
:102B300080E8808780910D0290910E02019690931B
:102B40000E0280930D029483858385E4F7018687C6
:102B5000F8011182A08AB18AC28AD38A8091B40412
:102B60009091B504A091B604B091B704848795877D
:102B7000A687B7871386128620E030E040E050E059
:102B800064E170E0C8010E943615F80192878387DE
:102B90001F910F91FF90EF90DF90CF90BF90AF907B
:102BA00008956F927F928F929F92AF92BF92CF9231
:102BB000DF92EF92FF920F931F93CF93DF938C01DD
:102BC000EC01A296BC01625F7F4FDB011C96CD90A9
:102BD000DD90ED90FC901F9740E050E0E6E1AE2ED6
:102BE000B12C4A9DF0014B9DF00D5A9DF00D112422
:102BF000EB5FFA4F80819181A281B3818C159D0595
:102C0000AE05BF0509F0A1C0248135818881998175
:102C10002817390709F099C088859985AA85BB8549
:102C200080879187A287B3878C819D81AE81BF8188
:102C300084879587A687B7878D85808B83898F3F0B
:102C400011F083E0838BFB01F280E3802CEE3FEFF9
:102C5000E20EF31E8C8590E0807F907095958795AD
:102C600095958795E81AF90A00E010E086E190E072
:102C7000489FF001499FF00D589FF00D1124EB5F24
:102C8000FA4FA484B584C684D784248535854685C7
:102C90005785648475848684978484859585A68504
:102CA000B785B82FAA2799278827AD2CBB24CC2419
:102CB000DD248A0D9B1DAC1DBD1D20703070507031
:102CC000232F342F452F5527820F931FA41FB51F85
:102CD00020E03FEF40E050E0622273228422952200
:102CE000982C872C762C6624860D971DA81DB91D5F
:102CF0008E0D9F1DA01FB11F182F0027FF24EE244B
:102D00002B2F332744275527E20EF31E041F151FD0
:102D10009C01AD01207030705070232F342F452F4F
:102D20005527E20EF31E041F151F8070A070B070AF
:102D3000BA2FA92F982F8827E80EF91E0A1F1B1FEC
:102D4000E486F586068717874FC04F5F5F4F453093
:102D5000510509F046CF20E030E066E170E0269FA3
:102D6000A001279F500D369F500D1124FA01EB5FF3
:102D7000FA4F80819181A281B3810097A105B105AD
:102D800069F5C082D182E282F382D80192968D9158
:102D90009C919397958384838A819B819783868373
:102DA00088859985AA85BB8580879187A287B38707
:102DB0008C819D81AE81BF8184879587A687B787E7
:102DC0008D85808B128A118A83E0838B148AFA01A5
:102DD000E65EFA4F80818E7F808306C02F5F3F4F73
:102DE0002530310509F0BBCFDF91CF911F910F91B5
:102DF000FF90EF90DF90CF90BF90AF909F908F901B
:102E00007F906F900895EF92FF920F931F93CF934F
:102E1000DF937B018C0120E030E0C6E1D0E0622F3F
:102E20002C9FF0012D9FF00D3C9FF00D1124EB5FC6
:102E3000FA4F80819181A281B3818E159F05A007F1
:102E4000B10729F4848195818417950731F02F5FAC
:102E50003F4F2530310519F765E0862FDF91CF917F
:102E60001F910F91FF90EF90089520E001C02F5F18
:102E7000A22FB0E0FD01EE0FFF1FEE0FFF1FE75086
:102E8000FE4F0190F081E02D309789F090913F0244
:102E900080914002E817F90751F7AA0FBB1FAA0F4C
:102EA000BB1FA550BE4FED91FC9180E009950895A0
:102EB000CF93DF93582F40E0282F30E086E190E059
:102EC000289FE001299FD00D389FD00D1124C55FA8
:102ED000DA4F01C04F5FA42FB0E0FD01EE0FFF1FDE
:102EE000EE0FFF1FEB51FE4F0190F081E02D309768
:102EF00069F02881398188819981892F9927322F1A
:102F00002227820F931FE817F90721F7AA0FBB1F8B
:102F1000AA0FBB1FA951BE4FED91FC91852F0995BA
:102F2000DF91CF910895863038F5282F30E086E183
:102F300090E0289FD001299FB00D389FB00D11243B
:102F4000FD01EB5FFA4F108211821282138215820B
:102F500014821782168210861186128613861486B2
:102F6000158616861786108A128A118A138AA65E1B
:102F7000BA4F8C918E7F8C9308954F925F926F928F
:102F80007F928F929F92AF92BF92CF92DF92EF92F9
:102F9000FF920F931F93CF93DF93EC0189E2482EAA
:102FA00082E0582E70E086E190E0689FF001699F12
:102FB000F00D789FF00D1124EB5FFA4F8681978119
:102FC00090933E0280933D028481958190934002CC
:102FD00080933F021092500210924F0281E094EFD2
:102FE00090934C0280934B0280E580934902E484E5
:102FF000F584068517852485358546855785A484FF
:10300000B584C684D78484859585A685B785982E92
:10301000882477246624E12EFF24002711276E0CD4
:103020007F1C801E911E207030705070232F342F13
:10303000452F5527620E731E841E951E80E09FEF5C
:10304000A0E0B0E0A822B922CA22DB22DC2CCB2CE3
:10305000BA2CAA246A0C7B1C8C1C9D1C8089809332
:103060004A02808981FF16C00894611C711C811C72
:10307000911C82E08093510284E08093520281E0AF
:103080008093530284EF8093540280E68093490238
:10309000C4E0D0E0562D442733272227892D9927D5
:1030A000AA27BB27280F391F4A1F5B1FD401C30162
:1030B00080709070B070892F9A2FAB2FBB27280F8C
:1030C000391F4A1F5B1F80E09FEFA0E0B0E068223D
:1030D00079228A229B22B82DA72D962D8827280F8A
:1030E000391F4A1F5B1F20934502309346024093CD
:1030F00047025093480286E190E0689F8001699FF3
:10310000100D789F100D11240B5F1A4FF801808568
:103110009185A285B3858093410290934202A0934A
:103120004302B0934402CE018896D20112969C933A
:10313000129713968C93139786E019968C9340817F
:103140005181628173818BE192E00E947E15109221
:103150004E0210924D0270912B0260912C02685F1A
:103160007F4F8091290290E08F709070880F991F97
:10317000880F991F681B790B625070409B0140E0DB
:1031800050E06E5F7F4F85E392E00E94361590938A
:103190004D0280934E026BE172E0CE01C6960E9412
:1031A000CB26F801108ADF91CF911F910F91FF90EC
:1031B000EF90DF90CF90BF90AF909F908F907F90D7
:1031C0006F905F904F900895AF92BF92CF92DF9231
:1031D000EF92FF920F931F93CF93DF937B018C01AC
:1031E0006A0159018BB78F7D8BBF20E030E0C6E1CB
:1031F000D0E0622F2C9FA0012D9F500D3C9F500DC1
:103200001124FA01EB5FFA4F80819181A281B38191
:103210000097A105B10509F042C02630D0F4108214
:1032200011821282138215821482178216821086EE
:103230001186128613861486158616861786108ABE
:10324000128A118A138AFA01E65EFA4F80818E7F14
:10325000808386E190E0289FF001299FF00D389F40
:10326000F00D1124EB5FFA4FE082F18202831383A9
:10327000D582C482B782A68282ED94E0A0E0B0E05D
:1032800080879187A287B38789E299E0A0E0B0E0C8
:1032900084879587A687B7878EE1838B07C06F5F8A
:1032A0002F5F3F4F2530310509F0A3CF262F30E0A7
:1032B00086E190E0289FF001299FF00D389FF00DE6
:1032C0001124EB5FFA4F82E0808B80E090E00E9457
:1032D000BD178BB780628BBFDF91CF911F910F918C
:1032E000FF90EF90DF90CF90BF90AF900895482F60
:1032F00050E026E130E0429FF001439FF00D529FE5
:10330000F00D1124EB5FFA4F2FEF3FEF328B218B43
:1033100091E1908B682F80E090E00E94BD170895A6
:103320005F926F927F928F929F92AF92BF92CF9255
:10333000DF92EF92FF920F931F93CF93DF9320E0E2
:1033400001C02F5F822E9924F401EE0FFF1FEE0FB4
:10335000FF1FEB51FE4F0190F081E02D309709F4F3
:103360003AC390913F0280914002E817F90749F76C
:1033700090914A02892F8271823109F0C5C08BE198
:1033800092E00E94D115C0913D02D0913E02209161
:10339000350230913602409137025091380260E098
:1033A00070E006E110E0609FF001619FF00D709FFA
:1033B000F00D1124EB5FFA4F80819181A281B381DE
:1033C00082179307A407B50729F4848195818C1788
:1033D0009D0731F06F5F7F4F6530710521F7FBC2AC
:1033E000262F30E086E190E0289F4001299F900C35
:1033F000389F900C112485E095E0880E991E8EE18F
:10340000D40153968C9353971C962D913D914D91D9
:103410005C911F971C96ED90FD900D911C911F974C
:103420001C96AD90BD90CD90DC901F971C968D9111
:103430009D910D90BC91A02D252F33274427552712
:10344000B82FAA2799278827280F391F4A1F5B1FE3
:103450002F5F3F4F4F4F5F4F80E090E0AFEFB0E006
:10346000E822F9220A231B23EF2CF02E012F11272B
:103470002E0D3F1D401F511F80E09FEFA0E0B0E0E8
:10348000A822B922CA22DB22DC2CCB2CBA2CAA24FB
:103490002A0D3B1D4C1D5D1D122F0027FF24EE241D
:1034A000852F9927AA27BB27E80EF91E0A1F1B1F85
:1034B000DA01C90180709070B070892F9A2FAB2FFC
:1034C000BB27E80EF91E0A1F1B1F207040705070AA
:1034D000542F432F322F2227E20EF31E041F151FF5
:1034E000D4011C96ED92FD920D931C931F9780E1E1
:1034F00050968C9380E090E00E94BD1781E090E0B0
:10350000F401928B818B67C2923009F045C08BE148
:1035100092E00E94D115C0913D02D0913E022091CF
:10352000350230913602409137025091380260E006
:1035300070E006E110E0609FF001619FF00D709F68
:10354000F00D1124EB5FFA4F80819181A281B3814C
:1035500082179307A407B50729F4848195818C17F6
:103560009D0731F06F5F7F4F6530710521F733C2E2
:10357000262F30E086E190E0289FF001299FF00D92
:10358000389FF00D1124EB5FFA4F82E1808B80E0D1
:1035900090E00E94BD171FC260913D0270913E02F3
:1035A0002091350230913602409137025091380215
:1035B000C0E0D0E006E110E05C2EC09FF001C19FAA
:1035C000F00DD09FF00D1124EB5FFA4F80819181B7
:1035D000A281B38182179307A407B50729F48481D8
:1035E00095818617970729F02196C530D10521F7D7
:1035F000E9C18BE192E00E94D1156C2E772486E11F
:1036000090E0689EF001699EF00D789EF00D112407
:10361000EB5FFA4F808980FDBAC0B6C020917F056C
:10362000309180054091810550918205E0907F05A1
:10363000F09080050091810510918205A0907F0592
:10364000B0908005C0908105D090820580917F0563
:1036500090918005A0918105B0918205252F332797
:1036600044275527B82FAA2799278827280F391FBD
:103670004A1F5B1F2F5F3F4F4F4F5F4F80E090E02F
:10368000AFEFB0E0E822F9220A231B23EF2CF02E43
:10369000012F11272E0D3F1D401F511F80E09FEF6E
:1036A000A0E0B0E0A822B922CA22DB22DC2CCB2C7D
:1036B000BA2CAA242A0D3B1D4C1D5D1D122F00277C
:1036C000FF24EE24852F9927AA27BB27E80EF91E91
:1036D0000A1F1B1FDA01C90180709070B070892F1A
:1036E0009A2FAB2FBB27E80EF91E0A1F1B1F207055
:1036F00040705070542F432F322F2227E20EF31EBA
:10370000041F151FE0927F05F0928005009381054C
:10371000109382058091830580FF08C080E180932B
:10372000830565E080E090E00E94BD17109273056C
:103730001092740510927505109276051092780516
:103740001092770510927A051092790510927B05F8
:1037500010927C0510927D0510927E0510927F05D7
:1037600010928005109281051092820510928305B7
:103770001092850510928405109286058091880527
:103780008E7F8093880527C1808982FFB0C086E143
:1037900090E0689EE001699ED00D789ED00D1124C6
:1037A000CB5FDA4F2C853D854E855F85EC84FD84AB
:1037B0000E851F85AC84BD84CE84DF848C859D8579
:1037C000AE85BF85252F332744275527B82FAA2735
:1037D00099278827280F391F4A1F5B1F2F5F3F4FEC
:1037E0004F4F5F4F80E090E0AFEFB0E0E822F9226A
:1037F0000A231B23EF2CF02E012F11272E0D3F1D26
:10380000401F511F80E09FEFA0E0B0E0A822B92246
:10381000CA22DB22DC2CCB2CBA2CAA242A0D3B1D7D
:103820004C1D5D1D122F0027FF24EE24852F9927A4
:10383000AA27BB27E80EF91E0A1F1B1FDA01C901C0
:1038400080709070B070892F9A2FAB2FBB27E80E35
:10385000F91E0A1F1B1F207040705070542F432FF9
:10386000322F2227E20EF31E041F151FEC86FD8661
:103870000E871F87888980FF14C0880C991C880CCC
:10388000991CA7EEB1E08A0E9B1ED401ED91FC912C
:10389000852D099580E1888B652D80E090E00E9460
:1038A000BD1786E190E0689ED001699EB00D789EBC
:1038B000B00D1124FD01EB5FFA4F108211821282CC
:1038C0001382158214821782168210861186128640
:1038D00013861486158616861786108A128A118A10
:1038E000138AA65EBA4F8C918E7F8C9374C08089A8
:1038F00083FF17C0808984FF14C081899289019653
:10390000928B818B88E1808B880C991C880C991C88
:10391000E7EEF1E08E0E9F1ED401ED91FC918C2F0D
:103920004FC086E190E0689E9001699E300D789EC0
:10393000300D1124F901EB5FFA4F808984FF0AC032
:10394000F901E65EFA4F808180FD04C080818160CC
:10395000808341C086E190E0689EF001699EF00D91
:10396000789EF00D1124DF01AB5FBA4F50968C9119
:10397000509784FF30C0E65EFA4F808180FF2BC0F5
:1039800051968D919C9152978F5F9F4F21F180E1CD
:1039900050968C93509751968D919C915297019689
:1039A00052969C938E935197880C991C880C991C65
:1039B00087EE91E0880E991ED401ED91FC91852D42
:1039C000099509C08BE192E00E94D11580914A02CD
:1039D000857009F023CEDF91CF911F910F91FF9059
:1039E000EF90DF90CF90BF90AF909F908F907F909F
:1039F0006F905F900895AF92BF92CF92DF92EF9257
:103A0000FF920F931F93CF93DF9300E010E096E1B6
:103A1000C92ED12C83E0A82EB4E1BB2E0C9D7001E1
:103A20000D9DF00C1C9DF00C1124E701CB5FDA4FCB
:103A30008B898823D1F588819981AA81BB810097E0
:103A4000A105B105C1F1AB8A8C898F5F8C8B815048
:103A5000863038F18BB78F7D8BBFB88A602F80E0BE
:103A600090E00E94BD178BB780628BBF18821982CD
:103A70001A821B821D821C821F821E821886198652
:103A80001A861B861C861D861E861F86188A1A8A21
:103A9000198A1B8AF701E65EFA4F80818E7F808348
:103AA0000AC0802F0E94581706C08B898F3F19F0DB
:103AB0008B8981508B8B0F5F1F4F0530110509F0EB
:103AC000ADCFDF91CF911F910F91FF90EF90DF90DD
:103AD000CF90BF90AF9008958F929F92AF92BF9278
:103AE000CF92DF92EF92FF920F931F935C01FDE361
:103AF000CF2EF2E0DF2EECEEEE2EEFEFFE2EEC0CF2
:103B0000FD1C70933D0260933E0250933F02409330
:103B1000400208969093410280934202C5014C9660
:103B2000F7019283838381E181874EED842E4FEFED
:103B3000942E8C0C9D1CB901A801C4010E947E1515
:103B40001092440210924302F70172816381685F10
:103B50007F4F808190E08F709070880F991F880F41
:103B6000991F681B790B675F7F4F9B0140E050E016
:103B700069507040C60108970E9436159093430221
:103B800080934402B401C5018A960E94CB261F91FE
:103B90000F91FF90EF90DF90CF90BF90AF909F90EC
:103BA0008F900895AF92BF92CF92DF92EF92FF92E3
:103BB0000F931F9339E2A32E32E0B32EB4E1CB2E44
:103BC000D12CCA0CDB1C40933D02F6012183F58207
:103BD000E482178306831382128220E034E5309357
:103BE0002C0220932B0221E02093320222EF3FEFA0
:103BF000A20EB31EAB01BC01C5010E947E157091DF
:103C00002B0260912C028091290290E08F709070BD
:103C1000880F991F880F991F681B790B20E030E0EF
:103C200040E050E0C6010E943615F601928383837E
:103C3000B50182E690E00E94CB261F910F91FF9084
:103C4000EF90DF90CF90BF90AF9008950F931F93A8
:103C50008091290290912A028050914009F0C1C0C0
:103C600080912B0290912C02089709F0BAC08091A4
:103C70002D02863009F0B5C080912E02843009F003
:103C8000B0C02091410230914202409143025091D4
:103C900044028091B4049091B504A091B604B0910F
:103CA000B704281739074A075B0709F09AC08091C3
:103CB0002F0290913002E1E080309E0709F08CC025
:103CC0000E94E1134091370250913802609139020D
:103CD00070913A0209E212E00E501040C8010E94B1
:103CE000DB1488E096E0F8019587848740913702DD
:103CF000509138026091390270913A0220E030E030
:103D0000F901EE0FFF1FE20FF31FEE0FFF1FEE0F83
:103D1000FF1FEC58FB4F86819781A085B1858417E2
:103D20009507A607B70731F02F5F3F4F25303105C4
:103D300039F725C0A9E2B2E040E050E0822F90E0E0
:103D40009C01220F331F280F391F220F331F220F10
:103D5000331FF901E40FF51FEC58FB4F8081529699
:103D60008C935297FA01EF53FA4F808118968C93F7
:103D700018974F5F5F4F11964630510551F780E01D
:103D800092E09093300280932F02809137029091BD
:103D90003802A0913902B0913A0280934102909387
:103DA0004202A0934302B09344028091B4049091E4
:103DB000B504A091B604B091B704809337029093F4
:103DC0003802A0933902B0933A026BE172E08CE3BF
:103DD00090E00E94CB2605C08050924011F40E94D2
:103DE000E1131F910F910895EF92FF920F931F938C
:103DF000809127029091280226E08830920719F4DA
:103E00000E94261E9EC0089709F09BC0209139028F
:103E100030913A0240913B0250913C028091B404AF
:103E20009091B504A091B604B091B7042817390752
:103E30004A075B0709F085C00E94E11380913202B6
:103E4000813009F074C080913D028823C1F0883030
:103E500009F077C0E0904102F090420200914302E5
:103E600010914402609135027091360280913702C0
:103E70009091380220E040E00E94D21D62C0809103
:103E8000350290913602A0913702B09138029070BD
:103E9000A070B070BF93AF939F938F938EE192E029
:103EA0009F938F930E9400128091360290E0A0E0D1
:103EB000B0E0BF93AF939F938F938AE192E09F937B
:103EC0008F930E9400128091370290E0A0E0B0E052
:103ED000BF93AF939F938F9386E192E09F938F93CD
:103EE0000E9400128091350290913602A091370213
:103EF000B09138028B2F9927AA27BB27BF93AF9386
:103F00009F938F9382E192E09F938F930E94001280
:103F100088E092E09F938F930E9400128DB79EB726
:103F20004A960FB6F8949EBF0FBE8DBF0AC086306A
:103F300011F40E94901980913202813111F40E9493
:103F400035171F910F91FF90EF9008958091B30462
:103F500081FF4BC00E94FB1C40E050E09A01220F01
:103F6000331F240F351FD901AA0FBB1FAA0FBB1F78
:103F7000AC58BB4F1A968D919C911B97892B09F5D4
:103F80001C9211961C921197F901EE0FFF1FEE0F74
:103F9000FF1FEA58FB4F108213961C921397F901EA
:103FA000EE0FFF1FEE0FFF1FE858FB4F1082159614
:103FB0001C92159716961D921D921D921C92199790
:103FC00009C01A968D919C911B9701971B969C9303
:103FD0008E931A974F5F5F4F4530510509F0BECF62
:103FE0008091B3048D7F8093B3048091B30480FDEE
:103FF0000DC008956BE172E088E592E00E94BC2755
:10400000FC01E85EFD4F10820E94F41EB29BF2CFCD
:104010008091B3048E7F8093B3048BB780628BBF93
:1040200008958F929F92AF92BF92CF92DF92EF92BC
:10403000FF920F931F93DF93CF93CDB7DEB7AA976D
:104040000FB6F894DEBF0FBECDBF4B015C018E01F1
:10405000015F1F4F8091B4049091B504A091B60404
:10406000B091B70488259925AA25BB252091D004B5
:104070003091D1044091D2045091D30482239323F0
:10408000A423B5230097A105B10519F475016401B6
:1040900008C0C090B804D090B904E090BA04F09081
:1040A000BB0488E096E09E878D87B701A601CE010C
:1040B00001960E94DB148091B4049091B504A09104
:1040C000B604B091B704F80186879787A08BB18BAF
:1040D000C08ED18EE28EF38EA1ECB5E08D918087FB
:1040E000128A319625E0A73CB207C1F720E031E003
:1040F000F8013183208388E090E09383828386E017
:10410000848384E0858337832683BE016F5F7F4F7E
:104110008AE290E00E94CB2610E05AC0422FF901BB
:10412000EE0FFF1FE20FF31FEE0FFF1FEE0FFF1F3B
:10413000EC58FB4F86819781A085B185881599053C
:10414000AA05BB0531F02F5F3F4F2530310531F710
:1041500045E020E030E0F901EE0FFF1FE20FF31F12
:10416000EE0FFF1FEE0FFF1FEC58FB4F868197816C
:10417000A085B1858C159D05AE05BF0531F02F5F7B
:104180003F4F2530310539F73AC0453021F5822FB0
:1041900090E0FC01EE0FFF1FE80FF91FEE0FFF1F6D
:1041A000EE0FFF1FEC58FB4F86829782A086B186E8
:1041B00012C080E090E000000196F7E280319F0796
:1041C000D1F70E94A61F1F5F143111F480E004C0D4
:1041D00020E030E0A3CF81E0AA960FB6F894DEBFCE
:1041E0000FBECDBFCF91DF911F910F91FF90EF9048
:1041F000DF90CF90BF90AF909F908F900895453003
:10420000C1F2E9CFDF93CF9300D000D0CDB7DEB7B6
:104210000E94D421FE0131962EE130E0E199FECFDB
:104220003FBB2EBBE09A8DB381932F5F3F4F22326D
:104230003105A1F789819A81AB81BC818F3F2FEF36
:1042400092072FEFA2072FEFB20721F480EC98EA34
:10425000A0E0B3E68093B4049093B504A093B604B1
:10426000B093B704FE01319622E230E0E199FECF2F
:104270003FBB2EBBE09A8DB381932F5F3F4F263219
:104280003105A1F789819A81AB81BC818F3F2FEFE6
:1042900092072FEFA2072FEFB20721F48FEF9FEFC6
:1042A000AFEFB0E08093D0049093D104A093D204F8
:1042B000B093D304FE01319626E230E0E199FECFBF
:1042C0003FBB2EBBE09A8DB381932F5F3F4F2A32C5
:1042D0003105A1F789819A81AB81BC818F3F2FEF96
:1042E00092072FEFA2072FEFB20721F480EC98EA94
:1042F000A0E0B3E08093B8049093B904A093BA040B
:10430000B093BB041092C10582E28093C20589EF8D
:104310008093C30581E08093C4051092C505809306
:10432000C60585E492E09F938F930E9400120E943D
:104330003B278CE392E09F938F930E9400126BE1E6
:1043400072E08CE390E00E94CB266BE172E08CE39C
:1043500090E00E94CB268091B70490E09F938F93CA
:104360008091B60490E09F938F938091B50490E084
:104370009F938F938091B40490E09F938F9381E2F9
:1043800092E09F938F930E9400128DB79EB70E9676
:104390000FB6F8949EBF0FBE8DBF0F900F900F9079
:1043A0000F90CF91DF9108958EB58D608EBD1DBCAD
:1043B0001CBC88E09DE39BBD8ABD89B7806189BF35
:1043C00008951F920F920FB60F9211242F933F93CF
:1043D0004F935F936F937F938F939F93AF93BF930D
:1043E000EF93FF9380918A0590918B05A0918C05A6
:1043F000B0918D050196A11DB11D80938A05909302
:104400008B05A0938C05B0938D0580910F02909140
:104410001002A0911102B09112020196A11DB11DCE
:1044200080930F0290931002A0931102B093120296
:104430000197A109B109815B9440A040B04050F0C0
:1044400010920F021092100210921102109212029A
:104450000E9402218091B30482608093B304809112
:104460009C0190919D01019790939D0180939C01E7
:10447000FF91EF91BF91AF919F918F917F916F913C
:104480005F914F913F912F910F900FBE0F901F9012
:104490001895E0E0F0E009940895AC018091BC0427
:1044A0009091BD04892BF1F020E030E0E199FECF3E
:1044B000F901EE0FFF1FE454FB4F0190F081E02D56
:1044C000E199FECFC901840F951F9FBB8EBBEDBB49
:1044D0000FB6F894E29AE19A0FBE2F5F3F4F243057
:1044E000310521F7089508958091BE049091BF048D
:1044F0002091BC043091BD049F938F933F932F93E1
:1045000081E394E09F938F930E9400124091BE0438
:104510005091BF048DB79EB706960FB6F8949EBF14
:104520000FBE8DBF4130510561F485B32091BC04AD
:104530003091BD0402C0440F551F2A95E2F7842B29
:1045400014C08091BE049091BF04892B91F445B3AF
:104550002091BC043091BD0481E090E002C0880F3E
:10456000991F2A95E2F78095842385BB85B385BB87
:10457000089581E194E09F938F930E9400120F9021
:104580000F90089583B323B390E082709070959557
:1045900087959F938F9330E0217030703F932F93D6
:1045A00086E794E09F938F930E94001283B323B316
:1045B00043B390E08071907064E0959587956A951B
:1045C000E1F79F938F9330E02870307053E035957A
:1045D00027955A95E1F73F932F9350E04470507020
:1045E00055954795559547955F934F938DE594E085
:1045F0009F938F930E94001223B383B343B3221F70
:104600002227221F30E03F932F9390E08074907018
:1046100026E0959587952A95E1F79F938F9350E033
:104620004072507095E0559547959A95E1F75F93E4
:104630004F9384E494E09F938F930E9400128DB770
:104640009EB746960FB6F8949EBF0FBE8DBF0895D5
:104650000F931F9389B329B349B369B390E088706E
:104660009070A3E095958795AA95E1F79F938F9316
:1046700030E02470307035952795359527953F9318
:104680002F9350E042705070559547955F934F932C
:1046900070E0617070707F936F9381E994E09F93F5
:1046A0008F930E94001280916800909169009F93FF
:1046B0008F9384E090E09F938F9307E814E01F931B
:1046C0000F930E94001280916A0090916B009F935B
:1046D0008F9385E090E09F938F931F930F930E9499
:1046E000001280916C0090916D009F938F9386E0F3
:1046F00090E09F938F931F930F930E9400128DB7AA
:104700009EB74C960FB6F8949EBF0FBE8DBF1F91FB
:104710000F9108958F929F92AF92BF92CF92DF92A6
:10472000EF92FF920F931F93CF93DF93EE24FF241A
:104730008CEB882E84E0982E0AEBA02E04E0B02E9D
:1047400012EBC12E14E0D12E8701000F111F0B5266
:104750001B4FF801C081D181FF92EF929F928F92FF
:104760000E940012F801808191810F900F900F90AC
:104770000F9097FF09C0BF92AF920E940012D09590
:10478000C195DF4F0F900F90CE016AE070E00E945C
:10479000193A9F938F93CE016AE070E00E94193A14
:1047A0007F936F93DF92CF920E9400120894E11CD6
:1047B000F11C8DB79EB706960FB6F8949EBF0FBE3C
:1047C0008DBF98E0E916F10409F0BECFDF91CF91DB
:1047D0001F910F91FF90EF90DF90CF90BF90AF901F
:1047E0009F908F900895EF92FF921F93CF93DF9346
:1047F000C1E5D2E098ECE92E94E0F92EFE01219675
:104800001491812F90E09F938F93FF92EF920E94DB
:1048100000120F900F900F900F90112379F7DF91F6
:10482000CF911F91FF90EF9008958091B20490E096
:104830009F938F938091160290E09F938F93809126
:10484000C70590E09F938F938BEC94E09F938F9399
:104850000E9400128DB79EB708960FB6F8949EBFBF
:104860000FBE8DBF0895E091BC04F091BD0480910E
:10487000BE049091BF04A0E6B0E0EE0FFF1FEA0F68
:10488000FB1F918380838091BC049091BD04209193
:10489000BC043091BD04880F991FA80FB91F8D91DA
:1048A0009C919F938F933F932F9381EE94E09F93DE
:1048B0008F930E9400128DB79EB706960FB6F8949C
:1048C0009EBF0FBE8DBF08950E94DA31089586E223
:1048D00090E00E944D2240EC58EA60E073E086E2EE
:1048E00090E00E94E6126093B8047093B90480933C
:1048F000BA049093BB048091BB0490E09F938F9384
:104900008091BA0490E09F938F938091B90490E0D6
:104910009F938F938091B80490E09F938F9382E050
:1049200095E09F938F930E9400128DB79EB70A96D1
:104930000FB6F8949EBF0FBE8DBF089582E290E03F
:104940000E944D224FEF5FEF6FEF70E082E290E048
:104950000E94E6126093D0047093D1048093D20435
:104960009093D3048091D30490E09F938F93809190
:10497000D20490E09F938F938091D10490E09F9315
:104980008F938091D00490E09F938F938FE195E077
:104990009F938F930E9400128DB79EB70A960FB611
:1049A000F8949EBF0FBE8DBF089582E390E00E94F1
:1049B0004D224DE455E266E07BE382E390E00E9405
:1049C000E612609317027093180280931902909375
:1049D0001A0280911A0290E09F938F93809119029E
:1049E00090E09F938F938091180290E09F938F9314
:1049F0008091170290E09F938F938AE395E09F93B5
:104A00008F930E9400128DB79EB70A960FB6F89446
:104A10009EBF0FBE8DBF08958EE190E00E944D2293
:104A200040EC58EA60E073E68EE190E00E94E61206
:104A30006093B4047093B5048093B6049093B70464
:104A40008091B70490E09F938F938091B60490E09B
:104A50009F938F938091B50490E09F938F93809163
:104A6000B40490E09F938F9388E595E09F938F9394
:104A70000E9400128DB79EB70A960FB6F8949EBF9B
:104A80000FBE8DBF0895CF92DF92EF92FF920F93EA
:104A90001F93DF93CF9300D0CDB7DEB79A8389837E
:104AA00062EA70E0CE0101960E94B3396C0110E019
:104AB0000FC01F5FE12FF0E0EE0FFF1FEE0FFF1F93
:104AC000E451FF4F80819181892B11F480E03AC03D
:104AD000E12EFF24F701EE0FFF1FEE0FFF1FE45141
:104AE000FF4FB601808191810E943939892B09F7E6
:104AF00000E010E06E010894C11CD11C64EA70E073
:104B0000C6010E94B33940E050E060E070E00E94CE
:104B1000B237F801EE0FFF1FE454FB4F718360833F
:104B20000F5F1F4F0A30110549F7EE0CFF1CEE0C0A
:104B3000FF1C8EEE90E0E80EF91ED701ED91FC917E
:104B4000099581E00F900F90CF91DF911F910F9108
:104B5000FF90EF90DF90CF900895CF93DF93EC011B
:104B6000DB0134C086958695FD0181938881837031
:104B70008295807F11968C9311979981992321F4C6
:104B8000DF01119642E026C092959F70890F119621
:104B90008C93119789818F70880F880F12968C9350
:104BA00012979A81992319F4139641E013C09295B4
:104BB000969596959370890F12968C9312978A8189
:104BC0008F7313968C93139714962396888188235A
:104BD00049F640E01C92EB0108C0E881F0E0EF7379
:104BE000F070EF58FA4FE491E993CA17DB07A9F781
:104BF000FD01842F9DE302C0919381508823E1F74A
:104C0000A40FB11D1C92DF91CF910895FC01C498AF
:104C10008AE38FB9779BFECF07C01FB8779BFECF83
:104C20008FB181936150704061157105B1F7C49ADD
:104C30000895FC01C4988AE78FB9779BFECF8191D4
:104C40008FB961507040779BFECF61157105B9F740
:104C5000C49A0895282F2F712B31F0F4982F907655
:104C60008091F1059817C1F09093F105C4988FEBEE
:104C70008FB9779BFECF83E08FB9779BFECFC49A25
:104C8000C4988FE98FB9779BFECF929596959770D0
:104C90009FB9779BFECFC49A2064C4982FB9779BA5
:104CA000FECF6FB9779BFECFC49A0895C498962F14
:104CB0009F71982B9FB9779BFECF1FB8779BFECF34
:104CC00067FF03C01FB8779BFECF8FB1C49A0895CA
:104CD000682F90E08F7190704B97F4F4962F907638
:104CE0008091F1059817C1F09093F105C4988FEB6E
:104CF0008FB9779BFECF83E08FB9779BFECFC49AA5
:104D0000C4988FE98FB9779BFECF9295969597704F
:104D10009FB9779BFECFC49A80E00E9456260895E3
:104D20000F931F93162F072F682F84ED0E942A26BA
:104D3000612F86ED0E942A26602F87ED0E942A2689
:104D40008AEE0E94682680FDFBCF1F910F91089587
:104D50000F931F93682F84ED0E942A2661E082ED55
:104D60000E942A268AEE0E94682680FDFBCF60E022
:104D700082ED0E942A2689ED0E946826182F00E005
:104D800088ED0E946826282F30E0202B312BC901A6
:104D90001F910F910895CF92DF92EF92FF920F93A0
:104DA0001F93CF93DF938C016B01C0E0D0E080EACA
:104DB000E82E8FE0F82E8FE10E94682683FF07C05F
:104DC000C7010197F1F72196C233D105A1F760E041
:104DD00082E00E942A266AE183E00E942A26602F50
:104DE00086E00E942A26C8018050964E692F87E0EF
:104DF0000E942A26C4988AE78FB9779BFECF1FB8F6
:104E0000779BFECFC49AC4988AE78FB9779BFECF71
:104E1000F60181916F018FB901501040779BFECF51
:104E200001151105A9F7C49AC4988FE98FB9779B2A
:104E3000FECF80E88FB9779BFECFC49AC4988FEBE2
:104E40008FB9779BFECF80E88FB9779BFECFC49A4E
:104E5000C4988FE98FB9779BFECF8CE08FB9779B91
:104E6000FECFC49ADF91CF911F910F91FF90EF90E9
:104E7000DF90CF900895CF93DF938FEF8093F1056C
:104E8000BC9A87B3896087BBC49AC79A87B3886B7B
:104E900087BBBE9880E58DB981E08EB980E090E057
:104EA000A0E0B0E000000196A11DB11D80342DE00E
:104EB000920723E0A20720E0B207A1F7C4988FEF82
:104EC0008FB9779BFECF8FEF8FB9779BFECFC49AB8
:104ED00080E090E0A0E0B0E000000196A11DB11DCF
:104EE0008034EDE09E07E3E0AE07E0E0BE07A1F707
:104EF000C0E0D0E001C021968DE10E94682680FDCF
:104F000004C0FDEFC83EDF07B1F71092F305109221
:104F1000F205C4EBD5E0FE0164912197FE01849176
:104F20000E942A262396F5E0C03EDF07A1F760E045
:104F300071E080E10E94902660EC8BE10E942A26BD
:104F4000C4988FE98FB9779BFECF84E08FB9779BA8
:104F5000FECFC49A6AE477E384E10E9490268FE151
:104F60000E9468268093F00582E70E94682680935D
:104F7000F005DF91CF910895EF92FF920F931F9369
:104F8000CF93DF93EC017B018CE10E94682686FDC4
:104F900008C089E30E946826882319F400E010E025
:104FA00073C06091F2057091F30580E00E942A269B
:104FB0008091F2059091F305692F81E00E942A26E5
:104FC00060E08AE30E94562690E09093F305809378
:104FD000F2050091F2051091F30560E08AE30E946A
:104FE0005626382F20E0202B312B3093F3052093C9
:104FF000F20560E08AE30E945626082F10E060E088
:105000008AE30E945626382F20E0022B132B60E003
:105010008AE30E94562660E08AE30E945626C01763
:10502000D10708F48E01B801C7010E9406268091BD
:10503000F2059091F3058091F2059091F3050197A7
:1050400080509A4130F06FEF8CE00E942A2669E18F
:105050000EC06091F2057091F30561508CE00E94E2
:105060002A268091F2059091F3050197692F8DE032
:105070000E942A26C4988EE98FB9779BFECF80E4E0
:105080008FB9779BFECFC49AC801DF91CF911F9152
:105090000F91FF90EF900895C4988FB9779BFECF42
:1050A0006FB9779BFECFC49A089590E02DE030E071
:1050B000A901849F9001859F300D949F300D11248C
:1050C000E0E1F6E0DF01A20FB31F8C91897F8160E0
:1050D0008C933897E20FF31F138212821182108291
:1050E0008C91877F8C9384EF95E09583848388E807
:1050F00091E0928781878DE891E09487838782E9A8
:1051000091E09783868308952F923F924F925F920A
:105110006F927F928F929F92AF92BF92CF92DF92C7
:10512000EF92FF920F931F93DF93CF93CDB7DEB72C
:1051300060970FB6F894DEBF0FBECDBF888B282EC8
:1051400033248DE090E0289E9001299E300D389EFA
:10515000300D1124F901E05FF94F808180FD07C017
:10516000F901E85FF94F84E49AE19383828386E151
:1051700090E0289EF001299EF00D389EF00D11243C
:10518000EB5FFA4F8089882379F48DE090E0289EC8
:10519000F001299EF00D389EF00D1124E85FF94FC3
:1051A00080819181938382838DE090E0289EF0013D
:1051B000299EF00D389EF00D1124E85FF94F828191
:1051C000938191838083AA24BB2442E0842E912C76
:1051D0008E0E9F1E3E010894611C711C31E0432E0F
:1051E000512CF40100811181B8016F5F7F4F7183F1
:1051F0006083F801849121E5C22E22E0D22ECA0CF0
:10520000DB1CF6018083853209F07CC243E050E06C
:1052100088E291E00E940F39892B89F50C5F1F4FBE
:10522000F80184910F5F1F4FF80134913051FAE07B
:105230008F9FC0011124380FE32FF0E0EE0FFF1F06
:10524000E05AFF4F4AE050E0B301808191810E9413
:10525000CB396FE070E0C3010E94A839082F10E03D
:10526000A801B301C6010E94273901501040A00EC9
:10527000B11EF40180819181059691838083F401B0
:105280006081718143E050E08CE291E00E940F392F
:10529000892B09F044C04AE050E0B3018091C70572
:1052A00090E00E94CB39B30189E496E00E94A139D5
:1052B00060E371E089E496E00E94963980911602DD
:1052C0008A3030F462E371E089E496E00E94963916
:1052D0004AE050E0B3018091160290E00E94CB3981
:1052E000B30189E496E00E9496396AE070E089E4AF
:1052F00096E00E94A839082F10E0A80169E476E042
:10530000C5018F5A9D4F0E94273901501040A00EB1
:10531000B11EF40180819181039691838083F40111
:105320006081718143E050E084E391E00E940F3995
:10533000892B09F048C04AE050E0B3018091880011
:10534000909189000E94CB39B30189E496E00E94D4
:10535000A13960E371E089E496E00E94963980917A
:105360008A0090918B000A9730F462E371E089E43F
:1053700096E00E9496394AE050E0B30180918A009D
:1053800090918B000E94CB39B30189E496E00E9492
:1053900096396AE070E089E496E00E94A839082F07
:1053A00010E0A80169E476E0C5018F5A9D4F0E9484
:1053B000273901501040A00EB11EF4018081918167
:1053C000039691838083F4016081718143E050E012
:1053D00088E391E00E940F39892B09F048C04AE028
:1053E00050E0B30180918C0090918D000E94CB39E8
:1053F000B30189E496E00E94A13960E371E089E499
:1054000096E00E94963980918E0090918F000A97C5
:1054100030F462E371E089E496E00E9496394AE054
:1054200050E0B30180918E0090918F000E94CB39A3
:10543000B30189E496E00E9496396AE070E089E45D
:1054400096E00E94A839082F10E0A80169E476E0F0
:10545000C5018F5A9D4F0E94273901501040A00E60
:10546000B11EF40180819181039691838083F401C0
:105470000081118143E050E0B8018CE391E00E948B
:105480000F39892B09F06BC00D5F1F4FF801849114
:105490000F5F1F4FF80164916051FAE08F9FC001C8
:1054A0001124680FE62FF0E0EE0FFF1FEB52FB4FC9
:1054B000C080D180D7FE0DC0D094C194D108D394C0
:1054C0002DE22983F501EF5AFD4F20830894A11C9A
:1054D000B11CC6016AE070E00E94193ACB014AE0B3
:1054E00050E0B3010E94CB396FE070E0C3010E942D
:1054F000A839082FF301E80FF11D4CE240830F5F3C
:1055000010E0A801B301C5018F5A9D4F0E942739B1
:105510007501E00EF11EC6016AE070E00E94193AC2
:105520004AE050E0B3010E94CB396FE070E0C30164
:105530000E94A839082F10E0A801B301C7018F5AB3
:105540009D4F0E94273958010894A108B108AE0C5C
:10555000BF1CF40180819181059691838083F401C1
:105560000081118144E050E0B80180E491E00E94A4
:105570000F39892B09F052C00B5F1F4FF80184913E
:10558000805301501040F8016491633481F0643419
:1055900028F4613441F0623421F507C0643481F0AD
:1055A0006835F9F417C02BB303C028B30AC025B37C
:1055B000A20102C0440F551F8A95E2F7CA0108C034
:1055C00022B3F20102C0EE0FFF1F8A95E2F7CF016E
:1055D000282302C020917200222319F06FE67AE19D
:1055E00002C06DE67AE1C3010E9408396FE070E005
:1055F000C3010E94A839082F10E0A801B301C5011A
:105600008F5A9D4F0E94273901501040A00EB11EA5
:10561000F40180819181069691838083F401008159
:10562000118143E050E0B80185E491E00E940F3918
:10563000892B09F04CC00C5F1F4FF80184918053F7
:1056400001501040F8016491623461F0633418F441
:10565000613401F505C0633439F06434D9F40DC008
:1056600029B303C026B30AC023B3A20102C0440F6A
:10567000551F8A95E2F7CA0108C020B3F20102C0A3
:10568000EE0FFF1F8A95E2F7CF01282319F063E69A
:105690007AE102C069E57AE1C3010E9408396FE04E
:1056A00070E0C3010E94A839082F10E0A801B301DF
:1056B000C5018F5A9D4F0E94273901501040A00EFE
:1056C000B11EF40180819181059691838083F4015C
:1056D0006081718143E050E089E491E00E940F39DC
:1056E000892B81F486E190E0289EF001299EF00D3F
:1056F000389EF00D1124EB5FFA4F8DEF9FEF928BE8
:10570000818B09C00894A11CB11CFCE8AF16F1E024
:10571000BF0608F466CD86E190E0289EF001299E40
:10572000F00D389EF00D1124EB5FFA4F88E1808B6D
:105730006889C5010E94BD1760960FB6F894DEBF58
:105740000FBECDBFCF91DF911F910F91FF90EF90D2
:10575000DF90CF90BF90AF909F908F907F906F9091
:105760005F904F903F902F9008952F923F924F92CD
:105770005F927F928F929F92AF92BF92CF92DF9271
:10578000EF92FF920F931F93CF93DF93782E809128
:105790004902E82EFF2420EFE222FF24F594E7944B
:1057A000F594E79467E77AE1C701835C9D4F0E9417
:1057B0007139892B81F0272D30E08DE090E0289F12
:1057C000F001299FF00D389FF00D1124E05FF94F93
:1057D000808188608083A72CBB248DE090E0A89E08
:1057E000A001A99E500DB89E500D1124DA01A85FAA
:1057F000B94F16E0C12ED12CCA0EDB1E1696ED91C4
:10580000FC9117978081882309F458C087010E5DA9
:105810001F4F80912C02282F30E02E5D3F4F90913A
:105820002B0280E0280F391F2E193F09B801655E51
:105830007D4FEA01C05FD94F1496F4EF8F2EF5E04B
:105840009F2EA601E2E9CE2EE1E0DE2E34C0888153
:1058500080FD17C0FB018081ED91FC911197919122
:105860001196FC93EE93891719F011969C928E92E3
:10587000ED91FC9111978081882319F488818160D2
:105880008883FB018081FA0140805180F20191916F
:105890002F01FA0151824082891711F0D182C08212
:1058A0006F5F7F4FFA0180819181FC0180818823A5
:1058B00029F00F5F1F4F0217130748F28DE090E0A9
:1058C000A89E9001A99E300DB89E300D1124F901BB
:1058D000E05FF94FE081E0FF42C1E3FF40C1870193
:1058E0000E5D1F4F80912C02482F50E04E5D5F4FA0
:1058F00090912B0280E0480F591F4E195F09B801A3
:10590000655E7D4F88246901C901885F994FEC016C
:10591000299628E8422E21E0522E9C01255F3F4F18
:105920008DE8282E81E0382E16C1DB019C90E8819D
:10593000F9818191F983E883981611F059824882A0
:10594000E881F9818081882309F0DFC0FB01818132
:1059500090E0FC01E154F040E833F10508F0D3C0D9
:10596000E65DFF4FEE0FFF1F0590F491E02D0994C7
:1059700088248394C8C0809113028F5F03C08091F4
:1059800013028E5F80931302BEC0809113028C5F5E
:10599000F9CF80911302885FF5CF80911302805F69
:1059A000F1CF80911302805EEDCF80911302805C75
:1059B000E9CF809113028058E5CF809174009091D7
:1059C00075008630910508F49EC0019709C080914A
:1059D0007400909175008E31910508F094C0019685
:1059E00090937500809374008EC0809176009091A2
:1059F00077008630910508F486C0019709C0809130
:105A00007600909177008E31910508F07CC0019668
:105A1000909377008093760076C080917C0090917F
:105A20007D00009709F46FC0019709C080917C0048
:105A300090917D008431910508F065C001969093A6
:105A40007D0080937C005FC08091840090918500F0
:105A5000009709F458C0C2970AC0809184009091C1
:105A60008500F4E08A319F0708F04DC0C2969093FC
:105A700085008093840047C08091880090918900C0
:105A80008731910530F401969093890080938800C6
:105A90003AC0109289001092880035C080918A0027
:105AA00090918B008D32910530F40F9690938B007E
:105AB00080938A0028C010928B0010928A0023C025
:105AC00080918C0090918D008731910530F4019682
:105AD00090938D0080938C0016C010928D001092D0
